:020000021000EC
:108000000040002029B8010065B8010067B80100F0
:108010000000000000000000000000000000000060
:1080200000000000000000000000000069B801002E
:1080300000000000000000006BB801006DB80100F6
:108040006FB80100BDAB0100B1BC01006FB8010009
:108050006FB80100000000006FB801006FB80100A8
:108060006FB8010031BF01006FB801006FB80100A7
:108070006FB801006FB801006FB801006FB8010060
:108080006FB801006FB801006FB801006FB8010050
:108090006FB80100F9B50100C9B601006FB8010061
:1080A0006FB801006FB80100000000000000000080
:1080B00000000000000000000000000000000000C0
:1080C00010B5064C2378002B07D1054B002B02D0AE
:1080D000044800E000BF0123237010BD68020020A7
:1080E000000000004408020008B5084B002B03D034
:1080F0000748084900E000BF07480368002B00D18B
:1081000008BD064B002BFBD09847F9E700000000A4
:10811000440802006C0200205C0200200000000005
:10812000164B002B00D1144B9D46402292029A1A06
:10813000924600218B460F461348144A121A07F044
:10814000CFFE0F4B002B00D098470E4B002B00D0DA
:1081500098470020002104000D000D48002802D09F
:108160000C4800E000BF05F00FFE2000290007F0DA
:10817000B0FB05F0F3FDC046000008000040002001
:108180000000000000000000600200200017002036
:10819000000000000000000008B500F089FD024A60
:1081A00013680133136008BD8402002010B5041C5D
:1081B000034B0833036001F0B1FC201C10BDC04626
:1081C000F8000200002310B5041C83808371034B68
:1081D0000833036001F084FC201C10BDF80002008D
:1081E000054A1368191D116004490A68501C08608B
:1081F00012781A607047C0468C020020900200205E
:108200000D4A30B51368591C1160991C1C78116017
:1082100059780D02D91C1160997808042918181D85
:108220001060DB7809191B06CB1804490A68101D79
:108230000860136030BDC046900200208C02002010
:10824000074A30B51368074C591C1160206819782B
:10825000051D0233256003605B18136030BDC04606
:10826000900200208C02002008B5024B1B68984742
:1082700008BDC04698120020114930B50A6811485F
:10828000531C0B60941C13780C6052781202D218A5
:1082900003681D1C1C60C024083505600A4DA4023B
:1082A000141952190A6022785A60084A11689960B4
:1082B000191C10310160064811600068D86030BD9B
:1082C000900200208C0200200100030088020020A0
:1082D0009812002008B50E4A1368591C11601B78CB
:1082E0005A1ED2B2FD2A04D900220A4B1B681A601A
:1082F0000DE05AB2002A04DB074A9B009B589847BE
:1083000001E0FFF7B9FF054B1B78002BE3D008BD58
:10831000900200209402002004010020DA160020C0
:108320000B4A1368002B12D0191F0868094908600E
:10833000191C0839096811601A1C0C3A1268103BA4
:108340009200186804499B1A044A08601360704739
:108350008802002098120020900200208C02002049
:108360000E480F4A036830B5043B1C681368191F98
:108370000D680C490D60191C0839096811601A1C38
:10838000103B0C3A11681A1C074B15681D608B00D6
:10839000D31A1A1D02601C6030BDC0468C0200203A
:1083A0008802002098120020900200200849094A03
:1083B0000B6810681860181C083008600649043BF8
:1083C00008689860054808601B6813607047C046DD
:1083D0008C02002090020020981200206D8901007C
:1083E0000A4B70B51A68111C08390868141F2568F3
:1083F0001960002809D0064806680E601A60054B0F
:108400001A682260044A1D60026070BD8C02002060
:1084100098120020900200205D8401000B4A70B584
:1084200013681C1C1D1F0C3B1E68083C2868216833
:10843000002E00D1011C064806681E60054B156021
:108440001A682260044A1960026070BD8C02002024
:1084500098120020900200205D840100054A1368F4
:10846000191F083B0868136003491A68034B08602A
:108470001A6070478C0200209002002098120020A1
:10848000054910B50B68181F083B02681C68086096
:10849000A2181A6010BDC0468C020020054910B514
:1084A0000B68181F083B04681A680860121B1A60E2
:1084B00010BDC0468C020020054910B50B68181F7E
:1084C000083B02681C68086062431A6010BDC04621
:1084D0008C020020054B10B51C68221F083C116857
:1084E00020681A6003F0C6FE206010BD8C020020D8
:1084F000064910B50B68181F083B04681A68086025
:10850000121B51424A411A6010BDC0468C02002025
:10851000064910B50B68181F083B04681A68086004
:10852000121B511E8A411A6010BDC0468C020020E9
:10853000064A10B51368191F083B08681C681160CB
:108540000122844200DC00221A6010BD8C0200204F
:10855000064A10B51368191F083B08681C681160AB
:108560000122844200DB00221A6010BD8C02002030
:10857000054910B50B68181F083B04681A680860A5
:1085800022401A6010BDC0468C020020054910B57B
:108590000B68181F083B02681C68086022431A60B9
:1085A00010BDC0468C020020054910B50B68181F8D
:1085B000083B02681C68086062401A6010BDC04633
:1085C0008C020020054A11680B1F186813601160A7
:1085D0000022002800D101221A6070478C0200207E
:1085E000054A1368191F083B096813601B68034A92
:1085F0009B0099507047C0468C0200209C120020BE
:10860000044B05491B68043B1A68920052581A60D3
:108610007047C0468C0200209C12002006490B685F
:108620001A1F083B12680B601B6804499B005858CE
:1086300082185A507047C0468C0200209C120020BD
:10864000084B10B51C68201F083C016822681C609C
:108650001860101C914201DC081C111C06F09BF9EB
:10866000206010BD8C020020044A08B51368043B4A
:108670001868136000F036FC08BDC0468C0200206C
:10868000054A08B51368191F083B09681868136084
:1086900000F034FC08BDC0468C020020044A08B536
:1086A0001368043B18681360C0B200F05DFB08BD9E
:1086B0008C020020044B10B51C68221D1A6000F0CB
:1086C0005FFC206010BDC0468C020020044B10B53A
:1086D0001C68221D1A6000F05DFC206010BDC046C1
:1086E0008C020020064A08B51368191F083B096868
:1086F0001868C9B2C0B2136000F05EFB08BDC04686
:108700008C020020064A08B51368191F083B096847
:108710001868C9B2C0B2136000F06EFB08BDC04655
:108720008C020020044B10B51C68221D1A6000F05A
:1087300047FC206010BDC0468C020020044B10B5E1
:108740001C68221D1A6000F043FC206010BDC0466A
:108750008C020020044B10B51C68221D1A6000F02A
:108760003FFC206010BDC0468C020020044B10B5B9
:108770001C68221D1A6000F03BFC206010BDC04642
:108780008C020020044B10B51C68221D1A6000F0FA
:1087900007FC206010BDC0468C020020044B10B5C1
:1087A0001C68221D1A6000F003FC206010BDC0464A
:1087B0008C02002000230021044A9950802292005C
:1087C0009B18802252019342F5D1704798020020F5
:1087D00008B5FFF7EFFF0122014B1A7008BDC04634
:1087E000DA1600200B78934208D1054B8160436074
:1087F0000023C3600361031C143303607047C04649
:10880000D582010038B5C024051CA402064B211CEA
:10881000E018064BC00118182A1CFFF7E3FF044BB1
:1088200004349C42F2D138BD0000FD0198020020C2
:108830002000030008B50E4B0E4A18600368136051
:10884000002B14D0191F08680B490860191C08393F
:1088500008680A490860191C0C3908680849103B67
:10886000086000200749136008701B68984708BD1E
:10887000940200208C020020981200208802002020
:1088800090020020DA16002038B5074C251C201C69
:10889000FFF7D0FF80239B00E41880235B01EB18D7
:1088A0009C42F4D138BDC046980200200A490B4AC8
:1088B0000B68126818605A60094A12689A601A1C9C
:1088C00010320A6007490968D960074B1B681A60B3
:1088D0000122064B1A7070478C0200209002002083
:1088E000880200209812002094020020DA1600204E
:1088F00070B50D4D0D4C2B680D48191C10390A68C8
:10890000002A08D11A1F16680A4A083B16601B681D
:108910002960236004E0013A0A600C3B1B68236075
:10892000FFF7C4FF70BDC0468C02002090020020FB
:10893000D582010098120020084A094908B5096843
:1089400013681960191C08311160064A11685960D2
:10895000054B1360FFF7CCFF08BDC0468C0200201A
:108960009002002098120020F18801000C4A70B596
:1089700013680C4C191F0D6811600B480C39002D41
:1089800002D10B68236008E01D1C083D2E68074DCE
:108990000C3B2E601B6811602360FFF787FF70BDE2
:1089A0008C02002090020020D58201009812002045
:1089B00008B5064A064B07481A60074B1B68043B7C
:1089C0001A68064B1A60FFF771FF08BDB1890100F4
:1089D00098120020D58201008C0200209002002015
:1089E00008B505F0E0FF054B1B68043B1A688018CA
:1089F00018600348FFF75AFF08BDC0468C020020EC
:108A0000058A010008B505F0CEFF064A1368043B4D
:108A10001968884202DD1360034800E00348FFF74D
:108A200045FF08BD8C020020D5820100058A0100A7
:108A30000020094A1368591C11601856074B00287A
:108A400004DA01301B688000181A04E080004042FC
:108A50001B68143818187047900200208802002004
:108A6000044B10B51C68221D1A60FFF7E1FF036874
:108A7000236010BD8C02002008B5FFF7D9FF034A20
:108A80001368043B13601B68036008BD8C02002060
:108A9000054A10B51368043B13601C68FFF7C8FF54
:108AA00003681C19046010BD8C02002010B5041C62
:108AB000034B0360403006F0CDF8201C10BDC046CB
:108AC0001801020008B50348012102F0B9FAC0B24A
:108AD00008BDC0460813002008B50248002102F076
:108AE000AFFA08BD0813002008B5011C0122024896
:108AF00002F046FA08BDC04608130020962108B5CA
:108B00000348C90102F00CF9024800F0FBFC08BD63
:108B100008130020EC12002037B505F0A3FE041C5A
:108B200005F0A0FE051C05F094FE0022031C291C84
:108B300000920448221C02F067FBBF20FFF7D4FF1D
:108B400037BDC046DB16002008B505F08BFE011CC2
:108B5000034802F0E1FAAF20FFF7C6FF08BDC046A8
:108B6000DB16002013B50024054B0093054B019341
:108B70006B46185D0134FFF7B7FF082CF8D113BD21
:108B800098020020D582010010B5FFF7B7FF00F072
:108B900065F91749174806F068FEFFF70BFE05F068
:108BA00002FF1930041C05F0FEFEA04208DAFFF7B0
:108BB00093FF114B9842F6D0C0B205F09DFEF2E74C
:108BC00000F04EF80D4B1A68002A04D000228020D5
:108BD0001A60FFF717FE0A4B1A68002A04D0002219
:108BE00081201A60FFF70EFEFFF74EFE1934DAE718
:108BF00028050200081300200CFCFFFFEC140020E5
:108C0000D4130020142337B50E4D0093281CB43321
:108C10001821192202F08EF80B4C0C49221C281C3A
:108C200007F0FBF80A4806F0E9FC0A4802F062FA8D
:108C3000094D281C01F0F2FE281C0849221C07F0EF
:108C4000ECF837BD0813002000010020AD8A0100B8
:108C5000DC160020DB160020EC120020DDA901004C
:108C600008B50D4806F050F90C4B1A6851424A41BC
:108C7000024202D001210A4A11601860094806F038
:108C800043F9094B1A6851424A41024202D001217C
:108C9000064A1160186008BD68130020DC1400202B
:108CA000EC14002090130020E0140020D4130020C6
:108CB000F7B51A4C0121201C06F0EBF8012186B211
:108CC000201C06F0F9F8012185B2201C06F007F9F6
:108CD00083B200936B4632B228B200215B5E5243EE
:108CE00040435B438018C01804F008F904F04EFFBD
:108CF0006A460B4F12883B685C000193094BE652B1
:108D0000094BE552094BE25204F0D8F81F22084BF8
:108D1000E052019B013313403B60F7BDD8130020A4
:108D2000AC140020181600209816002058160020B9
:108D3000D815002038B504AC2578084CE370084BF2
:108D40002070617003CBA270257100F0C5FD202159
:108D50000022044801F0FEFB38BDC046DD160020AD
:108D60002C1400203414002010B5041C0520C4234A
:108D700060439B02C01805F003FE014B1C6010BD50
:108D8000D81400200520C4210A4A08B513688902B6
:108D90000133136043435B181B78FF2B01D1002381
:108DA000136013685843C4239B02C01805F0E8FD04
:108DB00008BDC046D8140020F8B5071C081C0521C2
:108DC00003F04EFA381CCCB2052103F049FA042511
:108DD000C9B22C1B6D1A0121A9400D1C044E202183
:108DE000335D00221D430348355501F0B3FBF8BD48
:108DF000DD16002034140020F8B5071C081C0521DE
:108E000003F02EFA381CCCB2052103F029FA04260F
:108E10000122CBB2F31A9A403F21131C054D341B9B
:108E20004B40295D00220B40034820212B5501F0C7
:108E300091FBF8BDDD16002034140020002307B597
:108E40001A1C0093181C191CFFF774FF0122024B17
:108E500052421A6007BDC046D814002013B500F076
:108E600047FA1F4C0121201C06F0CBF9201C0024DE
:108E7000642101F091FB211C231C201C042200947E
:108E8000FFF758FF322005F069FD0E21201C0B1C56
:108E900004220094FFF74EFF322005F05FFD112100
:108EA0001F200A1C0B1C0090FFF744FF322005F026
:108EB00055FD0E21201C0B1C04220094FFF73AFFE5
:108EC000322005F04BFD211C0422231C201C0094A1
:108ED000FFF730FF322005F041FDFFF7AFFF13BD74
:108EE0003414002008B5021C0249034806F0BDFCFA
:108EF00008BDC0466B0502000813002070B5041CB5
:108F00000D1C2178002928D025291FD16178661CE5
:108F1000642913D006D800291FD0622911D10F4827
:108F20000F4907E00D48682903D0772909D10D4979
:108F300000E00D492A1C06F098FC0CE007480B499C
:108F4000F8E70122054802F01BF804E0034801227B
:108F500002F016F8261C741CD3E770BD081300201D
:108F60006F05020079050200740502007E0502000B
:108F700008B500F09DFD014B186008BDB813002036
:108F800008B500F095FD024B1B68C01A08BDC0462D
:108F9000B8130020014B18687047C04684020020B7
:108FA00008B5024805F0B0FF08BDC04668130020B0
:108FB00008B5024805F0A8FF08BDC0469013002080
:108FC00008B5024805F0F3FC08BDC046181600209D
:108FD00008B5024805F0EBFC08BDC0469816002015
:108FE00008B5024805F0E3FC08BDC046581600204D
:108FF00008B5024805F0DBFC08BDC046D8150020C6
:10900000F7B52C4D0621281C2B4A01F063F92B4C97
:10901000281C221C2A4906F000FF00250122294FA6
:10902000131C0095381C112101F076F8264E221CE5
:10903000311C381C06F0F1FE244F01230095381C2A
:109040001A21022201F068F8381C311C221C06F09B
:10905000E4FE1F4E2A1C301C1E2106F0F0F81D4DA8
:109060000423311C281C3A2200F048FE221C281C34
:10907000194906F0D2FEC42134228902174805F0AE
:1090800044FD17492222174805F03FFD164D281CC4
:10909000FFF798F8221C281C144906F0BEFE144D58
:1090A0001D21281C01F024FD281C1249221C06F059
:1090B000B4FEF7BD341400203C0202000001002081
:1090C0008DA201006813002001A10100901300206F
:1090D000BC130020D8130020DD9B0100E414002005
:1090E000DD1600202C14002024140020AD81010086
:1090F000B01400205BE90100BFF34F8F024A034B1D
:10910000DA60BFF34F8FFEE70400FA0500ED00E0E0
:10911000F0B597B018220021061C10A806F0E0FE5A
:1091200010A8132106F0E3FC10A8032106F080FD2F
:109130000122554B01921B68002B01D0DBB2019339
:1091400000240BA80021514A012302F015FD221C26
:109150004F4BB342624153421E4072B64D4B1022F8
:10916000211C07A81F6806F0BBFE4B4B6421301C76
:10917000079303F07FF80A2103F062F9052569439C
:10918000503179180891301C0A2103F073F80A2134
:1091900003F056F96943503179180991301C0A21BE
:1091A00003F04EF94D4350357F190A978027BF01D0
:1091B000019B002B4BD00026384B751E1D4004D55B
:1091C0000423013D5B421D430135B300049300239A
:1091D0000293032C02D180270024BF01049A07AB1D
:1091E000D3582F4A9C4663000133D31800220392C0
:1091F00061461878095C581E0591017810200841D5
:109200000599084204D0012090400399014303913D
:1092100001320633092AEBD1039B07AAD943214B1C
:1092200009011940AB009B589C4505D1029B312B8D
:1092300002DC0BA8002101E039430BA806F0B3FDC6
:10924000FA23159A1199DB001068014201D1FFF74A
:1092500053FF013B002BF7D1029B013401330293F2
:10926000FA23029A7F00E4B25B009A42B1D1013640
:10927000042EA1D1044B1B68002B99D0019B013B0C
:10928000DBB2019394E7C046F0140020F0FF000029
:10929000E7030000CC010020B705020003000080B6
:1092A00081050200F01F0000F0B500281ADD0E4C09
:1092B000421E2368151C0020DF0F9E097E405E4081
:1092C0001F0959087E409B0873404B40DB070B4346
:1092D00001214000194008436D08EDD19042E9D8C2
:1092E000236000E00148F0BDF414002017FCFFFFEC
:1092F00038B50023134C236005F072FB251C0028B1
:1093000008D0201C042105F067FB002819D00E4B63
:10931000236016E0012204210C4B1A602368002010
:109320000B4A506054680948002CFBD0A122D2009F
:1093300082581B02013913430029F0D12B6001230D
:10934000436038BDF4140020ED5EBC0B00D000403B
:10935000FCD00040F0B585B01F1C0AAB1B88061C72
:109360000D1C02920393002F1BD0282000F0D4FA8A
:109370006B46041C1A89039BA9B200933B1C05F0A1
:1093800008FC3368301C5B68211C984700280BD010
:10939000002C08D0201C05F013FC201C00F0DEFA85
:1093A00001E0024800E0024805B0F0BD17FCFFFFF5
:1093B00016FCFFFF38B50B4B1C68002C10D0656DF8
:1093C00000F076FBA36C002901D1834206D8201C53
:1093D00005F032FB201C044905F01BFB2C1CECE7BC
:1093E00038BDC0461C15002024150020F0B5041C13
:1093F00093B00793230C0293284B04901C68284BCE
:1094000005911E68069285B20027002E43D0002CDD
:109410002DD0636D23490393A36C9AB21B0C8D422C
:1094200011D121498A420ED1002B02D0029A9342D7
:109430001BD1002F18D1201C05F0FEFA201C1B495F
:1094400005F0E7FA10E0002A01D0AA420DD1002B66
:1094500002D0029A934208D1201C05F0EDFA201C9C
:10946000124905F0D6FA00E00127039CCFE7104B24
:10947000EB18012B0FD91023291C0093029A0D4BD6
:1094800008A805F086FB3368301C9B6808A998473C
:1094900008A805F095FB13B0F0BDC04618150020D4
:1094A00028150020FE030000FF0300002415002003
:1094B00002FCFFFFED93010010B572B60B4B1C6868
:1094C000002C03D0201C05F0B7FA08E062B65C203F
:1094D00000F022FA00215C22041C06F001FD0023AA
:1094E000E364034B201CE36310BDC046F814002066
:1094F00000400020024B1878012318407047C046F6
:10950000E2160020F7B5061CFFF7F4FF041E33D166
:109510001A4D2E60FFF7D0FF194B1A49186005F05D
:1095200078FAFFF7C9FF184B1860184B4363184BC4
:109530008363286800280ED0C027164E1649221CC7
:10954000331C0097FFF706FF009728681349221C79
:10955000331CFFF7FFFE0C2000F0DEF900238380B0
:1095600083710F4B03600F4B836000F0B9FA012148
:109570000D4A13780B431370F7BDC0462815002021
:10958000FC140020241500202C150020FC3F002096
:10959000FFEA0100ED930100FF030000FE0300005D
:1095A00028010200B5930100E2160020F7B500285B
:1095B00001D1002019E00029FBD00193171C0D1CDC
:1095C000061CFFF779FF041EF3D0084B019A436392
:1095D000066045608760064B002A00D0054B201CC2
:1095E000A363054905F015FA201CFEBDFC3F0020D1
:1095F000C9EA0100E7EA010024150020024B1868BF
:10960000434258417047C04624150020002310B53E
:1096100004499C006258002A01D00133F8E76050E9
:10962000101C10BD00150020002310B5044A99003D
:109630008C58844201D00133F8E70020885010BDD7
:109640000015002010B50024074BE058002802D078
:1096500003685B6898470434182CF5D1034B1B68EA
:10966000002B00D120BF10BD0015002024150020C4
:10967000F8B5FFF73FFF002855D02B4E3468351C56
:10968000E36CDA0718D502252B43E3640423274F44
:109690003868C26C1343C364636BC36305F0F2F9AB
:1096A0003B68181C596C01F05EFE3068C36C2B429D
:1096B00039D001F092FE36E01D4F1E4E3A68002A66
:1096C00001D1326806E0216DB94203D1616D0029F4
:1096D00000D00A1C2A602A6831688A4208D11B0718
:1096E00006D52C60FFF7AEFF3B68002BFAD02B604D
:1096F0002B68A34217D03268934204D10E4A5A63B2
:109700000E4A9A6305E0944203D10020191C021C02
:1097100006E0201C05F0B6F92B68201C191C626CB1
:109720005B6C01F0DFFDF8BDFC140020201500206B
:10973000241500202C150020FC3F0020FFEA01002A
:1097400038B5114B051C1C68FFF7D4FE002803D167
:10975000281C06F066FA16E0E36CDB0706D5FFF777
:10976000ABFE0A4B1860002800D0041C00F0A0F9E2
:109770002818A064201C05F05FF9201C044905F09E
:1097800048F9FFF775FF38BDFC14002020150020B4
:109790001C150020F0B51E4B85B01C681D4B1A68C7
:1097A0000393002A05D00F1C051CFFF7A3FE002819
:1097B00001D119482AE0E36CDB070ED5FFF77CFEE8
:1097C000164B061E186008D005F036F9301C1449F7
:1097D00005F01FF9341CFFF74BFF3B042B43A36438
:1097E000201C05F029F9201C0E4905F012F90E4B3A
:1097F0000020EB18012B09D9C0230093039B291CDF
:1098000018683A1C094BFFF7A5FD002005B0F0BD14
:10981000FC1400202815002016FCFFFF2015002056
:10982000241500201815002002FCFFFFED93010015
:1098300010B5FFF75FFE002809D0054C206805F041
:10984000FBF82068034905F0E4F8FFF711FF10BDAD
:10985000FC140020F8140020F7B500282FD00C1CB1
:10986000051CFFF747FE00282BD00726164F386847
:10987000C36C1E4006D0281C211C144A05F0F3F8C6
:1098800000261FE001F091FD02213A68D36C1940D7
:10989000019103D003218B43D36413E001263343AA
:1098A000D364201CA8473A68D36C191CB143D16417
:1098B000019E5B0706D5201C05F00DF902E0044E61
:1098C00000E0044E301CFEBDFC140020D7EA01006D
:1098D00017FCFFFF16FCFFFF82B06B46034A0090A7
:1098E000019103CB03C202B07047C046301500207F
:1098F000021C10B5014B12CB12C210BD3015002056
:10990000034A044B12681A607E225A607047C046B0
:10991000CC0100203015002038B5051C00240D4B6B
:109920001B789C4209DA0C49E300C918281C05F091
:10993000EFF800280AD10134F1E7281C04F04AFAB4
:10994000041E04D11420FFF7E3FB00E0041C201CDC
:1099500038BDC046E31600203815002038B5002871
:1099600018D00D4B1C780023A34211DA0B49DA0002
:109970005558A8420AD98A185268904206D28023C4
:10998000043802681B061343036003E00133EBE76E
:1099900004F02AFA38BDC046E3160020381500202E
:1099A00070B5002816DD0C4B051C1A681C1C0B4EEC
:1099B000002A02D0306805F0DBFFFA212560002480
:1099C0003068074B89008361C462694305F0D8FFA2
:1099D000201C00E0034870BD7815002048150020C9
:1099E0008D9A010017FCFFFFF8B5114F061C3D686A
:1099F000002D0AD13020FFF78FFF041C01F0E6FE96
:109A00000C4BA5612360E5623C600B4D2B68002B7D
:109A100009D11020FFF780FF041C05F0FEFF201C79
:109A20002C6005F0D4FF301CFFF7BAFFF8BDC0462C
:109A3000481500200002020074150020014B186830
:109A40007047C0467815002070B50D4C2368002B78
:109A500003D00C4B1B68002B02D10620FFF7C4FF7C
:109A6000206805F0CBFF021C0749C3170D684E683C
:109A70005219734120680A604B6005F0C5FF70BD44
:109A800074150020481500206002002010B5FFF773
:109A9000DBFF0024054BE058002802D003681B6858
:109AA00098470434282CF5D110BDC0464C15002031
:109AB00008B5FFF7C9FFFA22034B920018685968EE
:109AC000002302F003FD08BD6002002008B5FFF787
:109AD000BBFF024B1868596808BDC04660020020F1
:109AE0000B4B10B51B68041C002B03D0094B1B68E3
:109AF000002B02D10620FFF777FF0023064A9900CA
:109B00008858002801D00133F8E78C5010BDC046BA
:109B100074150020481500204C150020002310B5B6
:109B2000044A99008C58844201D00133F8E70020A0
:109B3000885010BD4C150020014B03607047C04693
:109B40005402020010B50548054C206005F0F1F8FC
:109B5000201C0449044A06F060F910BD54020200BA
:109B60007C15002055EC010000010020084B73B566
:109B70001D68002D0BD0011C041C2E680831082222
:109B8000684606F090F90CCC3168281C884773BDF4
:109B90008015002010B5054C0121201C05F0BDF8F2
:109BA000201C0349034A06F038F910BD8415002033
:109BB000D9EC01000001002008B5074A0388012004
:109BC000934208D0834202D00020DB0703D41E203A
:109BD000FFF79EFA002008BDFFFF000010B5041C2F
:109BE000034B08330360FFF71FFD201C10BDC04668
:109BF00038010200FA2370B52A4A41899B00594373
:109C0000131C3833041C181C083A1D681E1C8D4296
:109C10000CD2061C244B227B1D1D082A0BD8042ABB
:109C200009D89D1C022A06D81D1C04E0083B301CE4
:109C30009342EAD1EEE7FA213068890002F08AFA0D
:109C400060812B78201C23732A21002205F094F8D0
:109C5000002801D0154824E0201C2B21102205F0FB
:109C60008BF80028F6D1201C2D21012205F084F864
:109C70000028EFD1201C2E21012205F07DF80028BC
:109C8000E8D16A78201C0E2105F076F80028E1D191
:109C900001223379201C1A432A2105F06DF800288F
:109CA000D8D170BD5C020200970702000EFCFFFFD6
:109CB0007FB5161C0F226A44041C1D1C1170002E57
:109CC00015D0002B13DD012301890093006B00F0F8
:109CD000B7FC002801D007480AE000902189206BDA
:109CE000321C2B1C00F062FC002801D0F3E7024874
:109CF00004B070BD0EFCFFFF17FCFFFFF7B5061C9C
:109D000000250193214B14360833041C0360858021
:109D10008571C581058245820F1C0092291C18227D
:109D2000301C06F0DDF8301C1C2105F0E0FE6B460F
:109D30009B88211CA3806B461B880222238114234D
:109D40006381231C3E313833A571227327631D7054
:109D50005D700B7865879343F1321340221CA58711
:109D60000B70231C4832157055800135221DD58794
:109D70000833A21DD587201CDD87FFF73BFF002895
:109D800002D1A3791D43A571201CFEBD380102003C
:109D900030B50425837987B0041C2B4204D1FFF72A
:109DA00035FCA3792B43A371A36AA2691B68002524
:109DB0001A422AD1201C01216A460623FFF778FFA8
:109DC000002801D0124D20E06B460221684659560A
:109DD00000781B79227B40B25BB25143534342432C
:109DE00089B2D200E281CA00228202229BB2DB0049
:109DF0006382A379201C9343A37104F0CBFF01225B
:109E0000A18802A8131C04F044FF281C07B030BD31
:109E10000EFCFFFFF8B5041CFFF7BAFF0E22A35E8D
:109E20007C4F5B42BB4205DA231C3E331B789B0709
:109E300000D5C6E0201CFFF7ABFF0E22A35EC822B0
:109E40005B4200255200934205DD231C3E331B7804
:109E50009B0700D4B5E0201CFFF79AFF1022A35EF9
:109E60005B42BB4205DA231C3E331B785B0700D5FF
:109E7000B5E0201CFFF78CFF1022A35EC8225B42D6
:109E80005200934205DD231C3E331B785B0700D450
:109E9000A5E0261C201CFFF77BFF1222A35E48369C
:109EA000BB4205DA231C3E331B781B0700D5A3E019
:109EB000201CFFF76DFF1223E25EC8235B009A426D
:109EC00005DD231C3E331B781B0700D494E0002DD6
:109ED00019D03378032B16D80133DBB23370012B42
:109EE00004D1231C00224A331A800CE0042B0AD12F
:109EF000221C01213E3213784A340B431370002395
:109F000023800B3384E03278002A1AD0211C271CCE
:109F100001254A310B883E3701339BB20B803878DC
:109F2000AC46054008D01D2B0BD96346984300234F
:109F300038700B80337004E0092B02D9013A0D8090
:109F40003270201C04F091FF334A072390425FDDFA
:109F5000201CFFF71DFF0E23E25E304E524203230A
:109F6000B24255DBC825201CFFF712FF0E23E25E2C
:109F7000AD0052420423AA424ADC201CFFF708FF2E
:109F80001023E25E02235242B24241DB201CFFF763
:109F9000FFFE1023E25E01235242AA4238DC201C5D
:109FA000FFF7F6FE1223E25E0523B24230DB201CEF
:109FB000FFF7EEFE1223E25E0623AA4228DC00230E
:109FC00026E00125211C281C3E310B785A089043BD
:109FD000021C0220AA40834313430B703BE7012578
:109FE000211C281C3E310B789A08904382000420E3
:109FF000834313430B704CE7211C01223E310B7845
:10A00000D80882430820D200834313430B7060E7D3
:10A01000181CF8BD70FEFFFFFF700200E0FCFFFFA0
:10A0200070B5C369C2681B688AB0041C451D1A421A
:10A0300050D0EB7F002B01D0013BEB77EB7F082B5F
:10A040000DD90123A2791A4209D11A43A271A1881C
:10A050001A1C06A804F01DFEFFF72AFD2062EB7F04
:10A06000012B26D80123A2791A4222D00025A188EB
:10A07000A57102A8022204F00CFEA31DDE7F012EB2
:10A0800017D1FFF715FD2B1C226A801A9941009009
:10A090000191019BA18806A8AB4203D1164B009AFF
:10A0A0009A4202D90422012301E00322331C04F066
:10A0B000F0FD0323A2791340012B1AD1FFF7F8FC1E
:10A0C0000023226A801A9941994208D10B4B984289
:10A0D00005D80EE0EB7F0B2BB0D80133ADE70222A1
:10A0E000A379A1881343A37106A80332012304F0C6
:10A0F000D0FD0AB070BDC046E7030000DB050000DC
:10A1000010B5041C034B08330360FFF707FD201C48
:10A1100010BDC04650010200F0B5071C00250E1C02
:10A1200085B002930AAB1B7808370393104B041CCD
:10A1300008330360019285808571291C381C182220
:10A1400005F0CEFE381C311C039A05F0D5FC6B4699
:10A150006A469B88127AA380A31DE671DA77631D95
:10A160002562201CDD77FFF7BBFC201C05B0F0BD8D
:10A1700050010200F0B5041C85B0637A9C46002BA8
:10A1800003D1201C04F0CEFE69E0A37A01210193E3
:10A190001023266F019AF3560025D3189940029197
:10A1A000291CF3680393039B9D4231DAB368019A3B
:10A1B0006B439B1872695B00E77AD3181A7858785A
:10A1C000E379012F04D15F1E3F1A101C3A1C0EE0E8
:10A1D000022F05D15F1EBA1A277A013F381A06E00E
:10A1E000032F04D1277A013FBF1A021C381C5B00E1
:10A1F0004343606F8218D3189B79634500DD634643
:10A20000627B1A4202D00123AB4019430135CAE7F1
:10A210001123C943F356606C994023691940029B8E
:10A22000194305F0C0FDA37B072B18D8627B581C8F
:10A23000520062730B499A00A073022B03D888580E
:10A2400005F0E4FC99E7084B201C236300236363BB
:10A25000064B8958E4622364143005F091FB05B085
:10A26000F0BDC0469C02020075A1010011EF010083
:10A2700010B5041C044B036005F07AFB201C01F0B0
:10A28000BBFA201C10BDC0460002020010B5041C21
:10A290000E4B08330360FFF741FC201C743005F0BF
:10A2A000EBF9201C603005F0E7F9201C583004F071
:10A2B000D1FC201C503004F0CDFC201C044B143089
:10A2C0006361FFF7D5FF201C10BDC0466801020086
:10A2D00018020200F8B50025041C314B85800833B4
:10A2E000036085711430161C0F1C01F06FFA201CDE
:10A2F0002C4BE562636125645030FFF71DFC201C88
:10A300005830FFF719FC201C603001F07DF8201C4C
:10A3100033682667590009B20423F25E743005F0F1
:10A32000C1F93378226FE3717368A7802372102319
:10A33000E572A5722561D356916859188B4204DAEB
:10A340000120984001330543F8E71123D168D35623
:10A3500059188B4206DA01229A40206901330243E0
:10A360002261F6E71420FFF7D7FA226900212A4379
:10A370000123061C01F000FCFF226272221C002354
:10A380000125483266646573A3732373201C137020
:10A39000A366FFF7A5FBA379201C2B43A371F8BD8F
:10A3A0006801020018020200F7B5437A041C002B72
:10A3B00003D1201C04F0B6FD64E0837A01219C46A1
:10A3C0001023066F0025F356634499400091291C21
:10A3D000F3680193019B9D422CDAB36872696B4369
:10A3E00063445B00E77AD3181A785878E379012F31
:10A3F00004D15F1E3F1A101C3A1C0EE0022F05D13B
:10A400005F1EBA1A277A013F381A06E0032F04D1DB
:10A41000277A013FBF1A021C381C5B004343606F60
:10A420008218D3189B79002B02D00123AB4019432B
:10A430000135CFE71123C943F356606C9940236976
:10A440001940009B194305F0AEFC667AB31EDBB2DF
:10A45000FC2B14D8FFF7F2FA0B4B051C23630023E7
:10A460000A4863630A4BFF21E4622364704301F0EE
:10A4700001FF011C201C6943143005F081FA637A46
:10A48000012B96D9F7BDC04625EF0100B6030000A9
:10A4900011EF01001FB501228188131C684604F0EA
:10A4A000F8FB012268460349131C04F0F2FB05B0D7
:10A4B00000BDC046FE03000008B548300378002BFD
:10A4C00006D00378012B03D00248012104F0F3FAEF
:10A4D00008BDC046FF03000010B50121041C062082
:10A4E00004F0E9FA064B984209D1231C48331A7844
:10A4F000002A04D01B78012B01D020BFF5E710BD46
:10A5000016FCFFFF70B5051C141E09DB061C48363F
:10A510003378002B06D03378012B03D00B4813E09F
:10A520000B4811E00022281C131C743000F0C6FFF9
:10A530000020844207D02B1C4A331C8007234C3553
:10A540002880337000E0201C70BDC04612FCFFFF65
:10A5500017FCFFFFF8B5002A16DB041C151C0F1CA6
:10A56000FFF7AAFF231C48331E78F6B2002E0DD148
:10A57000201C391C2A1CFFF7C5FF281E07D0201CF1
:10A58000FFF7AAFF301C02E0014800E00148F8BDD7
:10A5900017FCFFFF11FCFFFFFF2902D841720020CA
:10A5A00000E001487047C04617FCFFFFF0B51F1CD4
:10A5B00085B00AAB1B78041C039300933B1C0D1C55
:10A5C000161C05F025F9002832D0237D082B2DD844
:10A5D00023680022191CFC318A62A0211648C90098
:10A5E0005A5084461A5005200138C046C046C0461D
:10A5F000C046C046C046C046C046C046C046C0462B
:10A60000C046F1D1012062462368985005225A5075
:10A6100001F02CFC039B201C0093291C3B1C321CCA
:10A6200005F0F6F8237D01332375CCE7034800E0FD
:10A63000207505B0F0BDC046FC0F00000EFCFFFF0A
:10A64000F0B51F1C85B00AAB1B78041C0393009364
:10A650003B1C0D1C161C05F0C3F8002832D0237DCE
:10A66000082B2DD823680022191CFC318A62A021F6
:10A670001648C9005A5084461A5005200138C04671
:10A68000C046C046C046C046C046C046C046C0469A
:10A69000C046C046C046F1D10120624623689850AA
:10A6A00005225A5001F0E2FB039B201C0093291C59
:10A6B0003B1C321C05F094F8237D01332375CCE755
:10A6C000034800E0207505B0F0BDC046FC0F000057
:10A6D0000EFCFFFF30B5041C87B0057B006C01F059
:10A6E000EFF8A02200210E4BAD00D2002851995066
:10A6F0000C4A14319950636C217B5B7C6846C91805
:10A7000049B204F0CEFD039B019A03211A60207B1D
:10A710000130C0B201F0A4FD217307B030BDC046C6
:10A72000007000400405000082B070B5041C0025D4
:10A7300088B00C920D93636C9A6895420ADA197C82
:10A7400002A8691849B204F0ACFD069B039A0135D2
:10A750001A60F0E75B7C257B02A8ED186DB2291C1E
:10A7600004F09FFD039A059B01921A6000211822B4
:10A7700002A805F0B5FB02A8291C002205F0BCF9CF
:10A78000206C002801D0FFF7E9F80820FFF7C4F893
:10A79000291C061C01F06CF8094B201CE362002305
:10A7A000FA212363074B2664A462E3631030090196
:10A7B00005F0E6F808B070BC08BC02B01847C04607
:10A7C000D5A601004FF20100F0B5041C0E1C151CAB
:10A7D00085B000930CAB1B881030019304F04EFA47
:10A7E000268065801820FFF797F8071C02AD2B1C08
:10A7F0003E1C0AAA03CA03C3009B002108C6301CE2
:10A80000102205F06DFB291C301C082205F04BFBC3
:10A81000064B02227B61201C00230199A7600A439A
:10A82000E360A2802362636205B0F0BD63F20100C1
:10A8300030B5134B91B01D68041C002D17D0114B7F
:10A840006A4604930023059304AB03CB03C2102391
:10A85000062102930222231C06A8FFF7B5FF2B68EE
:10A86000281C9B6806A9984706A804F0A9F9201C93
:10A87000054B10302361FFF7FBFC201C11B030BDED
:10A880008015002029A701001802020070B50029D8
:10A8900026D00D1C0026C468002C1ED00222A988D8
:10A8A000A3884B40134216D1114203D1AB889B07BA
:10A8B00007D510E0A068A96804F0CDFE002804D1F7
:10A8C000F4E7A368AA68934205D12B88002B09D02E
:10A8D00022889A4206D0646ADEE7201C002E0DDC36
:10A8E00007480BE06B88002B02D062889A42F2D1B5
:10A8F000A388044A01361343A380ECE770BDC04629
:10A9000017FCFFFF0080FFFFF0B585B0002952D093
:10A910000D1C061CC468002C19D0AA8800239207BD
:10A9200002D5A3889B07DB0F226829688A420CD1D5
:10A93000002B06D0A068A96804F08DFE00283CD149
:10A9400003E0A368AA68934237D0646AE3E7F0683B
:10A950002A88071C031E22D01988914205D2596A01
:10A960001F1C00290DD00B1CF6E7191C3B1C08E02E
:10A970000C88944207D14F886C88A74203D20B1CE5
:10A98000496A0029F4D183420BD119888A4205D340
:10A99000914206D158886988884202D96B62F56075
:10A9A00002E0596A69625D6268460949012304F060
:10A9B00070F9002009E0074807E0A3881AB2002ACE
:10A9C00002DA5B045B0CA380034805B0F0BDC0460F
:10A9D000FD03000017FCFFFF16FCFFFF064B10B540
:10A9E0001A1C041C08322C33026043600430FEF74A
:10A9F0001BFE201C10BDC0468001020008B4024BA3
:10AA00009C46043808BC6047DDA9010008B4024B2D
:10AA10009C46043808BC6047CFF201000C4A002372
:10AA2000111C2C32083110B5038183724260C3605F
:10AA30000361436143830160041C0430FEF7E6FDBB
:10AA4000044B1A68002A00D11C60201C10BDC046AF
:10AA50008001020080150020F7B50E1C0125C46896
:10AA60000192002C37D0238832889A4201D0002BE3
:10AA700026D1638872889A4201D0002B20D1FEF73C
:10AA800039FD0123002806D0A288BF331340C03B04
:10AA90005A425341DBB2019A934210D1A7883BB28C
:10AAA000002B0CDB201C311C1030102205F0FBF9B0
:10AAB0007B0607D4FEF71EFD002803D006E0002524
:10AAC000646ACEE7201C04F00BFCF9E7211C034864
:10AAD000FEF7C2FEF4E7281CFEBDC046E1F201000D
:10AAE00008B4024B9C46043808BC604765F401007A
:10AAF00070B5041C00250D4B0E1C08338580857134
:10AB00000360211C183004F0EAFC201C211C2030BA
:10AB100004F008FD064BA680A571E5712572E5607D
:10AB200025616561201C1C6070BDC046C00102002B
:10AB3000881500208379DB0702D5C160002000E082
:10AB40000048704716FCFFFF8379DB0701D5C0681A
:10AB500000E001487047C04616FCFFFF38B5456964
:10AB6000002D22D0037A032B21D8041CFFF7ECFF21
:10AB7000A8622C20FEF7D0FE2C220021051C05F037
:10AB8000AFF90023626953622369002B01D122616E
:10AB900005E0596A002901D00B1CFAE75A62237AB2
:10ABA000656101332372002002E0024800E00248A0
:10ABB00038BDC04617FCFFFF13FCFFFF154B70B5F7
:10ABC0005A68154D002A03D000225A600132AA604B
:10ABD0001B69114E002B1CD000210E4B0F4C19612C
:10ABE0008023DB00F358012B0ED1A923DB00F158A1
:10ABF00020684942FFF79EFF2068FFF7AFFF2368F8
:10AC00005A69074BF25002E02068FFF793FF0123D7
:10AC1000AB6070BDFC1000400010004088150020A3
:10AC200004050000031C0069002809D00221054A20
:10AC3000D167426A1A611A7A013A1A72024B196094
:10AC40007047C04604E100E000E100E0F0B5234BAE
:10AC500085B01B785B073FD5041C04F0F1FD00258F
:10AC6000236CC6B20227DF5FBD420EDA201C29B278
:10AC7000403003F0F6FFB04205D1012268462021A2
:10AC8000131C04F006F80135EEE7251C231C4E3595
:10AC900028884C331978013001F0D2FB231C503343
:10ACA0001B8889B28B4211D02B88A26CD654636C5E
:10ACB0002980002B10DB2A889A420DD10123022221
:10ACC0005B426364684620219B1803E068462021AC
:10ACD0000322012303F0DDFF05B0F0BDE4160020E0
:10ACE0000121024A13780B4313707047E4160020C9
:10ACF0000221024A13780B4313707047E4160020B8
:10AD00000121024A13788B4313707047E416002028
:10AD10000221024A13788B4313707047E416002017
:10AD200008B5002903DB024B196004F0F7FD08BDEC
:10AD30008C15002070B5041C1E1C04AB1D7800F09F
:10AD4000FBFC201C0E4B40302360FEF7F5FE231C5D
:10AD500001364C330135221C1E701D730023E12186
:10AD60004E32A3646365138053809381D381013B8A
:10AD7000201C63644902FFF7D3FF201C70BDC0464E
:10AD80001801020038B5012A13D0031C051C4E33EC
:10AD90001B88141CC8182B1C4C33197801F050FB6D
:10ADA00069640025022C05D1211C202003F083FEBC
:10ADB00000E0014D281C38BD17FCFFFF70B5051CD5
:10ADC000041C0A1C5035002907D1031C4E331B8874
:10ADD0002A889A4212D111481FE0012906D12A88F7
:10ADE000231C4E331B889A42FAD007E0022905D172
:10ADF000031C4E331B88298899420AD0A36C2888EB
:10AE00004C341E5C2178013001F01AFB301C298083
:10AE100003E00121FFF7B6FFF0E770BD0CFCFFFF78
:10AE2000F0B5061C071C5C365A3733883A8885B063
:10AE30009A421FD0104B1B781B071BD5041C33886C
:10AE4000426DD15C04F000FD231C30885833197822
:10AE5000013001F0F5FA3B888DB2AB4209D10749C8
:10AE600068460222012303F014FF201C012104F094
:10AE700099FB358005B0F0BDE4160020FF0300000B
:10AE800070B5114D041C2B781B0705D5012104F06A
:10AE900089FB606DFEF762FD08262B78B3432B70AB
:10AEA000231C58331878FEF737FD6065002809D059
:10AEB000231C00205A3318802B785C341E432080DA
:10AEC0002E7000E0014870BDE416002013FCFFFF67
:10AED000F7B50F1C08A9051C09780430002A01D118
:10AEE000DC070FD5002F0DD0182618244E43AE19BD
:10AEF00073614B1C5C43054B2C193261F7600122D6
:10AF0000A36000E0002200F005FFF7BD4FF501004F
:10AF1000F0B5041C002589B0039104920593049BAD
:10AF20009D420EDA261C231C5A363788583319786E
:10AF3000781C01F085FA231C5C331B8889B2994286
:10AF400007D1059B012B0BD002210B48FEF722FCF9
:10AF500006E0039B626D5B5D0135D3553180DEE712
:10AF60000123201C0093211C044A0023FFF7B0FF9B
:10AF7000281C09B0F0BDC046FF03000021AE01004F
:10AF8000F7B5134F051C3B780C1C161C9B071DD4F2
:10AF9000FFF7AEFE3B781B0712D5002301A90B80FB
:10AFA0000122331C281C0C70FFF7B2FF041C311C5B
:10AFB000281C04F0E7FA281CFFF7AAFE201C06E074
:10AFC000281CFFF75DFF0028E7D000E00148FEBD28
:10AFD000E41600200DFCFFFFF0B5164E85B0337867
:10AFE000051C5B0705D5002104F0DCFAA86CFEF710
:10AFF000B5FC04273378BB4333702B1C4C331878D3
:10B00000FEF78AFCA864002810D02B1C00244E33C5
:10B010001C805C803378281C3B433370291C0094CF
:10B02000054A231CFFF754FF201C00E0034805B02D
:10B03000F0BDC046E41600204DAC010013FCFFFF3C
:10B0400070B50E4E3378DB0716D40C1C051CFFF7C9
:10B0500047FE33785B0709D5211C281CFFF7AEFE9D
:10B06000041C281CFFF74CFE201C06E0281CFFF7E0
:10B07000B3FF0028F0D000E0014870BDE4160020C6
:10B080000DFCFFFFF7B580277F053D697C6908222D
:10B09000113C6C43061C211C684604F004FF104B55
:10B0A000009A9A4219D00093002301937969301CC9
:10B0B0001339694304F07CFA019A301C009904F0BA
:10B0C0008FFA301C211C04F073FA7969AB0813392C
:10B0D0006943301C221C04F075FA0198FEBDC0467D
:10B0E000FECA0000022802D10122014B1A707047EB
:10B0F000E516002038B5064C051C2378002B04D13A
:10B10000044800F063FA01232370281C38BDC046B0
:10B11000E6160020E5B0010038B50C1C03F060FC19
:10B12000002811D0154B00221D1C1A70A40A201CE7
:10B1300004F06CFA002803D00A2004F072FDF6E750
:10B140002B78002BFCD018E002210D4A0D4B9950B2
:10B15000111C8022D20098580028FAD0A120094D55
:10B16000C0002C5098580028FCD00020054A5050B0
:10B170008022D2009A58002AFAD038BDE516002065
:10B180000405000000E00140F8B50D1C161C1C1C55
:10B1900003F026FC002812D0184B00221F1C1A7046
:10B1A000281C311C221C04F02FFA002803D00A208E
:10B1B00004F037FDF4E73B78002BFCD01CE0104A8C
:10B1C000012194460F4B99508022D2009A58002AB0
:10B1D000FAD000228027FF00A24207DA91007058BF
:10B1E0006850D9590029FCD00132F3E700226146AA
:10B1F0005A50DA59002AFCD0F8BDC046E5160020A6
:10B200000405000000E00140F0B587B00C9CA405E7
:10B21000A40D5FD10F1C03928A05920D0092D218E3
:10B220008D0A029203993A1C061CAD0204F0F0F953
:10B2300000280AD1FF240322391C029BA4000433F6
:10B240009343214001930C9511E00C9B002B41D0BE
:10B25000191C8023301C5B002A1CFFF795FF291C5A
:10B26000301CFFF759FF8023211CDB0001930023D2
:10B270000593019B99422BDA184B0B4004D504220D
:10B28000013B524213430133009ADB00914206DB3B
:10B29000029A914203DA039A0098121A00E00C9A7B
:10B2A000525C03279A40131C059A4C1C13430593C8
:10B2B00027400BD1CB179B0F5918891089006918AB
:10B2C000301C05AA0123FFF75FFF0597211CD0E77B
:10B2D000002000E0024807B0F0BDC0460300008037
:10B2E00017FCFFFF002815D0006041608260C3603A
:10B2F000046145618661C761444604624C4644620C
:10B30000544684625C46C462644604636E46466387
:10B3100074468463002A06D0C46B043C043A256852
:10B320001560B442F9D18C6BA6464E6BB546002B26
:10B3300006D0CC6B043C043B1D682560B442F9D1B7
:10B340000C6BA446CC6AA3468C6AA2464C6AA14602
:10B350000C6AA046CF698E694D690C69CB688A6812
:10B36000086849687047006041608260C36004619A
:10B3700045618661C761444604624C464462544656
:10B3800084625C46C462644604636E4646637446E7
:10B390008463C46B043C043925680D60B442F9D160
:10B3A000C7698669456904697047006041608260C9
:10B3B000C360046145618661C761444604624C46CE
:10B3C0004462544684625C46C462644604636C46CC
:10B3D00044637446846304697047846BA646446B77
:10B3E000A546046BA446C46AA346846AA246446A7E
:10B3F000A146046AA046C769866945690469C368AD
:10B400008268006841687047014B03607047C0461E
:10B41000BC020200F0B5071C85B00D1C1E1C0029E3
:10B4200021DD002B1FD0046863880391994200DD61
:10B430000393A38802929A4200DD0293002306340C
:10B440000193019B029A93420BDA201C311C039A50
:10B4500004F029FD3B6876195B88E418019B0133F1
:10B46000EEE7002000E0014805B0F0BD17FCFFFF4B
:10B47000F8B5041C0E1C151C1F1C002901DB002A3A
:10B4800002DA0D4B236015E0101C48430630FEF72E
:10B4900043FA206003F04AFC2368201C5E809D80F4
:10B4A000002F05D0311C2A1C3B1CFFF7B3FF01E025
:10B4B00004F0EFF8F8BDC046BC020200F0B5041C71
:10B4C00087B004A8151C1E1C0F1CFEF711FA236878
:10B4D0005A88954208DA9B889E4205DA1F2F03D9C5
:10B4E000059B00939F4201DD18482DE005230021B4
:10B4F0007B430193049B0293019B029ACB18A03BD0
:10B50000D35C002203938B199C4653192768009340
:10B510007888834202DABB889C4507DB0132052A22
:10B52000F3D101310529E7D100200DE063465843EE
:10B53000009BFB18102717411818039B1F407B1E08
:10B540009F417F428771E9E707B0F0BD17FCFFFF1D
:10B55000F7B503689E1D5B885A1A019200291CDD0D
:10B560000C1C051C0027994202DB04F092F812E043
:10B570002B689B889F420EDA3119301C019A04F027
:10B5800092FC019B211CF01804F07DF82B68013718
:10B590005B88F618ECE7002000E00148FEBDC046DD
:10B5A00017FCFFFF10B50548054C206003F0C1FBF8
:10B5B000201C0449044A04F030FC10BDBC02020007
:10B5C0009015002079F6010000010020014B186061
:10B5D0007047C0469415002080B2002807D1BFF301
:10B5E0004F8F034A034BDA60BFF34F8FFEE770477C
:10B5F0000400FA0500ED00E00120054A08B51378C3
:10B600005840044B10701B68002B00D0984708BDB1
:10B61000E716002098150020F0B5264B85B01B7862
:10B62000002B45D0244B254E1D6834686A42554195
:10B6300062425441EDB2E4B20193002D36D103A829
:10B6400004F0CAF805280CD0002804D0291C2A1CB4
:10B65000FFF7C2FF06E0019B03981B680093984721
:10B6600000E00125002C1ED1154B03A91B880124E5
:10B670000B80144B1B68181C009304F0AFF8071ED6
:10B68000052F0BD0002805D000210A1CFFF7A4FFCE
:10B69000002403E00098336898473C1C002DCCD070
:10B6A000002CCAD004E0002D02D1C6E7002CDBD06C
:10B6B00005B0F0BDE8160020A0150020A41500205C
:10B6C000D81600209C15002008B5074B1B68002BDE
:10B6D00007D09847002806D000210A1CFFF77CFFFE
:10B6E00001E0FFF799FF08BDA815002070B5041C04
:10B6F0000E1C151C0021102204F0F2FB054B201C2F
:10B700002361311C2A1C00F08DF9034B201C1C60A6
:10B7100070BDC046A0860100AC15002038B5054DAF
:10B720002B68834204D0041C216900F035F92C6099
:10B7300038BDC046AC15002010B5041C00F01AF846
:10B74000014B201C236010BDE0010200074A136872
:10B750001818EFF30881884205D30C220120044B0E
:10B7600040421A6001E01060181C7047D0010020B0
:10B77000FC16002038B50C4B041C0360002343600A
:10B780008360C3600362436283639623051D9B014C
:10B79000C363281C00F020FA281C0449221C00F076
:10B7A000ADFA201C38BDC046F0010200EFF80100E0
:10B7B00010B5041C044B036004F0DAF8201C00F000
:10B7C0001BF8201C10BDC04600020200084B10B53B
:10B7D00008330360002343608360C360041C00F0EF
:10B7E00017F80449206104F0A8F9201C10BDC046D8
:10B7F0002802020037FA010010B5041C034B08337D
:10B80000036004F025F9201C10BDC0462802020088
:10B8100000487047D802020008B5024804F096F9C3
:10B8200008BDC046D80202000848026803210A4346
:10B8300002600749074A084B9B1A03DD043BC858BE
:10B84000D050FBDC054880470548004724050040F0
:10B8500050080200000100205C02002099C0010095
:10B8600021810100FEE7FEE7FEE7FEE7FEE7FEE7D7
:10B8700070B5104C051C0E1C081C211C00F0FCFBB4
:10B88000211C28600023CB565A1C05D0B34201D19D
:10B890008B6802E00C31F5E70023A0210120064A65
:10B8A000C9002B7150506A211B020B4303495350AE
:10B8B00070BDC046E00202000070004004050000B8
:10B8C0000C4B0D4A10B50D499C58214099500179F7
:10B8D0009C5809022143995001221A608022D2000B
:10B8E0009A58D207FAD4A123024ADB00D05880B27A
:10B8F00010BDC0460070004004050000FF00FFFFBF
:10B9000001704B1C0AD001238B404360044BC36081
:10B91000044B0361044B4361044B83607047C04692
:10B92000080500500C05005010050050140500508B
:10B93000084B0068C150084B021CFC32116A0029F8
:10B9400004D1013B002BF7D1012001E0002010625F
:10B950007047C0461C050000A186010010B50368B1
:10B96000002A03D0802202209200985001221A62FD
:10B97000084A1C1CFC34E068002804D1013A002A63
:10B98000F7D1012005E00020A322E060D2009B58FF
:10B990000B7010BDA186010010B50B4C02680B4B5B
:10B9A000A14204DC0A498160CC2149040AE0094C27
:10B9B000A14203DC08498160802102E007498160DF
:10B9C000CD21C904D15010BD8FD003002405000043
:10B9D000A08601007F1A060090D00300801A06009E
:10B9E00070B5041C101CA025C026C130FF30F60025
:10B9F000ED0580004651081CC130FF3080004651E3
:10BA0000A1252068ED004251054A8150191C201CD7
:10BA1000FFF7C2FFA02305212268DB00D15070BDD3
:10BA20000C050000F8B50E1C151C041C00F01EFAD5
:10BA30002648F2B20378011CDBB2012B06D147780D
:10BA4000974203D18778E8B2874211D02048EFB2FD
:10BA50000378012B05D14378934202D18078B84214
:10BA600011D00878002806D101230B704A708F701E
:10BA70006373184B15E0164B1978002907D1013173
:10BA800019705A709F7002236373134B09E01348B7
:10BA900004F017F80023FC2223606571267193627D
:10BAA000FFDE191C0022FC312360657126718A6259
:10BAB000A021C9005A500A49201C5A5001325A503C
:10BAC000311C2A1C074BFFF78BFFF8BDE91600203D
:10BAD000ED16002000300040004000409D070200AD
:10BAE000FC0F0000A0860100026808B5031C101CB2
:10BAF0000021FC308162A020C00011500648115086
:10BB0000013111500421052259569A56181C9B6880
:10BB1000FFF766FF08BDC046FC0F00000368002168
:10BB20001A1CFC3210B5916001315961074B9168C4
:10BB3000002904D1013B002BF9D1012004E00024AD
:10BB40000473FFF7D1FF201C10BDC046A186010081
:10BB5000036810B5191CFC318A6A0020012A08D13B
:10BB6000044C1C5988625A610238A40701D4012090
:10BB7000404210BDC40400000261064A08B542609C
:10BB8000054A01738260054A191C026004F0E7F857
:10BB900008BDC046040500501005005000070050C5
:10BBA000012310B50A4ADC00A458A14207DA013B80
:10BBB000DB00D3185A680168064BCA5007E001330E
:10BBC000112BEFD180210268024B4905D15010BDE5
:10BBD0003403020024050000F8B50F1C0121254B99
:10BBE000B9400360A023244CDB05161C1A59051C20
:10BBF0000A4380211A511A5909060A430121B1400A
:10BC00001A511A598A4396211A511A598901520018
:10BC100052081A51FFF7C4FF002204202B6817496D
:10BC20005A506C395850012199601960191CFC3127
:10BC3000CA6013495A506A6014391F325A50114968
:10BC40005F5009185A501E517B1C03D0381C032129
:10BC500004F075F8731C03D0301C032104F06FF856
:10BC60000122094B291C1A600848073204F01BF90D
:10BC7000F8BDC04600200040140500006C0500001F
:10BC80001C0500000C050000B8150020F41600206B
:10BC900008B59623DB00994202DDFFF781FF04E03F
:10BCA0009E210268014BC902D15008BD2405000045
:10BCB00008B5C1230D4A9B00D158090603D50C498C
:10BCC000096A002908D1D3585B070DD5084B00211C
:10BCD000DB68002B01D107E00121064B1868002822
:10BCE00002D0054B1B68984708BDC04600200040A5
:10BCF000FC200040BC150020C0150020034B19603B
:10BD0000436803499B005A507047C046C015002045
:10BD1000BC15002000681E4B70B5C3185C4263411F
:10BD20005B00002A1AD0002903D0012905D1802107
:10BD300000E00421C12292008150FF25C021C024CF
:10BD40005BB2DE00B540B1401248A4000259AA43DC
:10BD50000A43025101229A40026018E0002908D0EB
:10BD6000012914D1C2228024920084508258920862
:10BD700006E0C22204219200815082580339D20980
:10BD8000914304D001229A40131C034AD36770BD2B
:10BD900000E0FFBF00E100E004E100E003681A1CDE
:10BDA000FC32106A0128FAD100201062014AC9B29F
:10BDB000995070471C050000A023F0B5284FDB0008
:10BDC000FA5885B001920022A024FA50E023254AB7
:10BDD000E405DB00E658E2507833E1580125029192
:10BDE000E250A1238022DB00D205E2500420E5507E
:10BDF00003F0EEFFA222D200A35803979B0F2B4221
:10BE000005D0A35813242B4202D0012018E013249C
:10BE1000013C002C13D0A0250127134BED05EF505A
:10BE2000042003F0D5FFA123DB00EF50042003F032
:10BE3000CFFFA223DB00EB585B00E9D5E5E7201C30
:10BE4000A023E0220299DB05D2009E50783299505F
:10BE5000A023039A0199DB00D15005B0F0BDC04684
:10BE6000004000400D0600000C050000A023E0216A
:10BE7000134ADB05C90010B55A5078315A50114B9E
:10BE80000022191CFC31CA600A62A1211E20C900CF
:10BE90005A500D4A0D4C9850CC200D4A40049850F1
:10BEA000A2200C4AC00014500B4C0C481450012026
:10BEB0005050A0220521D2009950FFF77DFF10BD00
:10BEC0000C060000004000400C0500003841004016
:10BED0002405000000F001401C4000401405000053
:10BEE00001230E4A10B5936480230D499B00CB6754
:10BEF0000C49101C0C6D0C4A002C04D000240C655D
:10BF000011680131116009490B601368A922D20040
:10BF10008058190C80B21B04184310BD00900040DB
:10BF200004E100E0FC900040C815002000E100E0C2
:10BF3000F8B50F4C636C002B0FD000270D4E6764D3
:10BF40003378BB4209D00C4B1D68FFF7C9FF2D1A8F
:10BF5000BD4202DC3770FFF75FFC236D002B06D07B
:10BF6000064A1368013313600022014B1A65F8BDBD
:10BF7000FC900040F2160020C4150020C8150020D7
:10BF80001B4970B50C78002C30D10120194B1A4A8E
:10BF9000586054608024E405206050680028FCD07C
:10BFA00000220124042515481A500C30DC601D5075
:10BFB00008381A501248C2251A50C1228020920017
:10BFC000000398508020400298500E48AD0046591A
:10BFD0000D4A3240C0263602324342518022893D0A
:10BFE0009200FF3D425102601C600C7070BDC04663
:10BFF000F116002000900040FC0000400405000005
:10C000004C05000000E100E0FF00FFFF08B5044B15
:10C010001B78002B01D1FFF7B3FFFFF761FF08BDCD
:10C02000F1160020104B70B51B78041C002B01D1B9
:10C03000FFF7A6FF0D4D0E4E2B78002B02D0336874
:10C040009C4210D0FFF74CFF201A0A2803DCFFF7B0
:10C0500047FF0A30041C01232B70A823054A3460D3
:10C06000DB00A4B2D45070BDF1160020F2160020FF
:10C07000C41500200090004010B5041C431C07D0DC
:10C0800003F0BFFE041C431C02D1024803F019FD5B
:10C09000201C10BDD0070200234A10B51378111CD4
:10C0A000012B19D1214B1B681B0715D1204BE02414
:10C0B0001A68F023101C184022420BD11D4A126846
:10C0C0001A4209D11C4A1D4B1A6080221C4B1202D5
:10C0D0001A6001E03028F1D00B68DBB2012B0DD1E2
:10C0E000124A1268120709D1F021114A12680A4057
:10C0F000402A03D10F4A12680A420DD08022A3239E
:10C100000021D205DB00D1500E4B996001319160C6
:10C110009A68002AFCD005E0C1228021D200C9051E
:10C120008B50EBE710BDC046E00F00F0E40F00F0CD
:10C13000E80F00F0EC0F00F0DFFF07C0040500403F
:10C14000186C0040FC000040014B18687047C04666
:10C15000CC150020002243088B4274D303098B4284
:10C160005FD3030A8B4244D3030B8B4228D3030CC7
:10C170008B420DD3FF22090212BA030C8B4202D369
:10C180001212090265D0030B8B4219D300E0090A91
:10C19000C30B8B4201D3CB03C01A5241830B8B429A
:10C1A00001D38B03C01A5241430B8B4201D34B0383
:10C1B000C01A5241030B8B4201D30B03C01A5241E8
:10C1C000C30A8B4201D3CB02C01A5241830A8B426D
:10C1D00001D38B02C01A5241430A8B4201D34B0256
:10C1E000C01A5241030A8B4201D30B02C01A5241BA
:10C1F000CDD2C3098B4201D3CB01C01A524183096E
:10C200008B4201D38B01C01A524143098B4201D3A7
:10C210004B01C01A524103098B4201D30B01C01AD2
:10C220005241C3088B4201D3CB00C01A524183084C
:10C230008B4201D38B00C01A524143088B4201D379
:10C240004B00C01A5241411A00D2014652411046D9
:10C250007047FFE701B5002000F0FCF802BDC046C2
:10C260000029F7D003B5FFF775FF0EBC4243891ACA
:10C270001847C04603460B437FD4002243088B4235
:10C2800074D303098B425FD3030A8B4244D3030B5D
:10C290008B4228D3030C8B420DD3FF22090212BA22
:10C2A000030C8B4202D31212090265D0030B8B429E
:10C2B00019D300E0090AC30B8B4201D3CB03C01A88
:10C2C0005241830B8B4201D38B03C01A5241430B63
:10C2D0008B4201D34B03C01A5241030B8B4201D353
:10C2E0000B03C01A5241C30A8B4201D3CB02C01ABE
:10C2F0005241830A8B4201D38B02C01A5241430A36
:10C300008B4201D34B02C01A5241030A8B4201D324
:10C310000B02C01A5241CDD2C3098B4201D3CB01CB
:10C32000C01A524183098B4201D38B01C01A52417A
:10C3300043098B4201D34B01C01A524103098B427E
:10C3400001D30B01C01A5241C3088B4201D3CB0069
:10C35000C01A524183088B4201D38B00C01A52414C
:10C3600043088B4201D34B00C01A5241411A00D2FC
:10C3700001465241104670475DE0CA0F00D0494265
:10C38000031000D34042534000229C4603098B42D5
:10C390002DD3030A8B4212D3FC22890112BA030A5D
:10C3A0008B420CD3890192118B4208D389019211DF
:10C3B0008B4204D389013AD0921100E08909C30964
:10C3C0008B4201D3CB01C01A524183098B4201D366
:10C3D0008B01C01A524143098B4201D34B01C01A51
:10C3E000524103098B4201D30B01C01A5241C308C9
:10C3F0008B4201D3CB00C01A524183088B4201D338
:10C400008B00C01A5241D9D243088B4201D34B0052
:10C41000C01A5241411A00D20146634652415B1094
:10C42000104601D34042002B00D549427047634675
:10C430005B1000D3404201B5002000F00BF802BDB4
:10C440000029F8D003B5FFF715FF0EBC4243891A47
:10C450001847C0467047C0468446081C6146FFE73F
:10C460001FB500F035FA002801D40021C8421FBDD5
:10C4700010B500F0B9F94042013010BD10B500F020
:10C4800027FA002801DB002010BD012010BDC046A6
:10C4900010B500F01DFA002801DD002010BD0120BC
:10C4A00010BDC04610B500F0C9F9002801DC00201D
:10C4B00010BD012010BDC04610B500F0BFF9002826
:10C4C00001DA002010BD012010BDC046002B11D1A3
:10C4D000002A0FD1002900D1002802D00021C94331
:10C4E000081C07B4024802A14018029003BDC046D0
:10C4F00065FFFFFF03B4684601B5029800F022F81B
:10C50000019B9E4602B00CBC7047C046F0B583B09C
:10C51000161C1F1C0090019101F088F9041C0D1CD1
:10C52000221C2B1C301C391C01F056F9009A019B6F
:10C53000121A8B410899201C0A604B60291C03B019
:10C54000F0BDC046F0B5141C83B01D1C00900191D5
:10C5500001F064FA221C2B1C061C0F1C01F03CF994
:10C56000009A019B121A8B410899301C0A604B609B
:10C57000391C03B0F0BDC046F0B556464D465F4687
:10C580004446F0B443024500C70F83B08A465C0AB4
:10C590002E0EB94641D0FF2E26D080231B04234304
:10C5A000DC00002398469B467F3E53465B025D0AB3
:10C5B00053465A00DB0F120E9A4639D0FF2A33D069
:10C5C00080231B042B43DD0000237F3A5146B21A1F
:10C5D00046467940081C01921E430F2E00D976E092
:10C5E0007E4AB6009659B746002C30D108239846AB
:10C5F000063B9B46D9E780230021DB03FF245B0237
:10C60000E4055B0AC90723430B43181C03B03CBC79
:10C6100090469946A246AB46F0BD002C28D1042393
:10C620009846033B9B46C0E7002D1FD1022302E042
:10C63000002D11D10123B21A50464646784001928E
:10C640001E430F2E27D86649B60089598F460C2302
:10C650009846093B9B46A8E7281C01F09FF87622E4
:10C66000431F52429D40121A0023AFE70323ADE758
:10C67000201C01F093F8431F9C4076235B421E1A56
:10C68000002398469B4690E70025D1469B465B4693
:10C690004846022B6FD10121FF2401400023AEE761
:10C6A0007E23019A5B429B1A1B2B6DDD01214B46B9
:10C6B000194000240023A2E78023DB031C4249D158
:10C6C0008023DB0323435B025B0A391C96E763018B
:10C6D0006D01AB4237D389461A2001215B1B01242F
:10C6E0001E1C49005B00002E01DBAB4201D35B1B2B
:10C6F000214301380028F3D1581E83410B431D1CF0
:10C70000019C7F34002CCBDD6B0704D00F232B4022
:10C71000042B00D004352B0104D5019A314B803213
:10C72000141C1D40FE2C07DD4B460121FF2419403F
:10C73000002364E7251CAAE701214A46AB015B0AF6
:10C74000E4B211405BE7019A8946013A01921B204D
:10C750000021C4E71D4207D023435B025B0A391C5A
:10C760004CE700256302ABD58023DB032B435B0240
:10C770005B0A514642E7032B25D0012BC0D1012192
:10C780000024014000233AE7291CD9402B1C019AC0
:10C790009E3293405D1EAB410B435A0704D00F22DB
:10C7A0001A40042A00D004335A0105D54B46012112
:10C7B00001241940002322E701214A469B015B0A1C
:10C7C000114000241BE7802301214A46DB032B4351
:10C7D0005B020A405B0A111C10E7C046BC03020062
:10C7E000FC030200FFFFFFF7430270B542004C005C
:10C7F0005D0AC30F4802120E460A240EC90FFF2A13
:10C8000005D0FF2C08D00120A2420BD070BD012022
:10C81000002DFBD1FF2CF6D10120002EF6D10120F6
:10C82000A242F3D1B542F1D18B4205D0002AEDD11D
:10C83000281C431E9841E9E70020E7E7F0B54302D2
:10C840004D024A0044005E0A240EC30F6D0A120E08
:10C85000C90FFF2C0DD0FF2A31D0002C0DD177420B
:10C860007741002A23D1002D21D10020002F0BD1A8
:10C8700007E0002E28D1FF2A21D0002A05D08B42C4
:10C8800007D0584201231843F0BD002DF9D08B4248
:10C89000F7D19442F5DC04DBAE42F2D80020AE4280
:10C8A000F2D25842434101205B421843ECE7002F8B
:10C8B000E5D048424141012049420843E4E7002DC8
:10C8C00002D1002CCBD0DAE702204042DCE7C046A0
:10C8D0004302F0B542004C005E0AC30F4802120E3C
:10C8E000450A240EC90FFF2A0FD0FF2C1AD0002AA8
:10C8F00010D177427741002C29D0002F17D0484221
:10C9000041410120494208430BE00220002E08D19A
:10C91000FF2C07D0002C0AD1002D08D1584201234A
:10C920001843F0BD0220002DFBD1002AE1D08B423C
:10C93000F4D1A242F2DC04DBAE42EFD80020AE42DA
:10C94000EFD25842434101205B421843E9E7002DF2
:10C95000D3D10020002FE4D1E0E7C046F0B55F4618
:10C9600056464D464446F0B445024600C40F83B0D7
:10C970000F1C6D0A360EA34645D0FF2E25D080230E
:10C980001B041D4300239A46ED007F3E01937B026A
:10C990005B0A98467800FB0F000E994640D0FF28AE
:10C9A00038D0802342461B041343DB009846002303
:10C9B0007F384A46019F30186240411C1F430F2FA9
:10C9C00069D87D4EBF00F659B746002D45D10823E2
:10C9D0000193063B9A46DAE793465346022B2FD142
:10C9E0005B46012400251C40FF236D02DB056D0A18
:10C9F000E4071D432543281C03B03CBC90469946E0
:10CA0000A246AB46F0BD002D2CD104230193033B7D
:10CA10009A46BCE743465A4253410322D31AC8E719
:10CA200042460123002AC4D0404600F0B7FE4246E9
:10CA3000431F9A4076235B42181A90460023B8E7BA
:10CA4000032B00D1ADE0012B00D08CE05B465446B7
:10CA50001C40E4B200230025C7E70C230193093BE7
:10CA60009A4694E7281C00F099FE7626431F9D40C5
:10CA700000237642361A01939A4688E780250024DF
:10CA8000ED03FF23B1E74546CB469A46A5E7454669
:10CA900093469A46A1E743462C041B0C9C46230C64
:10CAA000444626041C1C360C2F0C7443351C664669
:10CAB0007D4373437743EB18260C9E19B54203D987
:10CAC00080235B029C46674424043304240C1B1916
:10CAD0009D016C1EA5419B0E360C2B43BD19AD016B
:10CAE0001D432B0104D5012368081D400543081C84
:10CAF000031C7F33002B2CDD690704D00F21294054
:10CB0000042900D00435290103D52C4B1D40031CFA
:10CB10008033FE2B17DD0124FF231440002564E73A
:10CB20008020C003054209D04346034206D1454652
:10CB300005436D026D0A4C46FF2356E705436D021F
:10CB40006D0AFF2351E70124AD016D0ADBB21440E9
:10CB50004BE77E235B421B1A1B2B07DD01240023BE
:10CB60001440002541E7081C5A46C1E79E30291CA5
:10CB70008540D940681E85410D436B0704D00F23C3
:10CB80002B40042B00D004356B0104D50124012374
:10CB90001440002529E70124AD016D0A144000234B
:10CBA00023E78023DB031D4301245B466D02234002
:10CBB0001C1C6D0AFF2318E73C040200FFFFFFF76F
:10CBC000F8B54A00430244004D02C00F240E061C73
:10CBD0009B09120EC90FAD09FF2A00D175E001278C
:10CBE0007940884250D0A01A002800DC8FE0002A4B
:10CBF0001ED1002D00D075E05A0704D00F221A4034
:10CC0000042A00D0043380220120D2041A4030408C
:10CC1000002A32D00134FF2C00D184E09B015B0A52
:10CC2000E4B25B02E4055B0A2343C0071843F8BD86
:10CC3000FF2CE1D08022D20415431B287ADD012588
:10CC40005B1B5A015DD59B019F09381C00F0A6FDB6
:10CC500005388740844269DC001B1F243A1C431CB2
:10CC6000201ADA408740131C7C1EA74100243B4356
:10CC7000C2E7131E45D100230020DB08FF2C28D07B
:10CC80005B025B0AE4B2CCE7A11A00295BDD002A53
:10CC90002ED0FF2CB0D08022D20415431B2974DC87
:10CCA0002F1C2022CF40511A8D40691E8D413D43DB
:10CCB0005B195A0125D50134FF2C74D001217E4A1D
:10CCC000194013405B080B4396E7002D00D088E71E
:10CCD00085E7002B27D08022D20313435B025B0A37
:10CCE000FF249EE701380028AAD0FF2CA5D183E7B6
:10CCF000002D00D180E701390029D9D0FF2CCDD1FA
:10CD00007AE75A0700D079E701203040B5E70028DC
:10CD100025D1621CD2B2012A55DD5F1B7A012DD5C7
:10CD2000EF1A0E1C91E7FF2400237AE7624B241AC6
:10CD30003B4061E7291C2022C140101A8540681E33
:10CD400085410D437CE7002946D1621CD1B20129FF
:10CD50002BDDFF2A26D0EB185B08141C4CE7002CB7
:10CD600015D0FF2A1AD08024E404404223431B2814
:10CD70004DDD0123EB1A141C0E1C62E7002F00D0BE
:10CD800063E700230020002477E7012590E7002BCC
:10CD900039D0C0430028EDD0FF2AE8D12B1CFF2456
:10CDA0000E1C29E7FF24002367E7002C5AD1002B33
:10CDB0007FD0002D00D11FE75B195A01A1D53E4A53
:10CDC0000134134018E7002C15D1002B2FD1002D72
:10CDD0005ED02B1C0E1C0FE7002C21D1002B54D051
:10CDE000C943002904D0FF2A4CD01B2958DD012358
:10CDF0005B19141C5DE7002B23D1002D4BD02B1C9D
:10CE00000E1CFF24F8E62B1C141C0E1CF4E61E1C42
:10CE10002024C640201A8340581E83413343A9E78B
:10CE2000FF2A2FD08024E40449422343DDE7002D6C
:10CE300000D1E1E65A1B500100D41AE7EB1A0E1C90
:10CE4000DAE6FF24002D00D1D6E68022DB08D203EB
:10CE5000134204D0ED08154201D12B1C0E1CDB003F
:10CE6000FF24C9E6002B0DD0FF24002D00D1C3E61E
:10CE70008022DB08D2031342F1D0ED081542EED137
:10CE80002B1CECE72B1CFF24B6E62B1C141CB3E672
:10CE9000231C0020F1E6802300209B04FF24ECE605
:10CEA0001F1C2024CF40611A8B40591E8B413B43ED
:10CEB0009EE72B1CA0E6C046FFFFFFFB4202510A83
:10CEC0004200C30F120E00207E2A0DDD9D2A0CDCCD
:10CED000802000040143952A0ADC9620821AD14062
:10CEE0000A1C58424240D0187047034A9818FBE782
:10CEF000963A91400A1CF4E7FFFFFF7F70B5041ECD
:10CF000039D0C50F00D04442201C00F047FC9E23BE
:10CF1000261C1B1A962B07DC082801DD08388440E4
:10CF20006402640AD8B21EE0992B0ADD0522211C96
:10CF3000121AD1400A1C011C1B318E40711E8E41F9
:10CF40001643052801DD421F96400F4C34407207FE
:10CF500004D00F221640042E00D0043462010ED4F7
:10CF6000A401640AD8B26402C005640AED07044350
:10CF70002C43201C70BD002500200024F3E7024B49
:10CF80001C409F231B1AEBE7FFFFFFFBF0B55F463A
:10CF900056464D464446F0B40F0387B098464D00C0
:10CFA0003B0BCC0F061C924681469B466D0D0194AF
:10CFB0006BD0664B9D4235D080275B467F031F4375
:10CFC000F3009946624BFF00400F9C460743002345
:10CFD000BB46002665440093424617035000D20F1B
:10CFE00053463F0B400D904600D172E0574A9042A5
:10CFF00067D080235B031F435346554A5B0FFF00F6
:10D000001F43944653460021DB0060444246624081
:10D0100092462D1A0E430F2E00D9A1E04D48B600BE
:10D02000805987465B461E4300D076E000239B462E
:10D030009946023308260093CEE799464346BB46FD
:10D0400001930091009B022B6BD1019B9A4600211A
:10D0500053460122002789461A403C4B00213F03DA
:10D060000C0D24053F0B27433B4C1B0527401F435A
:10D070007F00D2077F0817434846391C07B03CBCE5
:10D0800090469946A246AB46F0BD03433ED05B4670
:10D09000002B00D19CE1584600F080FB2823311C76
:10D0A0001B1A021C5F46D940083A97400B1C964059
:10D0B0003B439B46B1460023284D00262D1A009382
:10D0C0008AE7524603213A43A0D1002700230221D8
:10D0D0009CE752463A4315D0002F00D185E1381C19
:10D0E00000F05CFB021C28215046891A131CC84022
:10D0F0005146083B99409F400B1C074317480021AD
:10D10000801A83E70027002301217FE700239B4645
:10D1100099460133042600935EE703230C2600930F
:10D120005AE7032B00D13CE2012B00D0BFE11A1CCF
:10D13000019B1A4000210023002789468EE7002327
:10D140008027994600223F03004B87E7FF07000036
:10D1500001FCFFFF7C040200FFFF0F800DFCFFFFBE
:10D16000BB4500D951E100D14CE14A46039200226F
:10D170005C469046013D180E3F0238431B02019366
:10D18000030C994603041B0C4946061C201C1F1C5B
:10D190000093FEF7DFFF021C7A4302904946201CF1
:10D1A000171CFFF75DF8039B09041B0C19438F4202
:10D1B0000CD9029B8919013B8E4200D952E18F4262
:10D1C00000D84FE1029B8919023B0293CC1B201C23
:10D1D0004946FEF7BFFF009F834647434946201C50
:10D1E000FFF73EF8039A0B041404240C23439F42D8
:10D1F0000DD95A469B19013A9E4200D930E19F420F
:10D2000000D82DE10222524294469B19E344029A2F
:10D21000DB1B17045A463A439346019C170C220C19
:10D22000101C04925A4611042204120C141C090CFE
:10D230007C4305924A43414347436118100C091847
:10D240008C4203D980204002844667440C0C1204AF
:10D250000804120C3C198118A34200D2E5E000D169
:10D26000DFE01F1B43465C1AA04592415242BF1AA1
:10D27000B74200D10EE1381C4946FEF76BFF009B18
:10D28000029043434946381C9846FEF7E9FF230CB9
:10D290000F041F43B8450CD9029BBF19013BBE4286
:10D2A00000D9FBE0B84500D8F8E0029BBF19023B6B
:10D2B00002934346FF1A4946381CFEF74BFF009B7A
:10D2C000039043434946381C9846FEF7C9FF24049F
:10D2D0000904240C214388450CD9039B8919013B7F
:10D2E0008E4200D9DCE0884500D8D9E0039B89193B
:10D2F000023B03934346C91A029B039A1B04059CF5
:10D300001A43100C13049146221C049F1B0C5A4311
:10D3100044437B437843E318170CDB199C4203D941
:10D3200080246402A44660441C0C12041B04120CEA
:10D3300000199B18814200D296E000D1FCE04A46D9
:10D3400001231A4391469B4BEB18002B00DC99E01C
:10D350004A4652070AD00F2249460A40042A05D0FD
:10D360000431494592418946524293445A46D2017A
:10D3700006D55A46904B1A4080239346DB00EB18A3
:10D380008E4A934200DD62E64A465946D208490772
:10D3900011435A4689465702514601225B053F0B0D
:10D3A0005B0D0A405AE680205A460003024208D02C
:10D3B000074206D107433F0399463F0B4246804B45
:10D3C0004CE65F4607433F033F0B221C7C4B45E680
:10D3D00000F0E4F9031C2030272800DC5EE6083B5F
:10D3E0009E400023B346994665E6504600F0D6F9C4
:10D3F000021C2032272A00DC75E657460838874091
:10D4000000237BE6994500D2AFE65A4659465408B8
:10D410004A46C8075208024303924A46D20790463A
:10D42000A9E60027884500D31CE7019F5A46BC4661
:10D43000E044B845BF417F42BF19FF18013ABE42E0
:10D4400006D2BC425FD800D19FE03F1B934609E75C
:10D45000B742FAD1019B4345F3D9371B934601E705
:10D460009346D4E60293B1E64A468919013A8E42C0
:10D4700018D99146814200D061E7019A9A4200D0C2
:10D480005DE760E74F4F7F1B382F13DD01225346C6
:10D490001A404FE601235B42994654E7029308E79E
:10D4A000039327E788423CD874D0914647E7019B15
:10D4B0009A4648E71F2F44DC434B4A469C465B464E
:10D4C0006544FA40AB4013434A46AA40151C6A1E05
:10D4D00095415A46FA402B43171C5A0709D00F2290
:10D4E0001A40042A05D01A1D9A429B415B42FF183C
:10D4F000131C3A023ED55346012200211A40002750
:10D5000001238946AAE502235B429C46019AE34433
:10D510009446E04490459B415B429B19DF193F1BB9
:10D52000A0E6019F4A467C00BC42BF417F42BF1932
:10D53000023AC91901949CE7002B95D1002201926F
:10D540009BE75A46214B5B1BDA40202F27D0204B0C
:10D550009C465B466544AB4049460B43591E8B4194
:10D560001343072200271A4007D00F2200271A4032
:10D57000042AB8D17A077F023F0BDB081343994690
:10D58000012253461A40002368E54145BBD8934623
:10D59000002767E6019C9C42C3D391466DE70023B8
:10D5A000DAE780275B463F031F433F033F0B019AA7
:10D5B000034B53E5FF030000FFFFFFFEFE070000E3
:10D5C000FF07000002FCFFFF1E040000E2FBFFFF5C
:10D5D0003E0400004200120E511C38B5C9B243028D
:10D5E0005D0AC40F012915DDE02189008C466D0715
:10D5F0001B0B62440021281C0D0D2D052B431C4DD7
:10D6000052052B40520813435B00E4075B08234399
:10D61000191C38BD002A15D1002D1FD0281C00F080
:10D62000BDF80A281DDC0B232A1C1B1ADA40131C28
:10D63000021C153295400F4A1B03121A52051B0B90
:10D64000520DD7E7002D06D080221B0B1203134387
:10D650006D07094ACEE7084A0023CBE700220023E2
:10D66000C8E7031C0B3B9D402B1C0025E3E7C0468D
:10D67000FFFF0F8089030000FF07000070B50B0358
:10D680004D00440F6D0D5B0A23436C1C6405C90FEC
:10D69000C200640D012C2ADD3B4C2C19FE2C1ADC37
:10D6A000002C35DD8001451EA841DB000343520FED
:10D6B00013435A0704D00F221A40042A00D004331F
:10D6C0008022D2041A4027D00134FF2C03D09B01C2
:10D6D0005B0AE4B201E0FF2400235B02E4055B0A7D
:10D6E00023435B00C9075B080B43181C70BD002D6A
:10D6F00006D113430ED100245B025B0AE4B2ECE7CF
:10D700001A43E8D08020DB0080040343FF24D0E7E5
:10D7100017340CDA05230024DB08FF2CECD1002B96
:10D720002DD08022D20313435B025B0AD5E780240D
:10D73000164824042343401B1F280DDC144CA44628
:10D740006544AB401C1C131CAB405D1EAB41C2408A
:10D75000234313430024ACE71E1C0E4C641BE6401D
:10D76000341C20280DD00C4884466544AB401D1C59
:10D770002A43531E9A41131C2343002499E7002394
:10D78000ABE70025F4E7C04680FCFFFF9E030000E6
:10D7900082FCFFFF7E030000A2FCFFFF1C2101238F
:10D7A0001B04984201D3000C10391B0A984201D384
:10D7B000000A08391B09984201D30009043902A262
:10D7C000105C40187047C0460403020201010101C9
:10D7D0000000000000000000F0B54F46464605047A
:10D7E0002D0C2C1CC0B41704160C3F0C9946030CCE
:10D7F0007C4375435F4373437D19260CAD199C46EA
:10D80000AF4203D980235B029846C4444B46514340
:10D81000434324042E0C240C2D0466442C1959185F
:10D820008919201C0CBC90469946F0BDF0B54446C1
:10D830005F4656464D46F0B41C1C85B0002900DA00
:10D84000A9E00F1C0021061C8846101C191C002C86
:10D8500000DA97E0341C3D1C82468946B94273D8F1
:10D8600070D04946504600F085F98346391C301C7B
:10D8700000F080F95B46181A031C8346203B9C4647
:10D8800000D59CE00023002251460092019363469C
:10D890009940019151468140019B0091BB4200D9C2
:10D8A00083E000D17EE0009A019B341C3D1CA41A49
:10D8B0009D416346002B00DA9AE00026002702967D
:10D8C000039701369E400396012686400296002863
:10D8D00000D171E00099019AD30799464B464E0852
:10D8E0001E435708002301220CE0AF4201D1A6429B
:10D8F0000AD8A41BBD4124196D410138A4185D410B
:10D90000002806D0AF42F0D9013824196D41002813
:10D91000F8D12022029E039F5B46524236196F4186
:10D9200099185AD4281CC8402C1C5B46DC4000299E
:10D9300068DB041C8C40231C59468840021CB61A24
:10D940009F4103E0B0428CD90026002741464B1E80
:10D950009941002300910193009A019B00255442B4
:10D960009D41331C6340181C3B1C6B40191C009BE1
:10D97000019CC018614105B03CBC90469946A24646
:10D98000AB46F0BD4346DB430C1C9846131C0021FC
:10D990005842A1415EE7002746428F41012149429A
:10D9A000884652E7B14200D87DE70026002702965C
:10D9B0000397002800D08DE7029E039FC6E7202131
:10D9C0005346091ACB400022191C002300920193F0
:10D9D0004B4683400B4301935CE75A4620239B1A36
:10D9E0002A1C9A40201C131C5A46D04018439BE71F
:10D9F00020260027331A0026029603970127DF40CE
:10DA0000039761E75B4620215D46C91A031CAC40C1
:10DA1000CB40191C231C0B438EE7C046F0B545468E
:10DA20004E465746E0B4041C82B00D1C9146984601
:10DA30008B4262D85FD04146484600F09BF8291CD3
:10DA4000061C201C00F096F82023311A5B428A46FF
:10DA5000C81865D44B4683401F1C4B468B401E1C88
:10DA6000AF4258D855D0A41BBD41002800DA77E05A
:10DA7000002200230092019301328240019201238F
:10DA80008B40009300293CD0FB0798464046720823
:10DA90007B080243012600270CE0AB4201D1A242E1
:10DAA0000AD8A41A9D4124196D410139A4197D4158
:10DAB000002906D0AB42F0D9013924196D41002963
:10DAC000F8D1202200980199534652420019694129
:10DAD0009E183AD42F1CF7405346DD40002E29DB18
