:020000021000EC
:108000000040002035BF010071BF010073BF0100B7
:108010000000000000000000000000000000000060
:1080200000000000000000000000000075BF01001B
:10803000000000000000000077BF010079BF0100D0
:108040007BBF010065AB0100BDC301007BBF010028
:108050007BBF0100000000007BBF01007BBF01006F
:108060007BBF01003DC601007BBF01007BBF01005B
:108070007BBF01007BBF01007BBF01007BBF010014
:108080007BBF01007BBF01007BBF01007BBF010004
:108090007BBF0100D9BD0100B5BD01007BBF010060
:1080A0007BBF01007BBF010000000000000000005A
:1080B00000000000000000000000000000000000C0
:1080C00010B5064C2378002B07D1054B002B02D0AE
:1080D000044800E000BF0123237010BD9803002076
:1080E000000000003012020008B5084B002B03D03E
:1080F0000748084900E000BF07480368002B00D18B
:1081000008BD064B002BFBD09847F9E700000000A4
:10811000301202009C0300208C03002000000000AD
:10812000164B002B00D1144B9D46402292029A1A06
:10813000924600218B460F461348144A121A08F043
:1081400002FB0F4B002B00D098470E4B002B00D0AA
:1081500098470020002104000D000D48002802D09F
:108160000C4800E000BF06F09FF92000290007F04E
:10817000E3FF06F083F9C04600000800004000203D
:10818000000000000000000090030020C407002051
:108190000000000000000000014B18607047C0465E
:1081A000380500200022014B1A6070473805002076
:1081B000014B18687047C046F0050020014B186855
:1081C0007047C046240400200122024B5242186826
:1081D0001A6070470402002008B5011C014802F033
:1081E00097F908BD8404002008B5024807F054FA46
:1081F00008BDC046B403002008B5024807F04CFA99
:1082000008BDC046DC03002008B5021C0249034833
:1082100007F05EFF08BDC046FE0D020068050020A5
:1082200008B5021C0249034807F052FF08BDC046CA
:10823000020E02006805002008B5C2B202490348D8
:1082400007F046FF08BDC046080E02006805002082
:1082500008B582B20249034807F03AFF08BDC0469C
:108260000E0E02006805002008B5021C02490348F2
:1082700007F02EFF08BDC046140E0200680500205E
:1082800070B5041C0D1C2178002928D025291FD188
:108290006178661C642913D006D800291FD0622992
:1082A00011D10F480F4907E00D48682903D07729FD
:1082B00009D10D4900E00D492A1C07F009FF0CE027
:1082C00007480B49F8E70222054802F07BFF04E06B
:1082D0000348022202F076FF261C741CD3E770BD0F
:1082E00068050020180E0200220E02001D0E02007A
:1082F000270E0200F8B5071C081C052104F040FBFE
:10830000381CCCB2052104F03BFB0425C9B22C1B60
:108310006D1A0121A9400D1C044E2021335D00225D
:108320001D430348355502F09BF8F8BDA007002017
:1083300084040020F8B5071C081C052104F020FB6C
:10834000381CCCB2052104F01BFB04260122CBB261
:10835000F31A9A403F21131C054D341B4B40295DF5
:1083600000220B40034820212B5502F079F8F8BD7C
:10837000A007002084040020031C13B50C1C01A8D6
:10838000191C01F01BFB01A9221C034802F08AF80A
:1083900001A806F0FBFF13BD8404002008B5031CF0
:1083A0000A1C0248191C07F0ECFC08BDA5070020B8
:1083B00008B5011C014807F0CCFC08BDA50700204A
:1083C00008B501F0B7FA014B186008BD0804002099
:1083D00008B501F0AFFA024B1B68C01A08BDC046D1
:1083E0000804002007B56B46D91D08700248012219
:1083F000183002F031FD07BD0805002038B504AC87
:108400002578064C20706170A2702021002204485B
:108410002571E37002F024F838BDC046A0070020A3
:108420008404002038B50B4C051C206005206843EF
:10843000632D06D8C4239B02C01806F08CFD25606E
:1084400007E0054BF538FF38C01806F084FD00231F
:10845000236038BD300500203C0300200520C421E6
:108460000A4A08B5136889020133136043435B1855
:108470001B78FF2B01D10023136013685843C423DA
:108480009B02C01806F067FD08BDC04630050020FD
:1084900008B505235843034BA0381B68181806F08D
:1084A0005AFD08BD7C04002013B50024231C009451
:1084B000201C211C221CFFF7A1FF014B1C6013BDD7
:1084C0003005002010B5184802F094FB174C01212C
:1084D000201C07F05EFA201C642102F019F8144BEE
:1084E00003CB01F03BF96520FFF79CFF322006F03B
:1084F00014FD6620FFF796FF322006F00EFD672080
:10850000FFF790FF322006F008FD6620FFF78AFF94
:10851000322006F002FD6520FFF784FF322006F0CE
:10852000FCFCFFF7C1FF10BD0805002084040020FB
:10853000FC04002008B5024806F018FD08BDC0463E
:10854000DC06002008B5024806F010FD08BDC04654
:108550005C07002008B5024806F008FD08BDC046CB
:108560001C070020F8B5154E154F1F24301C0121A3
:108570003D6807F056F82540124B6D00E852012186
:10858000301C3D6807F060F825400F4B6D00E85245
:108590000121301C3D6807F06AF82C400B4B640049
:1085A000E05206F0F2FC0A4A13681060C31AD917A9
:1085B0005B184B4007490B60F8BDC04628040020FB
:1085C000F0050020DC0600205C0700201C070020CE
:1085D000340500202404002013B56B460748DC1D39
:1085E0001830211C012202F019FC054B984201D0E1
:1085F000207801E00120404216BDC0460805002059
:1086000017FCFFFF08B5194B1968002905D0184B56
:10861000186804F0B5F9002923D0164807F03CF893
:10862000154B1A6851424A41024202D00121134AB5
:1086300011601860124807F02FF8124B1A68514267
:108640004A41024202D001210F4A11601860FFF72F
:10865000C3FF431C09D001220C4B18600C4B1A605D
:1086600003E001220B4B1A60D7E708BD3805002054
:10867000F0050020B403002040050020480500203C
:10868000DC030020440500203C05002004020020FB
:108690000405002004040020F7B52B4D0621281CFA
:1086A0002A4A01F069FD2A4C281C221C294907F09E
:1086B000E7FF00250122284F131C0095381C1121CB
:1086C00001F07CFC254E221C311C381C07F0D8FF21
:1086D000234F01230095381C1A21022201F06EFC61
:1086E000381C311C221C07F0CBFF1E4E2A1C301CEC
:1086F0001E2107F06CF91C4D0423311C281C3A2262
:1087000001F04EFA221C1949281C07F0B9FF18483D
:1087100001F01CF817492222174806F092FD174D68
:10872000281C00F035FD221C281C154907F0A8FF65
:10873000144D1D21281C02F097F9281C1249221CF7
:1087400007F09EFFF7BDC04684040020DC0A02004B
:108750000001002031A10100B4030020A59F010009
:10876000DC0300200C04002028040020819A010072
:108770007C040020A0070020FC04002074040020DA
:10878000799101000805002019EF010010B5041CC3
:10879000054B03601C3006F0F9FD201C183006F074
:1087A000F5FD201C10BDC046680A020010B5041C6F
:1087B000034B0360403006F0E9FD201C10BDC046AD
:1087C0008809020008B50348012102F05BFDC0B230
:1087D00008BDC0466805002008B50248002102F027
:1087E00051FD08BD6805002008B5011C01220248A2
:1087F00002F0E8FC08BDC04668050020962108B5D7
:108800000348C90102F0AEFB024800F0B5FD08BD07
:10881000680500204C05002037B506F0F1FB041C6C
:1088200006F0EEFB051C06F0E2FB0022031C291CEF
:1088300000920448221C02F0DFFEBF20FFF7D4FFA5
:1088400037BDC046A507002008B506F0D9FB011CBE
:10885000034802F059FEAF20FFF7C6FF08BDC0462F
:10886000A507002008B5024807F043FA08BDC04636
:108870006805002038B5FFF7C1FFFFF723FE1D484C
:108880001D4907F025FC1D4C25682368AB4204D028
:10889000FFF7B8FEFFF766FE2568FFF79DFF184B50
:1088A000984202D0C0B206F0FCFB164B1A68002AB0
:1088B00003D00020186006F026FC134B1A68002A2B
:1088C00004D0002204201A6006F01DFC0F4B1A6829
:1088D000002A04D0002208201A6006F014FC0C4B79
:1088E0001A68002AD1D000220C201A6006F00BFC76
:1088F000CBE7C046680500202A0E0200F0050020E4
:108900000CFCFFFF04040020480500203C0500206B
:1089100004050020142373B5144D0093281CB433B0
:108920001821192202F028FB114C1249221C281C84
:1089300007F0A6FE104E301C07F054FA0F4802F064
:10894000D1FD0F4D281C02F025F8221C281C0D49D2
:1089500007F096FE0C4D311C281C02F045FF281C28
:108960000A49221C07F08CFE73BDC0466805002032
:1089700000010020AD870100A6070020A507002008
:108980004C05002055A90100C80500208D87010075
:10899000054A1368191D116004490A68501C0860D3
:1089A00012781A607047C046CC020020EC05002007
:1089B0000D4A30B51368591C1160991C1C78116060
:1089C00059780D02D91C1160997808042918181DCE
:1089D0001060DB7809191B06CB1804490A68101DC2
:1089E0000860136030BDC046EC050020CC020020BA
:1089F000074A30B51368074C591C11602068197874
:108A0000051D0233256003605B18136030BDC0464E
:108A1000EC050020CC020020134AF0B51168134E7B
:108A20004B1C13608C1C087814604B7837681B0251
:108A30001B180F4801680C60C024A4021D190C1CEF
:108A4000083404600B4C1C1914602C788F604C6047
:108A50000C1C09490C345B180460346013606B789B
:108A60009B00E3180360F0BDEC050020E805002042
:108A7000CC0200200100030002000300114A08B5E7
:108A80001368591C11601B780F49DA00DB005B5832
:108A900004325258012B0ED0002B0AD0022B10D1D9
:108AA0000A480368191F083B096803601868904763
:108AB00007E0904705E005490B68043B0B60186828
:108AC000904708BDEC05002004010020CC020020E6
:108AD000144A10B51368144C591C11601B781349C3
:108AE000DA00DB005B5804325258012B0DD0002B0A
:108AF00009D0022B0FD12368191F083B0968186899
:108B00002360904708E0904706E02368043B236019
:108B10001868904700E0002023681A1D2260186042
:108B200010BDC046EC050020CC020020040100204E
:108B3000094A1368002B0DD0191F096811601A1C0F
:108B4000083A12680C3B9200186804499B1A044AC0
:108B5000086013607047C046E8050020EC0500205F
:108B6000CC0200200B480C4A036830B5043B1C685B
:108B70001368191F096811601A1C0C3B083A116828
:108B80001A1C064B15681D608B00D31A1A1D026053
:108B90001C6030BDCC020020E8050020EC05002060
:108BA0001048114B0168F0B51D680C1F2268256044
:108BB000C024A40215190C1D04600C4C0C4E141991
:108BC0001C602C7837680C600C1C4F600949083415
:108BD0005218046034601A606B789B00E3180360DD
:108BE000F0BDC046CC020020EC05002001000300CF
:108BF000E8050020020003000649074A0B6830B56B
:108C00001568181F04680560181D086000211960A8
:108C1000146030BDCC020020EC05002070B50A4C79
:108C20000A4922680B68101F056803600848043B66
:108C300006681660161C08362660032454601B68FC
:108C400005600B6070BDC046CC020020E805002026
:108C5000EC050020054A1368191F086804490860DC
:108C6000191D116002221A607047C046CC02002014
:108C7000EC050020094B70B51A68111C083908680A
:108C8000141F25681960002806D0054806680E6084
:108C90001A6000232360056070BDC046CC0200202E
:108CA000EC0500200A4A70B513681C1C1D1F0C3B04
:108CB0001E68083C29682068002E00D1081C054960
:108CC0000E681E60002315602360086070BDC046FA
:108CD000CC020020EC050020054A1368191D116024
:108CE000044A043B116859601B6813607047C04612
:108CF000CC020020EC050020054A1368191F083B30
:108D0000096813601B68034A9B009B181960704731
:108D1000CC02002080100020044B05491A68043A58
:108D200013689B005B181B6813607047CC0200201F
:108D30008010002006490B681A1F083B12680B6060
:108D40001B6804499B005B1819688A181A607047F1
:108D5000CC02002080100020054910B50B68181FB8
:108D6000083B02681C680860A2181A6010BDC04663
:108D7000CC020020054910B50B68181F083B046899
:108D80001A680860121B1A6010BDC046CC02002091
:108D9000054910B50B68181F083B02681C6808607D
:108DA00062431A6010BDC046CC020020054B10B5CE
:108DB0001C68221F083C116820681A6003F0EAFD55
:108DC000206010BDCC020020F8B5074D2C68261F8E
:108DD0003768083C2068391C03F0C2FE002900DA1D
:108DE000C9192E602160F8BDCC020020034B1B681E
:108DF000043B00215A5E1A607047C046CC02002036
:108E00000022034B1B68043B9A561A607047C04609
:108E1000CC020020064910B50B68181F083B0468F7
:108E20001A680860121B51424A411A6010BDC046C0
:108E3000CC020020064910B50B68181F083B0468D7
:108E40001A680860121B511E8A411A6010BDC04684
:108E5000CC020020064A10B51368191F083B0868A9
:108E60001C6811600122844200DC00221A6010BDDF
:108E7000CC020020064A10B51368191F083B086889
:108E80001C6811600122844200DB00221A6010BDC0
:108E9000CC020020054910B50B68181F083B046878
:108EA0001A68086022401A6010BDC046CC0200203B
:108EB000054910B50B68181F083B02681C6808605C
:108EC00022431A6010BDC046CC020020054910B5EF
:108ED0000B68181F083B02681C68086062401A6033
:108EE00010BDC046CC020020054A11680B1F18684F
:108EF000136011600022002800D101221A6070471F
:108F0000CC020020084810B503681C1F2168083BEC
:108F100003601A680460002902DA49420A4100E04D
:108F20008A401A6010BDC046CC020020044A116875
:108F30000B1F186813600078116018607047C046F6
:108F4000CC020020044A1368191F083B096813600B
:108F50001B6819707047C046CC020020034B1B6889
:108F6000043B1A6812881A607047C046CC02002081
:108F7000044A1368191F083B096813601B681980AD
:108F80007047C046CC020020044A1368191F083BF2
:108F9000096813601B6819607047C046CC02002046
:108FA000024A1368191D11601B607047CC02002033
:108FB000002270B50E4D0F4C0F4B2E6820601A60CA
:108FC0002B68B34206D0FFF74DFC00280FD1FFF706
:108FD000C9FA2E6823685A1C22601B785A1ED2B226
:108FE000FD2A04D8054A9B009B589847E8E770BDC6
:108FF000F0050020EC050020E80500200802002014
:1090000008B50248FFF7D4FF08BDC0460010002095
:109010000020094A1368591C11601856074B002894
:1090200004DA01301B688000181A04E08000404216
:109030001B68103818187047EC050020E805002060
:10904000044B10B51C68221D1A60FFF7E1FF03688E
:10905000236010BDCC02002008B5FFF7D9FF034AFA
:109060001368043B13601B68036008BDCC0200203A
:10907000054A10B51368043B13601C68FFF7C8FF6E
:1090800003681C19046010BDCC020020054A136857
:10909000191F083B0868136003491A68034B0860EE
:1090A0001A607047CC020020EC050020E805002083
:1090B0000C4910B50B680C4C181C0C380268002ABF
:1090C00004D1043B1B680860236009E0013A026098
:1090D0001A1C083A126822601A1D0A6001221A60DE
:1090E00010BDC046CC020020EC0500200D4A08B59A
:1090F0001368191F08681160032811D803F0B0FB2A
:1091000002080B0E083B13601A68074B1A6007E051
:10911000FFF7CEFF04E0FFF79DFD01E0FFF7B6FF8C
:1091200008BDC046CC020020EC050020054A08B569
:109130001368191D1160044A12681A60FFF7B8FF1E
:1091400008BDC046CC020020EC050020084A10B53E
:1091500013680848191F0C6811600839002C02D1E7
:109160000B68036003E0083B1B681160036010BDDF
:10917000CC020020EC05002010B5041C034B083382
:10918000036000F00DFC201C10BDC04690090200D9
:10919000002310B5041C83808371034B08330360E4
:1091A00000F0E0FB201C10BD9009020008B5044847
:1091B00006F036FD034A13680133136008BDC0464C
:1091C00008050020F0050020F0B585B01F1C0AAB93
:1091D0001B88061C0D1C02920393002F1BD0282015
:1091E00000F0DCFA6B46041C1A89039BA9B20093B9
:1091F0003B1C06F06AF83368301C5B68211C9847FA
:1092000000280BD0002C08D0201C06F075F8201C7C
:1092100000F0E6FA01E0024800E0024805B0F0BDC7
:1092200017FCFFFF16FCFFFF38B50B4B1C68002C2A
:1092300010D0656D00F07EFBA36C002901D1834244
:1092400006D8201C05F094FF201C044905F07DFF82
:109250002C1CECE738BDC046180600202006002074
:10926000F0B5041C93B00793230C0293284B049091
:109270001C68284B05911E68069285B20027002EB7
:1092800043D0002C2DD0636D23490393A36C9AB275
:109290001B0C8D4211D121498A420ED1002B02D0E4
:1092A000029A93421BD1002F18D1201C05F060FFB9
:1092B000201C1B4905F049FF10E0002A01D0AA42FA
:1092C0000DD1002B02D0029A934208D1201C05F048
:1092D0004FFF201C124905F038FF00E00127039CD6
:1092E000CFE7104BEB18012B0FD91023291C00934B
:1092F000029A0D4B08A805F0E8FF3368301C9B6804
:1093000008A9984708A805F0F7FF13B0F0BDC046BC
:109310001406002024060020FE030000FF030000C6
:109320002006002002FCFFFF6192010010B572B61A
:109330000B4B1C68002C03D0201C05F019FF08E023
:1093400062B65C2000F02AFA00215C22041C07F0BF
:10935000FAF90023E364034B201CE36310BDC0460D
:10936000F405002000400020024B1878012318402B
:109370007047C046A7070020F7B5061CFFF7F4FFAB
:10938000041E33D11A4D2E60FFF7D0FF194B1A4936
:10939000186005F0DAFEFFF7C9FF184B1860184B8C
:1093A0004363184B8363286800280ED0C027164EED
:1093B0001649221C331C0097FFF706FF0097286808
:1093C0001349221C331CFFF7FFFE0C2000F0E6F9C6
:1093D0000023838083710F4B03600F4B836000F089
:1093E000C1FA01210D4A13780B431370F7BDC04633
:1093F00024060020F8050020200600202806002072
:10940000FC3F002037F2010061920100FF030000E1
:10941000FE030000B009020029920100A707002006
:10942000F7B5002801D1002019E00029FBD00193F5
:10943000171C0D1C061CFFF779FF041EF3D0084B08
:10944000019A4363066045608760064B002A00D09E
:10945000054B201CA363054905F077FE201CFEBDCB
:10946000FC3F002001F201001FF201002006002055
:10947000024B1868434258417047C04620060020FE
:10948000002310B504499C006258002A01D0013322
:10949000F8E76050101C10BDFC050020002310B53B
:1094A000044A99008C58844201D00133F8E7002027
:1094B000885010BDFC05002010B50024074BE05873
:1094C000002802D003685B6898470434182CF5D153
:1094D000034B1B68002B00D120BF10BDFC050020F2
:1094E00020060020F8B5FFF73FFF002855D02B4E8F
:1094F0003468351CE36CDA0718D502252B43E36486
:109500000423274F3868C26C1343C364636BC3637F
:1095100005F054FE3B68181C596C02F0C2F9306823
:10952000C36C2B4239D002F0F6F936E01D4F1E4EC7
:109530003A68002A01D1326806E0216DB94203D1B0
:10954000616D002900D00A1C2A602A6831688A42AD
:1095500008D11B0706D52C60FFF7AEFF3B68002B38
:10956000FAD02B602B68A34217D03268934204D103
:109570000E4A5A630E4A9A6305E0944203D10020D2
:10958000191C021C06E0201C05F018FE2B68201C8C
:10959000191C626C5B6C02F043F9F8BDF805002001
:1095A0001C0600202006002028060020FC3F00208A
:1095B00037F2010038B5114B051C1C68FFF7D4FECB
:1095C000002803D1281C06F05FFF16E0E36CDB07E0
:1095D00006D5FFF7ABFE0A4B1860002800D0041C2C
:1095E00000F0A8F92818A064201C05F0C1FD201C7B
:1095F000044905F0AAFDFFF775FF38BDF805002006
:109600001C06002018060020F0B51E4B85B01C6813
:109610001D4B1A680393002A05D00F1C051CFFF789
:10962000A3FE002801D119482AE0E36CDB070ED520
:10963000FFF77CFE164B061E186008D005F098FD5B
:10964000301C144905F081FD341CFFF74BFF3B042F
:109650002B43A364201C05F08BFD201C0E4905F054
:1096600074FD0E4B0020EB18012B09D9C023009389
:10967000039B291C18683A1C094BFFF7A5FD002025
:1096800005B0F0BDF80500202406002016FCFFFF01
:109690001C060020200600201406002002FCFFFF0C
:1096A0006192010010B5FFF75FFE002809D0054C5C
:1096B000206805F05DFD2068034905F046FDFFF7D1
:1096C00011FF10BDF8050020F4050020F7B50028B3
:1096D0002FD00C1C051CFFF747FE00282BD00726B7
:1096E000164F3868C36C1E4006D0281C211C144A33
:1096F00005F055FD00261FE002F0F5F802213A685A
:10970000D36C1940019103D003218B43D36413E040
:1097100001263343D364201CA8473A68D36C191C34
:10972000B143D164019E5B0706D5201C05F06FFD97
:1097300002E0044E00E0044E301CFEBDF80500209F
:109740000FF2010017FCFFFF16FCFFFF024B1B6826
:1097500003607E2343607047D002002082B06B46D6
:10976000034A0090019103CB03C202B07047C04688
:109770002C060020021C10B5014B12CB12C210BDEA
:109780002C060020034A044B12681A607E225A609D
:109790007047C046D00200202C06002038B5051CBA
:1097A00000240D4B1B789C4209DA0C49E300C918D0
:1097B000281C05F049FD00280AD10134F1E7281CD6
:1097C00004F098FE041E04D1142002F0C7F800E053
:1097D000041C201C38BDC046A80700203406002009
:1097E00038B5002818D00D4B1C780023A34211DA9D
:1097F0000B49DA005558A8420AD98A185268904293
:1098000006D28023043802681B061343036003E07A
:109810000133EBE704F078FE38BDC046A80700200E
:109820003406002070B5002816DD0C4B051C1A68A4
:109830001C1C0B4E002A02D0306806F0CCFCFA212A
:10984000256000243068074B89008361C462694346
:1098500006F0C9FC201C00E0034870BD740600201F
:10986000440600201199010017FCFFFFF8B5114FC5
:10987000061C3D68002D0AD13020FFF78FFF041C25
:1098800002F02AFB0C4BA5612360E5623C600B4DA6
:109890002B68002B09D11020FFF780FF041C06F075
:1098A000EFFC201C2C6006F0C5FC301CFFF7BAFF53
:1098B000F8BDC04644060020A00A02007006002041
:1098C000014B18687047C0467406002070B50D4CF7
:1098D0002368002B03D00C4B1B68002B02D1062001
:1098E000FFF7C4FF206806F0BCFC021C0749C31741
:1098F0000D684E685219734120680A604B6006F08B
:10990000B6FC70BD700600204406002090030020C5
:1099100010B5FFF7DBFF0024054BE058002802D00C
:1099200003681B6898470434282CF5D110BDC04645
:109930004806002008B5FFF7C9FFFA22034B920042
:1099400018685968002303F051F908BD90030020FE
:1099500008B5FFF7BBFF024B1868596808BDC04641
:10996000900300200B4B10B51B68041C002B03D088
:10997000094B1B68002B02D10620FFF777FF00235D
:10998000064A99008858002801D00133F8E78C5026
:1099900010BDC04670060020440600204806002086
:1099A000002310B5044A99008C58844201D0013339
:1099B000F8E70020885010BD4806002010B5041CB0
:1099C000002902D00B78002B02D1034B236001E069
:1099D00005F0E3FC201C10BDF40A0200014B0360FB
:1099E0007047C046F40A020010B50548054C2060D7
:1099F00005F067FD201C0449044A06F041FE10BD35
:109A0000F40A0200780600208DF301000001002016
:109A1000084B73B51D68002D0BD0011C041C2E686B
:109A200008310822684606F071FE0CCC3168281C0B
:109A3000884773BD7C06002010B5054C0121201C11
:109A400005F033FD201C0349034A06F019FE10BD42
:109A50008006002069F401000001002008B5074AD3
:109A600003880120934208D0834202D00020DB0704
:109A700003D41E2001F072FF002008BDFFFF00008C
:109A800010B5041C034B08330360FFF707FD201CCF
:109A900010BDC046C0090200FA2370B52A4A4189A8
:109AA0009B005943131C3833041C181C083A1D68CA
:109AB0001E1C8D420CD2061C244B227B1D1D082A25
:109AC0000BD8042A09D89D1C022A06D81D1C04E0C4
:109AD000083B301C9342EAD1EEE7FA213068890056
:109AE00002F0C8FE60812B78201C23732A210022FB
:109AF00005F00AFD002801D0154824E0201C2B2188
:109B0000102205F001FD0028F6D1201C2D21012294
:109B100005F0FAFC0028EFD1201C2E21012205F0CF
:109B2000F3FC0028E8D16A78201C0E2105F0ECFC3B
:109B30000028E1D101223379201C1A432A2105F0A3
:109B4000E3FC0028D8D170BDFC0A0200121002000C
:109B50000EFCFFFF7FB5161C0F226A44041C1D1C5F
:109B60001170002E15D0002B13DD01230189009305
:109B7000006B00F021FD002801D007480AE00090AA
:109B80002189206B321C2B1C00F0CCFC002801D05A
:109B9000F3E7024804B070BD0EFCFFFF17FCFFFFA7
:109BA000F7B5061C00250193214B14360833041C1D
:109BB000036085808571C581058245820F1C0092F6
:109BC000291C1822301C06F0BEFD301C1C2106F09A
:109BD000C1FB6B469B88211CA3806B461B8802221D
:109BE000238114236381231C3E313833A5712273F2
:109BF00027631D705D700B7865879343F1321340C6
:109C0000221CA5870B70231C483215705580013526
:109C1000221DD5870833A21DD587201CDD87FFF7BD
:109C20003BFF002802D1A3791D43A571201CFEBD76
:109C3000C009020030B50425837987B0041C2B428B
:109C400004D1FFF71DFCA3792B43A371A36AA2697A
:109C50001B6800251A422AD1201C01216A460623CE
:109C6000FFF778FF002801D0124D20E06B4602215B
:109C70006846595600781B79227B40B25BB251434B
:109C80005343424389B2D200E281CA0022820222B7
:109C90009BB2DB006382A379201C9343A37105F080
:109CA00041FC0122A18802A8131C05F0BAFB281C64
:109CB00007B030BD0EFCFFFFF8B5041CFFF7BAFF7C
:109CC0000E22A35E7C4F5B42BB4205DA231C3E336F
:109CD0001B789B0700D5C6E0201CFFF7ABFF0E22C8
:109CE000A35EC8225B4200255200934205DD231C7F
:109CF0003E331B789B0700D4B5E0201CFFF79AFF8A
:109D00001022A35E5B42BB4205DA231C3E331B7864
:109D10005B0700D5B5E0201CFFF78CFF1022A35E87
:109D2000C8225B425200934205DD231C3E331B7860
:109D30005B0700D4A5E0261C201CFFF77BFF122246
:109D4000A35E4836BB4205DA231C3E331B781B0753
:109D500000D5A3E0201CFFF76DFF1223E25EC823AD
:109D60005B009A4205DD231C3E331B781B0700D4A1
:109D700094E0002D19D03378032B16D80133DBB2D1
:109D80003370012B04D1231C00224A331A800CE0CB
:109D9000042B0AD1221C01213E3213784A340B4392
:109DA0001370002323800B3384E03278002A1AD00A
:109DB000211C271C01254A310B883E3701339BB2F9
:109DC0000B803878AC46054008D01D2B0BD9634674
:109DD0009843002338700B80337004E0092B02D9BC
:109DE000013A0D803270201C05F007FC334A07232E
:109DF00090425FDD201CFFF71DFF0E23E25E304E18
:109E000052420323B24255DBC825201CFFF712FF44
:109E10000E23E25EAD0052420423AA424ADC201C1B
:109E2000FFF708FF1023E25E02235242B24241DBF9
:109E3000201CFFF7FFFE1023E25E01235242AA42DC
:109E400038DC201CFFF7F6FE1223E25E0523B24247
:109E500030DB201CFFF7EEFE1223E25E0623AA424F
:109E600028DC002326E00125211C281C3E310B782C
:109E70005A089043021C0220AA40834313430B70EC
:109E80003BE70125211C281C3E310B789A089043A2
:109E900082000420834313430B704CE7211C0122F2
:109EA0003E310B78D80882430820D2008343134305
:109EB0000B7060E7181CF8BD70FEFFFFFF7002001A
:109EC000E0FCFFFF70B5C369C2681B688AB0041C60
:109ED000451D1A4250D0EB7F002B01D0013BEB77A0
:109EE000EB7F082B0DD90123A2791A4209D11A431D
:109EF000A271A1881A1C06A805F093FAFFF71AFDB3
:109F00002062EB7F012B26D80123A2791A4222D0AE
:109F10000025A188A57102A8022205F082FAA31DDE
:109F2000DE7F012E17D1FFF705FD2B1C226A801A58
:109F3000994100900191019BA18806A8AB4203D1F1
:109F4000164B009A9A4202D90422012301E003220F
:109F5000331C05F066FA0323A2791340012B1AD1B2
:109F6000FFF7E8FC0023226A801A9941994208D140
:109F70000B4B984205D80EE0EB7F0B2BB0D801338A
:109F8000ADE70222A379A1881343A37106A8033287
:109F9000012305F046FA0AB070BDC046E703000091
:109FA000DB05000010B5041C034B08330360FFF70A
:109FB000F7FC201C10BDC046D8090200F0B5071CF4
:109FC00000250E1C85B002930AAB1B78083703935B
:109FD000104B041C08330360019285808571291C95
:109FE000381C182206F0AFFB381C311C039A06F00F
:109FF000B6F96B466A469B88127AA380A31DE67168
:10A00000DA77631D2562201CDD77FFF7ABFC201C8F
:10A0100005B0F0BDD8090200F0B5041C85B0637A24
:10A020009C46002B03D1201C05F044FB69E0A37A79
:10A03000012101931023266F019AF3560025D318AE
:10A0400099400291291CF3680393039B9D4231DAE6
:10A05000B368019A6B439B1872695B00E77AD31867
:10A060001A785878E379012F04D15F1E3F1A101C2B
:10A070003A1C0EE0022F05D15F1EBA1A277A013F63
:10A08000381A06E0032F04D1277A013FBF1A021CB9
:10A09000381C5B004343606F8218D3189B7963457B
:10A0A00000DD6346627B1A4202D00123AB401943B4
:10A0B0000135CAE71123C943F356606C99402369FF
:10A0C0001940029B194306F0A1FAA37B072B18D86D
:10A0D000627B581C520062730B499A00A073022BDA
:10A0E00003D8885806F0C5F999E7084B201C23636C
:10A0F00000236363064B8958E4622364143006F03E
:10A1000072F805B0F0BDC0463C0B020019A001007A
:10A11000A1F6010010B5041C044B036006F05BF8C7
:10A12000201C01F0EFFE201C10BDC046A00A02005A
:10A1300010B5041C0E4B08330360FFF731FC201CE4
:10A14000743005F0CCFE201C603005F0C8FE201CE9
:10A15000583005F01BF9201C503005F017F9201C71
:10A16000044B14306361FFF7D5FF201C10BDC046BF
:10A17000F0090200B80A0200F8B50025041C314BB2
:10A1800085800833036085711430161C0F1C01F0A4
:10A19000A3FE201C2C4BE562636125645030FFF761
:10A1A0001DFC201C5830FFF719FC201C603001F00A
:10A1B000A1FC201C33682667590009B20423F25E13
:10A1C000743005F0A2FE3378226FE3717368A780C4
:10A1D00023721023E572A5722561D3569168591830
:10A1E0008B4204DA0120984001330543F8E711233C
:10A1F000D168D35659188B4206DA01229A40206959
:10A20000013302432261F6E71420FFF7C7FA2269FF
:10A2100000212A430123061C02F034F8FF22627257
:10A22000221C00230125483266646573A3732373DF
:10A23000201C1370A366FFF795FBA379201C2B430A
:10A24000A371F8BDF0090200B80A0200F7B5437A1D
:10A25000041C002B03D1201C05F02CFA64E0837A47
:10A2600001219C461023066F0025F3566344994054
:10A270000091291CF3680193019B9D422CDAB3687D
:10A2800072696B4363445B00E77AD3181A78587895
:10A29000E379012F04D15F1E3F1A101C3A1C0EE017
:10A2A000022F05D15F1EBA1A277A013F381A06E03D
:10A2B000032F04D1277A013FBF1A021C381C5B0010
:10A2C0004343606F8218D3189B79002B02D001237F
:10A2D000AB4019430135CFE71123C943F356606CF6
:10A2E000994023691940009B194306F08FF9667A5B
:10A2F000B31EDBB2FC2B14D8FFF7E2FA0B4B051CA4
:10A30000236300230A4863630A4BFF21E46223644A
:10A31000704302F03FFB011C201C6943143005F020
:10A3200062FF637A012B96D9F7BDC046B5F60100EE
:10A33000B6030000A1F601001FB501228188131C9D
:10A34000684605F06EF8012268460349131C05F0C3
:10A3500068F805B000BDC046FE03000008B54830EF
:10A360000378002B06D00378012B03D0024801218B
:10A3700004F03DFF08BDC046FF03000010B50121F9
:10A38000041C062004F033FF064B984209D1231C1D
:10A3900048331A78002A04D01B78012B01D020BF43
:10A3A000F5E710BD16FCFFFF70B5051C141E09DB98
:10A3B000061C48363378002B06D03378012B03D0A7
:10A3C0000B4813E00B4811E00022281C131C7430CA
:10A3D00001F0EAFB0020844207D02B1C4A331C808A
:10A3E00007234C352880337000E0201C70BDC04628
:10A3F00012FCFFFF17FCFFFFF8B50B68051C5B881C
:10A40000171C012B09D1081C002104F0F2FF0022C7
:10A41000011C281CFFF7C8FF1DE0002A09DD061CEF
:10A4200048363378002B06D03378012B03D00A4806
:10A4300011E00A480FE02B1C0024281C5C331C8010
:10A44000583004F0C7FF2B1C4A331F800323201C05
:10A450004C352C803370F8BD12FCFFFF17FCFFFF5A
:10A46000F8B5002A16DB041C151C0F1CFFF776FF3D
:10A47000231C48331E78F6B2002E0DD1201C391C47
:10A480002A1CFFF791FF281E07D0201CFFF776FF3C
:10A49000301C02E0014800E00148F8BD17FCFFFF56
:10A4A00011FCFFFFF7B5002A29DD051C171C0E1C47
:10A4B000FFF754FF2B1C48331C78E4B2002C20D14A
:10A4C00033685B88012B09D1211C301C04F091FFFB
:10A4D000221C011C281CFFF767FF13E0311C01A898
:10A4E00004F070FF01A93A1C281CFFF785FF01A8A2
:10A4F00004F04CFF281CFFF741FF201C02E002483B
:10A5000000E00248FEBDC04617FCFFFF11FCFFFF44
:10A51000FF2902D84172002000E001487047C04680
:10A5200017FCFFFFF0B51F1C85B00AAB1B78041C9D
:10A53000039300933B1C0D1C161C05F09CFD00288A
:10A5400032D0237D082B2DD823680022191CFC3122
:10A550008A62A0211648C9005A5084461A50052024
:10A560000138C046C046C046C046C046C046C04688
:10A57000C046C046C046C046C046F1D10120624632
:10A580002368985005225A5001F0F6FF039B201CC7
:10A590000093291C3B1C321C05F06DFD237D01330B
:10A5A0002375CCE7034800E0207505B0F0BDC04638
:10A5B000FC0F00000EFCFFFFF0B51F1C85B00AABBE
:10A5C0001B78041C039300933B1C0D1C161C05F008
:10A5D0003AFD002832D0237D082B2DD82368002295
:10A5E000191CFC318A62A0211648C9005A508446C1
:10A5F0001A5005200138C046C046C046C046C04675
:10A60000C046C046C046C046C046C046C046F1D15E
:10A61000012062462368985005225A5001F0ACFF91
:10A62000039B201C0093291C3B1C321C05F00BFDD6
:10A63000237D01332375CCE7034800E0207505B086
:10A64000F0BDC046FC0F00000EFCFFFF30B5041C3F
:10A6500087B0057B006C01F0B9FCA02200210E4BF5
:10A66000AD00D200285199500C4A14319950636CB6
:10A67000217B5B7C6846C91849B205F0DAF9039B77
:10A68000019A03211A60207B0130C0B202F078F9F0
:10A69000217307B030BDC0460070004004050000C3
:10A6A00082B070B5041C002588B00C920D93636CC9
:10A6B0009A6895420ADA197C02A8691849B205F02D
:10A6C000B8F9069B039A01351A60F0E75B7C257B9D
:10A6D00002A8ED186DB2291C05F0ABF9039A059B91
:10A6E00001921A600021182202A806F02CF802A894
:10A6F000291C002205F033FE206C002801D0FFF752
:10A700006FF80820FFF74AF8291C061C01F036FCF8
:10A71000094B201CE3620023FA212363074B2664C4
:10A72000A462E3631030090105F05DFD08B070BC60
:10A7300008BC02B01847C0464DA60100DFF9010071
:10A74000F0B5041C0E1C151C85B000930CAB1B88C7
:10A750001030019304F05AFE268065801820FFF720
:10A760001DF8071C02AD2B1C3E1C0AAA03CA03C31A
:10A77000009B002108C6301C102205F0E4FF291CB4
:10A78000301C082205F0C2FF064B02227B61201C10
:10A7900000230199A7600A43E360A28023626362F9
:10A7A00005B0F0BDF3F9010030B5134B91B01D6851
:10A7B000041C002D17D0114B6A4604930023059307
:10A7C00004AB03CB03C21023062102930222231CF5
:10A7D00006A8FFF7B5FF2B68281C9B6806A99847B9
:10A7E00006A804F089FD201C054B10302361FFF7FB
:10A7F00091FC201C11B030BD7C060020A1A60100F8
:10A80000B80A020070B5002926D00D1C0026C468C5
:10A81000002C1ED00222A988A3884B40134216D1D7
:10A82000114203D1AB889B0707D510E0A068A96847
:10A8300005F042FB002804D1F4E7A368AA6893421C
:10A8400005D12B88002B09D022889A4206D0646A51
:10A85000DEE7201C002E0DDC07480BE06B88002B88
:10A8600002D062889A42F2D1A388044A0136134387
:10A87000A380ECE770BDC04617FCFFFF0080FFFF20
:10A88000F0B585B0002952D00D1C061CC468002C00
:10A8900019D0AA880023920702D5A3889B07DB0F53
:10A8A000226829688A420CD1002B06D0A068A968CA
:10A8B00005F002FB00283CD103E0A368AA6893429C
:10A8C00037D0646AE3E7F0682A88071C031E22D0A9
:10A8D0001988914205D2596A1F1C00290DD00B1C02
:10A8E000F6E7191C3B1C08E00C88944207D14F88FE
:10A8F0006C88A74203D20B1C496A0029F4D1834219
:10A900000BD119888A4205D3914206D158886988AB
:10A91000884202D96B62F56002E0596A69625D6241
:10A9200068460949012304F07CFD002009E007483E
:10A9300007E0A3881AB2002A02DA5B045B0CA3804A
:10A94000034805B0F0BDC046FD03000017FCFFFF43
:10A9500016FCFFFF064B10B51A1C041C08322C33E2
:10A96000026043600430FEF799FD201C10BDC04614
:10A97000080A020008B4024B9C46043808BC604731
:10A9800055A9010008B4024B9C46043808BC604736
:10A990005FFA01000C4A0023111C2C32083110B55B
:10A9A000038183724260C36003614361438301603A
:10A9B000041C0430FEF764FD044B1A68002A00D121
:10A9C0001C60201C10BDC046080A02007C06002046
:10A9D000F7B50E1C0125C4680192002C37D02388DE
:10A9E00032889A4201D0002B26D1638872889A421D
:10A9F00001D0002B20D1FEF7B7FC0123002806D0A0
:10AA0000A288BF331340C03B5A425341DBB2019A84
:10AA1000934210D1A7883BB2002B0CDB201C311CC9
:10AA20001030102205F072FE7B0607D4FEF79CFC66
:10AA3000002803D006E00025646ACEE7201C05F05C
:10AA400017F8F9E7211C0348FEF740FEF4E7281C3D
:10AA5000FEBDC04671FA010008B4024B9C460438A2
:10AA600008BC6047F5FB010070B5041C00250D4BC8
:10AA70000E1C0833858085710360211C183005F099
:10AA8000F6F8201C211C203005F014F9064BA68096
:10AA9000A571E5712572E56025616561201C1C606A
:10AAA00070BDC046480A02008406002010B50C1C88
:10AAB00005F013FA002806D1642C06D8A123044A15
:10AAC000DB00D45002E0034800E0034810BDC0465C
:10AAD0000010004016FCFFFF17FCFFFF8379DB0727
:10AAE00002D5C160002000E00048704716FCFFFF5F
:10AAF0008379DB0701D5C06800E001487047C04694
:10AB000016FCFFFF38B54569002D22D0037A032BD0
:10AB100021D8041CFFF7ECFFA8622C20FEF73EFEB4
:10AB20002C220021051C05F00EFE002362695362F1
:10AB30002369002B01D1226105E0596A002901D067
:10AB40000B1CFAE75A62237A6561013323720020F5
:10AB500002E0024800E0024838BDC04617FCFFFF93
:10AB600013FCFFFF154B70B55A68154D002A03D032
:10AB700000225A600132AA601B69114E002B1CD0C2
:10AB800000210E4B0F4C19618023DB00F358012B81
:10AB90000ED1A923DB00F15820684942FFF79EFF40
:10ABA0002068FFF7AFFF23685A69074BF25002E0B5
:10ABB0002068FFF793FF0123AB6070BDFC100040DD
:10ABC00000100040840600200405000038B5051C74
:10ABD0000C1C05F082F9002804D1034B034AEC71E8
:10ABE000D45000E0024838BD2405000000100040A9
:10ABF00016FCFFFFF8B582790023D20772D4051C3A
:10AC000005F06BF900286AD16E69002E08D12C304E
:10AC1000FEF7C4FD041C311C2C2205F094FD6C6170
:10AC20006B69002B5DD000222F4B01215A608022DE
:10AC3000D20511605A68002AFCD006222B4B2C4CFE
:10AC40009A562C4B0721E250281CFFF72FFFA22316
:10AC50000026DB00E650284A284B281CE250E97900
:10AC6000FFF7B4FF01220821254B2648E6500433A4
:10AC7000E250254B254FE1500433E0500223244895
:10AC8000235024482750244F04382750182723489E
:10AC900027506F6922482750C12080002150214948
:10ACA0008538FF380B500B6080218900635871385C
:10ACB000FF38034363501C4B5E6062605A68002A91
:10ACC000FCD000240126184B281C1C61084B9E60F8
:10ACD000FEF7D6FBAB793343AB71231C02E0134B79
:10ACE00000E0134B181CF8BDFC00004023110200CB
:10ACF000001000400C050000746962751C0500001E
:10AD00002C0500002000040214050000FFFF0000D5
:10AD1000340500003C05000021100100540500002E
:10AD20000405000000E100E0FC10004016FCFFFFFD
:10AD300013FCFFFF031C0069002809D00221054A0B
:10AD4000D167426A1A611A7A013A1A72024B196083
:10AD50007047C04604E100E000E100E038B5041CA3
:10AD60000D1C05F0BAF8002845D1002D45D02B78F0
:10AD7000232B42D802220121214BDA67214B224AA0
:10AD8000586111615A692049002AFBD01F4A1D48A9
:10AD90008D500025456001200860111C5A68002A6A
:10ADA000FCD00120184A90600020164A10611869F2
:10ADB000154A0028FBD060695050002011494861B5
:10ADC000012111615A69002AFCD000210D4A51600D
:10ADD0000D4A013151605A68002AFCD0002001223E
:10ADE000C021084B49001861074B9A60084B921824
:10ADF0005A501A6002E0074800E0074838BDC046D4
:10AE000004E100E0FC1000400010004004050000D8
:10AE100000E100E016FCFFFF17FCFFFF38B500293A
:10AE200014D04568002D11D0002A0FDB6B6A4360F7
:10AE30002C78033C944200DD141C081C221C291DA4
:10AE400005F064FC281CFEF7CBFC00E0014C201C44
:10AE500038BDC04617FCFFFF30B58DB0002912D0B9
:10AE6000232A10D801ACD31C051C00202370012319
:10AE7000A07002A86370E37005F048FC2868211CEC
:10AE8000FFF76CFF00E001480DB030BD17FCFFFF7D
:10AE9000F0B5234B85B01B785B073FD5041C05F04C
:10AEA00002F90025236CC6B20227DF5FBD420EDA2D
:10AEB000201C29B2403004F09CFAB04205D1012296
:10AEC00068462021131C04F0ACFA0135EEE7251C7E
:10AED000231C4E3528884C331978013001F040FE90
:10AEE000231C50331B8889B28B4211D02B88A26C53
:10AEF000D654636C2980002B10DB2A889A420DD12E
:10AF0000012302225B426364684620219B1803E010
:10AF1000684620210322012304F083FA05B0F0BD26
:10AF2000A90700200121024A13780B4313707047D0
:10AF3000A90700200221024A13780B4313707047BF
:10AF4000A90700200121024A13788B431370704730
:10AF5000A90700200221024A13788B43137070471F
:10AF6000A907002008B5002903DB024B196005F092
:10AF700008F908BD8806002070B5041C1E1C04AB2F
:10AF80001D7800F05FFF201C0E4B40302360FEF761
:10AF900025FD231C01364C330135221C1E701D7308
:10AFA0000023E1214E32A3646365138053809381B3
:10AFB000D381013B201C63644902FFF7D3FF201CAF
:10AFC00070BDC0468809020038B5012A13D0031CA1
:10AFD000051C4E331B88141CC8182B1C4C331978C5
:10AFE00001F0BEFD69640025022C05D1211C202042
:10AFF00004F0FDF800E0014D281C38BD17FCFFFFF0
:10B0000070B5051C041C0A1C5035002907D1031C0F
:10B010004E331B882A889A4212D111481FE0012919
:10B0200006D12A88231C4E331B889A42FAD007E0A7
:10B03000022905D1031C4E331B88298899420AD066
:10B04000A36C28884C341E5C2178013001F088FD07
:10B05000301C298003E00121FFF7B6FFF0E770BD47
:10B060000CFCFFFFF0B5061C071C5C365A37338812
:10B070003A8885B09A421FD0104B1B781B071BD50E
:10B08000041C3388426DD15C05F011F8231C308814
:10B0900058331978013001F063FD3B888DB2AB4223
:10B0A00009D1074968460222012304F0BAF9201C9D
:10B0B000012104F048FE358005B0F0BDA90700204D
:10B0C000FF03000070B5114D041C2B781B0705D53C
:10B0D000012104F038FE606DFEF782FB08262B7814
:10B0E000B3432B70231C58331878FEF757FB606569
:10B0F000002809D0231C00205A3318802B785C3498
:10B100001E4320802E7000E0014870BDA90700207A
:10B1100013FCFFFFF7B50F1C08A9051C09780430C4
:10B12000002A01D1DC070FD5002F0DD018261824D6
:10B130004E43AE1973614B1C5C43054B2C193261B5
:10B14000F7600122A36000E0002201F069F9F7BD79
:10B15000DFFC0100F0B5041C002589B003910492C6
:10B160000593049B9D420EDA261C231C5A36378811
:10B1700058331978781C01F0F3FC231C5C331B88CE
:10B1800089B2994207D1059B012B0BD002210B48B4
:10B19000FEF73AFA06E0039B626D5B5D0135D3551D
:10B1A0003180DEE70123201C0093211C044A002388
:10B1B000FFF7B0FF281C09B0F0BDC046FF03000038
:10B1C00065B00100F7B5134F051C3B780C1C161C2D
:10B1D0009B071DD4FFF7AEFE3B781B0712D500235B
:10B1E00001A90B800122331C281C0C70FFF7B2FF51
:10B1F000041C311C281C04F096FD281CFFF7AAFE35
:10B20000201C06E0281CFFF75DFF0028E7D000E0C7
:10B210000148FEBDA90700200DFCFFFFF0B5164E4A
:10B2200085B03378051C5B0705D5002104F08BFD44
:10B23000A86CFEF7D5FA04273378BB4333702B1C78
:10B240004C331878FEF7AAFAA864002810D02B1CFB
:10B2500000244E331C805C803378281C3B433370C1
:10B26000291C0094054A231CFFF754FF201C00E012
:10B27000034805B0F0BDC046A907002091AE01000B
:10B2800013FCFFFF70B50E4E3378DB0716D40C1C91
:10B29000051CFFF747FE33785B0709D5211C281CE6
:10B2A000FFF7AEFE041C281CFFF74CFE201C06E036
:10B2B000281CFFF7B3FF0028F0D000E0014870BD64
:10B2C000A90700200DFCFFFFF7B580277F053D692A
:10B2D0007C690822113C6C43061C211C684605F061
:10B2E00015FA104B009A9A4219D00093002301934B
:10B2F0007969301C1339694304F02BFD019A301C25
:10B30000009904F047FD301C211C04F022FD7969EE
:10B31000AB0813396943301C221C04F024FD01984A
:10B32000FEBDC046FECA0000F0B50D1CABB00D92CC
:10B3300000213022061C12A80B9305F004FA281CE9
:10B3400005F041FA431C0C93102B00DDB6E00B9B7B
:10B35000202B00D9B2E0301C291C04F049FD071E47
:10B3600029D1291C0C9A12A805F0D0F90D990B9A35
:10B3700016A805F0CBF980235B051F695A69301CBC
:10B38000113A7A435D690D92FFF79EFF0D9B0021F4
:10B3900008333022041C1EA80F9305F0D4F9291C91
:10B3A00013397943301C04F0D4FC0F9B0B9300231A
:10B3B0000C930E9335E010300D990B9A05F097F928
:10B3C000041C381CFEF70CFA002C7AD0C9E70B9944
:10B3D0001EA8302205F09AF91EA812A905F0E9F975
:10B3E000002822D13849301C221C1091119404F0FD
:10B3F000D1FC6A460B9B099315AB23CB23C223CB0D
:10B4000023C223CB23C2301C149B1299139A04F03D
:10B41000CFFC01230E930B9B30330B930C9B01331A
:10B420000C930C9BA342D2DB10E06A460B9B099362
:10B4300021AB23CB23C223CB23C223CB23C2301C7B
:10B440001E991F9A209B04F0B3FCE4E7E5433021EA
:10B45000ED1725404D430F9B5D190E9B002B1BD113
:10B46000B81E01F007FA84422AD017490134301C73
:10B47000221C1091119404F08DFC6A46099515ABBD
:10B4800023CB23C223CB23C223CB23C2301C12994C
:10B49000139A149B04F08CFC301C0D9904F059FC99
:10B4A00080235B0559690C236343133979430233C5
:10B4B000301C0D9A04F057FC002402E0034C00E01D
:10B4C000034C201C2BB0F0BDFECA000017FCFFFF90
:10B4D00013FCFFFF022802D10122014B1A707047B2
:10B4E000AA07002038B5064C051C2378002B04D190
:10B4F000044800F0F1FB01232370281C38BDC0462E
:10B50000AB070020D5B4010038B50C1C04F0E5FCF5
:10B51000002811D0154B00221D1C1A70A40A201CF3
:10B5200004F0A3FC002803D00A2004F0ADFFF6E7E6
:10B530002B78002BFCD018E002210D4A0D4B9950BE
:10B54000111C8022D20098580028FAD0A120094D61
:10B55000C0002C5098580028FCD00020054A5050BC
:10B560008022D2009A58002AFAD038BDAA070020BB
:10B570000405000000E00140F8B50D1C161C1C1C61
:10B5800004F0ABFC002812D0184B00221F1C1A70CC
:10B59000281C311C221C04F066FC002803D00A2061
:10B5A00004F072FFF4E73B78002BFCD01CE0104A5B
:10B5B000012194460F4B99508022D2009A58002ABC
:10B5C000FAD000228027FF00A24207DA91007058CB
:10B5D0006850D9590029FCD00132F3E700226146B6
:10B5E0005A50DA59002AFCD0F8BDC046AA070020FC
:10B5F0000405000000E00140F0B587B00C9CA405F4
:10B60000A40D5FD10F1C03928A05920D0092D218EF
:10B610008D0A029203993A1C061CAD0204F027FC25
:10B6200000280AD1FF240322391C029BA400043302
:10B630009343214001930C9511E00C9B002B41D0CA
:10B64000191C8023301C5B002A1CFFF795FF291C66
:10B65000301CFFF759FF8023211CDB0001930023DE
:10B660000593019B99422BDA184B0B4004D5042219
:10B67000013B524213430133009ADB00914206DB47
:10B68000029A914203DA039A0098121A00E00C9A87
:10B69000525C03279A40131C059A4C1C13430593D4
:10B6A00027400BD1CB179B0F5918891089006918B7
:10B6B000301C05AA0123FFF75FFF0597211CD0E787
:10B6C000002000E0024807B0F0BDC0460300008043
:10B6D00017FCFFFFF0B5837991B0041C5B071BD505
:10B6E000FEF728F900232269801A9941994203D173
:10B6F000F423FF3398420FD9A068002808D0364BB6
:10B700001D8800F0D9FA0368291C1B6A1522984786
:10B710000422A3799343A371A3799B0759D52E4B98
:10B720002E4D1F882B68DB68002B4ED02C4B1A78CF
:10B730000193032A49D82B4904A8FEF73FF92B6847
:10B7400004A9DE6808A803F03DFE08A9301C04F037
:10B750007EFB061C08A803F019FE02AB9A1D082305
:10B76000381C138006A9073B04F08FFB002E08D07D
:10B77000311C08A81031202204F0C8FF301CFEF74D
:10B780002FF8019B06A91E7808ABF6009E1902ABA4
:10B79000DA88301C04F0ABFF002813D0082206A979
:10B7A000301C04F0B3FF2B6804A9DD6805A803F082
:10B7B00009FE281C05A908AA202304F04EFB05A8B1
:10B7C00003F0E4FD04A803F0E1FD0222A379934312
:10B7D000A37111B0F0BDC0469C0700208C0600206C
:10B7E000690300201810020038B50025041C0A4B1C
:10B7F0008580083385710360C1601830FEF7EEF86C
:10B80000201C1C30FEF7EAF8044BA5601C600123E5
:10B810006561201CA37138BD600A02008C060020FF
:10B82000002815D0006041608260C36004614561FA
:10B830008661C761444604624C4644625446846251
:10B840005C46C462644604636E4646637446846321
:10B85000002A06D0C46B043C043A25681560B44243
:10B86000F9D18C6BA6464E6BB546002B06D0CC6B3F
:10B87000043C043B1D682560B442F9D10C6BA4461E
:10B88000CC6AA3468C6AA2464C6AA1460C6AA046C2
:10B89000CF698E694D690C69CB688A680868496808
:10B8A0007047006041608260C360046145618661E9
:10B8B000C761444604624C464462544684625C4616
:10B8C000C462644604636E46466374468463C46B14
:10B8D000043C043925680D60B442F9D1C769866912
:10B8E000456904697047006041608260C36004611B
:10B8F00045618661C761444604624C4644625446D1
:10B9000084625C46C462644604636C464463744665
:10B91000846304697047846BA646446BA546046B38
:10B92000A446C46AA346846AA246446AA146046A3D
:10B93000A046C769866945690469C368826800686A
:10B9400041687047BFF34F8F024A034BDA60BFF381
:10B950004F8FFEE70400FA0500ED00E0F0B597B068
:10B9600018220021061C10A804F0EDFE10A81321D7
:10B9700004F0F0FC10A8032104F08DFD0122554BCA
:10B9800001921B68002B01D0DBB2019300240BA8AD
:10B990000021514A012300F075FC221C4F4BB34299
:10B9A000624153421E4072B64D4B1022211C07A823
:10B9B0001F6804F0C8FE4B4B6421301C079300F055
:10B9C000E9FF0A2101F0CCF80525694350317918C7
:10B9D0000891301C0A2100F0DDFF0A2101F0C0F8B7
:10B9E0006943503179180991301C0A2101F0B8F8E7
:10B9F0004D4350357F190A978027BF01019B002BCB
:10BA00004BD00026384B751E1D4004D50423013D44
:10BA10005B421D430135B300049300230293032CC2
:10BA200002D180270024BF01049A07ABD3582F4AC4
:10BA30009C4663000133D3180022039261461878B4
:10BA4000095C581E059101781020084105990842AB
:10BA500004D0012090400399014303910132063341
:10BA6000092AEBD1039B07AAD943214B09011940AD
:10BA7000AB009B589C4505D1029B312B02DC0BA8E7
:10BA8000002101E039430BA804F0C0FDFA23159A08
:10BA90001199DB001068014201D1FFF753FF013B10
:10BAA000002BF7D1029B013401330293FA23029A4F
:10BAB0007F00E4B25B009A42B1D10136042EA1D1DD
:10BAC000044B1B68002B99D0019B013BDBB2019317
:10BAD00094E7C04690060020F0FF0000E703000056
:10BAE000D002002061110200030000802B1102002F
:10BAF000F01F0000014B03607047C0465C0B020062
:10BB0000F0B5071C85B00D1C1E1C002921DD002B83
:10BB10001FD0046863880391994200DD0393A388D2
:10BB200002929A4200DD0293002306340193019BA6
:10BB3000029A93420BDA201C311C039A04F0E6FDB2
:10BB40003B6876195B88E418019B0133EEE700201F
:10BB500000E0014805B0F0BD17FCFFFFF8B5041C7C
:10BB60000E1C151C1F1C002901DB002A02DA0D4BDC
:10BB7000236015E0101C48430630FDF70FFE2060DF
:10BB800003F09CFC2368201C5E809D80002F05D064
:10BB9000311C2A1C3B1CFFF7B3FF01E004F0ACF999
:10BBA000F8BDC0465C0B0200F0B5041C87B004A8C9
:10BBB000151C1E1C0F1CFDF7DDFD23685A889542DD
:10BBC00008DA9B889E4205DA1F2F03D9059B009354
:10BBD0009F4201DD18482DE0052300217B4301939E
:10BBE000049B0293019B029ACB18A03BD35C0022DA
:10BBF00003938B199C4653192768009378888342D6
:10BC000002DABB889C4507DB0132052AF3D10131FA
:10BC10000529E7D100200DE063465843009BFB183F
:10BC2000102717411818039B1F407B1E9F417F421E
:10BC30008771E9E707B0F0BD17FCFFFFF7B50368B0
:10BC40009E1D5B885A1A019200291CDD0C1C051CE4
:10BC50000027994202DB04F04FF912E02B689B8821
:10BC60009F420EDA3119301C019A04F04FFD019BFE
:10BC7000211CF01804F03AF92B6801375B88F6189C
:10BC8000ECE7002000E00148FEBDC04617FCFFFFC6
:10BC900010B50548054C206003F013FC201C044936
:10BCA000044A04F0EDFC10BD5C0B02009406002079
:10BCB000DFFE010000010020436810B5041C002BCA
:10BCC00002D1044804F030FB606803681B699847A0
:10BCD00010BDC04666110200014B18607047C04697
:10BCE0009806002080B2002807D1BFF34F8F034A87
:10BCF000034BDA60BFF34F8FFEE770470400FA058D
:10BD000000ED00E0F0B5264B85B01B78002B45D048
:10BD1000244B254E1D6834686A42554162425441A5
:10BD2000EDB2E4B20193002D36D103A804F087F9F7
:10BD300005280CD0002804D0291C2A1CFFF7D2FFAC
:10BD400006E0019B03981B680093984700E00125DB
:10BD5000002C1ED1154B03A91B8801240B80144B0A
:10BD60001B68181C009304F06CF9071E052F0BD0FC
:10BD7000002805D000210A1CFFF7B4FF002403E0CF
:10BD80000098336898473C1C002DCCD0002CCAD0BA
:10BD900004E0002D02D1C6E7002CDBD005B0F0BDD9
:10BDA000AC070020A0060020A40600209E0700206B
:10BDB0009C06002008B5074B1B68002B07D098474E
:10BDC000002806D000210A1CFFF78CFF01E0FFF7D6
:10BDD00099FF08BDA80600200120054A08B5137880
:10BDE0005840044B10701B68002B00D0984708BDCA
:10BDF000AD070020AC06002070B5041C0E1C151CFD
:10BE00000021102204F09FFC054B201C2361311CF3
:10BE10002A1C00F08DF9034B201C1C6070BDC0462D
:10BE2000A0860100B006002038B5054D2B6883427E
:10BE300004D0041C216900F035F92C6038BDC046DF
:10BE4000B006002010B5041C00F01AF8014B201CAD
:10BE5000236010BD800A0200074A13681818EFF328
:10BE60000881884205D30C220120044B40421A600D
:10BE700001E01060181C7047D4020020C0070020A9
:10BE800038B50C4B041C0360002343608360C3601F
:10BE90000362436283639623051D9B01C363281CD1
:10BEA00000F020FA281C0449221C00F0ADFA201CE6
:10BEB00038BDC046900A02005501020010B5041CAE
:10BEC000044B036004F087F9201C00F01BF8201CD1
:10BED00010BDC046A00A0200084B10B5083303602D
:10BEE000002343608360C360041C00F017F804491A
:10BEF000206104F055FA201C10BDC046C80A02009B
:10BF00009D02020010B5041C034B0833036004F0CB
:10BF1000D2F9201C10BDC046C80A02000048704774
:10BF2000780B020008B5024804F043FA08BDC04689
:10BF3000780B02000848026803210A43026007499F
:10BF4000074A084B9B1A03DD043BC858D050FBDC62
:10BF50000548804705480047240500406412020058
:10BF6000000100208C030020A5C7010021810100F1
:10BF7000FEE7FEE7FEE7FEE7FEE7FEE770B5104CE2
:10BF8000051C0E1C081C211C00F0FCFB211C286059
:10BF90000023CB565A1C05D0B34201D18B6802E076
:10BFA0000C31F5E70023A0210120064AC9002B71BE
:10BFB00050506A211B020B430349535070BDC046C9
:10BFC000800B020000700040040500000C4B0D4A7D
:10BFD00010B50D499C582140995001799C5809028F
:10BFE0002143995001221A608022D2009A58D20728
:10BFF000FAD4A123024ADB00D05880B210BDC0465B
:10C000000070004004050000FF00FFFF01704B1CA2
:10C010000AD001238B404360044BC360044B03618F
:10C02000044B4361044B83607047C04608050050D1
:10C030000C0500501005005014050050084B006816
:10C04000C150084B021CFC32116A002904D1013B8B
:10C05000002BF7D1012001E0002010627047C0469C
:10C060001C050000A186010010B50368002A03D05A
:10C07000802202209200985001221A62084A1C1C59
:10C08000FC34E068002804D1013A002AF7D10120ED
:10C0900005E00020A322E060D2009B580B7010BD89
:10C0A000A186010010B50B4C02680B4BA14204DCC9
:10C0B0000A498160CC2149040AE0094CA14203DC11
:10C0C00008498160802102E007498160CD21C904CF
:10C0D000D15010BD8FD0030024050000A0860100C0
:10C0E0007F1A060090D00300801A060070B5041C69
:10C0F000101CA025C026C130FF30F600ED058000E1
:10C100004651081CC130FF3080004651A1252068EF
:10C11000ED004251054A8150191C201CFFF7C2FF57
:10C12000A02305212268DB00D15070BD0C05000062
:10C13000F8B50E1C151C041C00F01EFA2648F2B2BD
:10C140000378011CDBB2012B06D14778974203D15B
:10C150008778E8B2874211D02048EFB20378012BEC
:10C1600005D14378934202D18078B84211D0087843
:10C17000002806D101230B704A708F706373184B2F
:10C1800015E0164B1978002907D1013119705A7042
:10C190009F7002236373134B09E0134804F0C4F843
:10C1A0000023FC222360657126719362FFDE191C57
:10C1B0000022FC312360657126718A62A021C900CA
:10C1C0005A500A49201C5A5001325A50311C2A1C1C
:10C1D000074BFFF78BFFF8BDAE070020B20700202A
:10C1E000003000400040004089110200FC0F0000B8
:10C1F000A0860100026808B5031C101C0021FC3059
:10C200008162A020C0001150064811500131115028
:10C210000421052259569A56181C9B68FFF766FFA1
:10C2200008BDC046FC0F0000036800211A1CFC3248
:10C2300010B5916001315961074B9168002904D113
:10C24000013B002BF9D1012004E000240473FFF727
:10C25000D1FF201C10BDC046A1860100036810B5A7
:10C26000191CFC318A6A0020012A08D1044C1C598F
:10C2700088625A610238A40701D40120404210BDEF
:10C28000C40400000261064A08B54260054A017311
:10C290008260054A191C026004F094F908BDC0468A
:10C2A000040500501005005000070050012310B590
:10C2B0000A4ADC00A458A14207DA013BDB00D3188C
:10C2C0005A680168064BCA5007E00133112BEFD1C1
:10C2D00080210268024B4905D15010BDD40B0200E9
:10C2E00024050000F8B50F1C0121254BB94003605F
:10C2F000A023244CDB05161C1A59051C0A43802177
:10C300001A511A5909060A430121B1401A511A5902
:10C310008A4396211A511A598901520052081A511A
:10C32000FFF7C4FF002204202B6817495A506C39CC
:10C330005850012199601960191CFC31CA601349D9
:10C340005A506A6014391F325A5011495F50091807
:10C350005A501E517B1C03D0381C032104F022F9D3
:10C36000731C03D0301C032104F01CF90122094B7B
:10C37000291C1A600848073204F0C8F9F8BDC04605
:10C3800000200040140500006C0500001C050000A2
:10C390000C050000BC060020B807002008B5962355
:10C3A000DB00994202DDFFF781FF04E09E21026875
:10C3B000014BC902D15008BD2405000008B5C123B6
:10C3C0000D4A9B00D158090603D50C49096A00297A
:10C3D00008D1D3585B070DD5084B0021DB68002B33
:10C3E00001D107E00121064B1868002802D0054B57
:10C3F0001B68984708BDC04600200040FC20004054
:10C40000C0060020C4060020034B1960436803499E
:10C410009B005A507047C046C4060020C00600204A
:10C4200000681E4B70B5C3185C4263415B00002A74
:10C430001AD0002903D0012905D1802100E0042170
:10C44000C12292008150FF25C021C0245BB2DE00D2
:10C45000B540B1401248A4000259AA430A43025110
:10C4600001229A40026018E0002908D0012914D165
:10C47000C2228024920084508258920806E0C22290
:10C4800004219200815082580339D209914304D08B
:10C4900001229A40131C034AD36770BD00E0FFBF1E
:10C4A00000E100E004E100E003681A1CFC32106ABD
:10C4B0000128FAD100201062014AC9B29950704790
:10C4C0001C050000A023F0B5284FDB00FA5885B00A
:10C4D00001920022A024FA50E023254AE405DB0063
:10C4E000E658E2507833E15801250291E250A12349
:10C4F0008022DB00D205E2500420E55004F09BF8D6
:10C50000A222D200A35803979B0F2B4205D0A35819
:10C5100013242B4202D0012018E01324013C002CEC
:10C5200013D0A0250127134BED05EF50042004F094
:10C5300082F8A123DB00EF50042004F07CF8A22352
:10C54000DB00EB585B00E9D5E5E7201CA023E022E7
:10C550000299DB05D2009E5078329950A023039AAD
:10C560000199DB00D15005B0F0BDC046004000404D
:10C570000D0600000C050000A023E021134ADB0596
:10C58000C90010B55A5078315A50114B0022191C6D
:10C59000FC31CA600A62A1211E20C9005A500D4A0E
:10C5A0000D4C9850CC200D4A40049850A2200C4AC3
:10C5B000C00014500B4C0C48145001205050A022C5
:10C5C0000521D2009950FFF77DFF10BD0C06000039
:10C5D000004000400C0500003841004024050000E8
:10C5E00000F001401C4000401405000001230E4AE9
:10C5F00010B5936480230D499B00CB670C49101C38
:10C600000C6D0C4A002C04D000240C65116801311B
:10C61000116009490B601368A922D2008058190CD7
:10C6200080B21B04184310BD0090004004E100E0FC
:10C63000FC900040CC06002000E100E0F8B50F4C73
:10C64000636C002B0FD000270D4E67643378BB421C
:10C6500009D00C4B1D68FFF7C9FF2D1ABD4202DC43
:10C660003770FFF75FFC236D002B06D0064A136876
:10C67000013313600022014B1A65F8BDFC900040A5
:10C68000B7070020C8060020CC0600201B4970B563
:10C690000C78002C30D10120194B1A4A5860546094
:10C6A0008024E405206050680028FCD0002201248A
:10C6B000042515481A500C30DC601D5008381A50FB
:10C6C0001248C2251A50C1228020920000039850BF
:10C6D0008020400298500E48AD0046590D4A324025
:10C6E000C0263602324342518022893D9200FF3DEE
:10C6F000425102601C600C7070BDC046B60700203D
:10C7000000900040FC000040040500004C050000C3
:10C7100000E100E0FF00FFFF08B5044B1B78002B91
:10C7200001D1FFF7B3FFFFF761FF08BDB607002097
:10C73000104B70B51B78041C002B01D1FFF7A6FF2E
:10C740000D4D0E4E2B78002B02D033689C4210D03A
:10C75000FFF74CFF201A0A2803DCFFF747FF0A30D7
:10C76000041C01232B70A823054A3460DB00A4B20B
:10C77000D45070BDB6070020B7070020C8060020BF
:10C780000090004010B5041C431C07D003F06CFF60
:10C79000041C431C02D1024803F0C6FD201C10BD3E
:10C7A000BC110200234A10B51378111C012B19D1BA
:10C7B000214B1B681B0715D1204BE0241A68F0237E
:10C7C000101C184022420BD11D4A12681A4209D18E
:10C7D0001C4A1D4B1A6080221C4B12021A6001E099
:10C7E0003028F1D00B68DBB2012B0DD1124A126850
:10C7F000120709D1F021114A12680A40402A03D1D8
:10C800000F4A12680A420DD08022A3230021D205CC
:10C81000DB00D1500E4B9960013191609A68002A7B
:10C82000FCD005E0C1228021D200C9058B50EBE786
:10C8300010BDC046E00F00F0E40F00F0E80F00F07C
:10C84000EC0F00F0DFFF07C004050040186C00404B
:10C85000FC000040014B18687047C046D00600201D
:10C8600002B4714649084900095C49008E4402BC83
:10C870007047C046002243088B4274D303098B42A1
:10C880005FD3030A8B4244D3030B8B4228D3030CA0
:10C890008B420DD3FF22090212BA030C8B4202D342
:10C8A0001212090265D0030B8B4219D300E0090A6A
:10C8B000C30B8B4201D3CB03C01A5241830B8B4273
:10C8C00001D38B03C01A5241430B8B4201D34B035C
:10C8D000C01A5241030B8B4201D30B03C01A5241C1
:10C8E000C30A8B4201D3CB02C01A5241830A8B4246
:10C8F00001D38B02C01A5241430A8B4201D34B022F
:10C90000C01A5241030A8B4201D30B02C01A524192
:10C91000CDD2C3098B4201D3CB01C01A5241830946
:10C920008B4201D38B01C01A524143098B4201D380
:10C930004B01C01A524103098B4201D30B01C01AAB
:10C940005241C3088B4201D3CB00C01A5241830825
:10C950008B4201D38B00C01A524143088B4201D352
:10C960004B00C01A5241411A00D2014652411046B2
:10C970007047FFE701B5002000F0FCF802BDC0469B
:10C980000029F7D003B5FFF775FF0EBC4243891AA3
:10C990001847C04603460B437FD4002243088B420E
:10C9A00074D303098B425FD3030A8B4244D3030B36
:10C9B0008B4228D3030C8B420DD3FF22090212BAFB
:10C9C000030C8B4202D31212090265D0030B8B4277
:10C9D00019D300E0090AC30B8B4201D3CB03C01A61
:10C9E0005241830B8B4201D38B03C01A5241430B3C
:10C9F0008B4201D34B03C01A5241030B8B4201D32C
:10CA00000B03C01A5241C30A8B4201D3CB02C01A96
:10CA10005241830A8B4201D38B02C01A5241430A0E
:10CA20008B4201D34B02C01A5241030A8B4201D3FD
:10CA30000B02C01A5241CDD2C3098B4201D3CB01A4
:10CA4000C01A524183098B4201D38B01C01A524153
:10CA500043098B4201D34B01C01A524103098B4257
:10CA600001D30B01C01A5241C3088B4201D3CB0042
:10CA7000C01A524183088B4201D38B00C01A524125
:10CA800043088B4201D34B00C01A5241411A00D2D5
:10CA900001465241104670475DE0CA0F00D049423E
:10CAA000031000D34042534000229C4603098B42AE
:10CAB0002DD3030A8B4212D3FC22890112BA030A36
:10CAC0008B420CD3890192118B4208D389019211B8
:10CAD0008B4204D389013AD0921100E08909C3093D
:10CAE0008B4201D3CB01C01A524183098B4201D33F
:10CAF0008B01C01A524143098B4201D34B01C01A2A
:10CB0000524103098B4201D30B01C01A5241C308A1
:10CB10008B4201D3CB00C01A524183088B4201D310
:10CB20008B00C01A5241D9D243088B4201D34B002B
:10CB3000C01A5241411A00D20146634652415B106D
:10CB4000104601D34042002B00D54942704763464E
:10CB50005B1000D3404201B5002000F00BF802BD8D
:10CB60000029F8D003B5FFF715FF0EBC4243891A20
:10CB70001847C0467047C0468446081C6146FFE718
:10CB80001FB500F035FA002801D40021C8421FBDAE
:10CB900010B500F0B9F94042013010BD10B500F0F9
:10CBA00027FA002801DB002010BD012010BDC0467F
:10CBB00010B500F01DFA002801DD002010BD012095
:10CBC00010BDC04610B500F0C9F9002801DC0020F6
:10CBD00010BD012010BDC04610B500F0BFF90028FF
:10CBE00001DA002010BD012010BDC046002B11D17C
:10CBF000002A0FD1002900D1002802D00021C9430A
:10CC0000081C07B4024802A14018029003BDC046A8
:10CC100065FFFFFF03B4684601B5029800F022F8F3
:10CC2000019B9E4602B00CBC7047C046F0B583B075
:10CC3000161C1F1C0090019101F088F9041C0D1CAA
:10CC4000221C2B1C301C391C01F056F9009A019B48
:10CC5000121A8B410899201C0A604B60291C03B0F2
:10CC6000F0BDC046F0B5141C83B01D1C00900191AE
:10CC700001F064FA221C2B1C061C0F1C01F03CF96D
:10CC8000009A019B121A8B410899301C0A604B6074
:10CC9000391C03B0F0BDC046F0B556464D465F4660
:10CCA0004446F0B443024500C70F83B08A465C0A8D
:10CCB0002E0EB94641D0FF2E26D080231B042343DD
:10CCC000DC00002398469B467F3E53465B025D0A8C
:10CCD00053465A00DB0F120E9A4639D0FF2A33D042
:10CCE00080231B042B43DD0000237F3A5146B21AF8
:10CCF00046467940081C01921E430F2E00D976E06B
:10CD00007E4AB6009659B746002C30D10823984683
:10CD1000063B9B46D9E780230021DB03FF245B020F
:10CD2000E4055B0AC90723430B43181C03B03CBC52
:10CD300090469946A246AB46F0BD002C28D104236C
:10CD40009846033B9B46C0E7002D1FD1022302E01B
:10CD5000002D11D10123B21A504646467840019267
:10CD60001E430F2E27D86649B60089598F460C23DB
:10CD70009846093B9B46A8E7281C01F09FF87622BD
:10CD8000431F52429D40121A0023AFE70323ADE731
:10CD9000201C01F093F8431F9C4076235B421E1A2F
:10CDA000002398469B4690E70025D1469B465B466C
:10CDB0004846022B6FD10121FF2401400023AEE73A
:10CDC0007E23019A5B429B1A1B2B6DDD01214B4692
:10CDD000194000240023A2E78023DB031C4249D131
:10CDE0008023DB0323435B025B0A391C96E7630164
:10CDF0006D01AB4237D389461A2001215B1B012408
:10CE00001E1C49005B00002E01DBAB4201D35B1B03
:10CE1000214301380028F3D1581E83410B431D1CC8
:10CE2000019C7F34002CCBDD6B0704D00F232B40FB
:10CE3000042B00D004352B0104D5019A314B8032EC
:10CE4000141C1D40FE2C07DD4B460121FF24194018
:10CE5000002364E7251CAAE701214A46AB015B0ACF
:10CE6000E4B211405BE7019A8946013A01921B2026
:10CE70000021C4E71D4207D023435B025B0A391C33
:10CE80004CE700256302ABD58023DB032B435B0219
:10CE90005B0A514642E7032B25D0012BC0D101216B
:10CEA0000024014000233AE7291CD9402B1C019A99
:10CEB0009E3293405D1EAB410B435A0704D00F22B4
:10CEC0001A40042A00D004335A0105D54B460121EB
:10CED00001241940002322E701214A469B015B0AF5
:10CEE000114000241BE7802301214A46DB032B432A
:10CEF0005B020A405B0A111C10E7C0465C0C020092
:10CF00009C0C0200FFFFFFF7430270B542004C008B
:10CF10005D0AC30F4802120E460A240EC90FFF2AEB
:10CF200005D0FF2C08D00120A2420BD070BD0120FB
:10CF3000002DFBD1FF2CF6D10120002EF6D10120CF
:10CF4000A242F3D1B542F1D18B4205D0002AEDD1F6
:10CF5000281C431E9841E9E70020E7E7F0B54302AB
:10CF60004D024A0044005E0A240EC30F6D0A120EE1
:10CF7000C90FFF2C0DD0FF2A31D0002C0DD17742E4
:10CF80007741002A23D1002D21D10020002F0BD181
:10CF900007E0002E28D1FF2A21D0002A05D08B429D
:10CFA00007D0584201231843F0BD002DF9D08B4221
:10CFB000F7D19442F5DC04DBAE42F2D80020AE4259
:10CFC000F2D25842434101205B421843ECE7002F64
:10CFD000E5D048424141012049420843E4E7002DA1
:10CFE00002D1002CCBD0DAE702204042DCE7C04679
:10CFF0004302F0B542004C005E0AC30F4802120E15
:10D00000450A240EC90FFF2A0FD0FF2C1AD0002A80
:10D0100010D177427741002C29D0002F17D04842F9
:10D0200041410120494208430BE00220002E08D173
:10D03000FF2C07D0002C0AD1002D08D15842012323
:10D040001843F0BD0220002DFBD1002AE1D08B4215
:10D05000F4D1A242F2DC04DBAE42EFD80020AE42B3
:10D06000EFD25842434101205B421843E9E7002DCB
:10D07000D3D10020002FE4D1E0E7C046F0B55F46F1
:10D0800056464D464446F0B445024600C40F83B0B0
:10D090000F1C6D0A360EA34645D0FF2E25D08023E7
:10D0A0001B041D4300239A46ED007F3E01937B0243
:10D0B0005B0A98467800FB0F000E994640D0FF2887
:10D0C00038D0802342461B041343DB0098460023DC
:10D0D0007F384A46019F30186240411C1F430F2F82
:10D0E00069D87D4EBF00F659B746002D45D10823BB
:10D0F0000193063B9A46DAE793465346022B2FD11B
:10D100005B46012400251C40FF236D02DB056D0AF0
:10D11000E4071D432543281C03B03CBC90469946B8
:10D12000A246AB46F0BD002D2CD104230193033B56
:10D130009A46BCE743465A4253410322D31AC8E7F2
:10D1400042460123002AC4D0404600F0B7FE4246C2
:10D15000431F9A4076235B42181A90460023B8E793
:10D16000032B00D1ADE0012B00D08CE05B46544690
:10D170001C40E4B200230025C7E70C230193093BC0
:10D180009A4694E7281C00F099FE7626431F9D409E
:10D1900000237642361A01939A4688E780250024B8
:10D1A000ED03FF23B1E74546CB469A46A5E7454642
:10D1B00093469A46A1E743462C041B0C9C46230C3D
:10D1C000444626041C1C360C2F0C7443351C664642
:10D1D0007D4373437743EB18260C9E19B54203D960
:10D1E00080235B029C46674424043304240C1B19EF
:10D1F0009D016C1EA5419B0E360C2B43BD19AD0144
:10D200001D432B0104D5012368081D400543081C5C
:10D21000031C7F33002B2CDD690704D00F2129402C
:10D22000042900D00435290103D52C4B1D40031CD3
:10D230008033FE2B17DD0124FF231440002564E713
:10D240008020C003054209D04346034206D145462B
:10D2500005436D026D0A4C46FF2356E705436D02F8
:10D260006D0AFF2351E70124AD016D0ADBB21440C2
:10D270004BE77E235B421B1A1B2B07DD0124002397
:10D280001440002541E7081C5A46C1E79E30291C7E
:10D290008540D940681E85410D436B0704D00F239C
:10D2A0002B40042B00D004356B0104D5012401234D
:10D2B0001440002529E70124AD016D0A1440002324
:10D2C00023E78023DB031D4301245B466D022340DB
:10D2D0001C1C6D0AFF2318E7DC0C0200FFFFFFF7A0
:10D2E000F8B54A00430244004D02C00F240E061C4C
:10D2F0009B09120EC90FAD09FF2A00D175E0012765
:10D300007940884250D0A01A002800DC8FE0002A23
:10D310001ED1002D00D075E05A0704D00F221A400C
:10D32000042A00D0043380220120D2041A40304065
:10D33000002A32D00134FF2C00D184E09B015B0A2B
:10D34000E4B25B02E4055B0A2343C0071843F8BD5F
:10D35000FF2CE1D08022D20415431B287ADD012561
:10D360005B1B5A015DD59B019F09381C00F0A6FD8F
:10D3700005388740844269DC001B1F243A1C431C8B
:10D38000201ADA408740131C7C1EA74100243B432F
:10D39000C2E7131E45D100230020DB08FF2C28D054
:10D3A0005B025B0AE4B2CCE7A11A00295BDD002A2C
:10D3B0002ED0FF2CB0D08022D20415431B2974DC60
:10D3C0002F1C2022CF40511A8D40691E8D413D43B4
:10D3D0005B195A0125D50134FF2C74D001217E4AF6
:10D3E000194013405B080B4396E7002D00D088E7F7
:10D3F00085E7002B27D08022D20313435B025B0A10
:10D40000FF249EE701380028AAD0FF2CA5D183E78E
:10D41000002D00D180E701390029D9D0FF2CCDD1D2
:10D420007AE75A0700D079E701203040B5E70028B5
:10D4300025D1621CD2B2012A55DD5F1B7A012DD5A0
:10D44000EF1A0E1C91E7FF2400237AE7624B241A9F
:10D450003B4061E7291C2022C140101A8540681E0C
:10D4600085410D437CE7002946D1621CD1B20129D8
:10D470002BDDFF2A26D0EB185B08141C4CE7002C90
:10D4800015D0FF2A1AD08024E404404223431B28ED
:10D490004DDD0123EB1A141C0E1C62E7002F00D097
:10D4A00063E700230020002477E7012590E7002BA5
:10D4B00039D0C0430028EDD0FF2AE8D12B1CFF242F
:10D4C0000E1C29E7FF24002367E7002C5AD1002B0C
:10D4D0007FD0002D00D11FE75B195A01A1D53E4A2C
:10D4E0000134134018E7002C15D1002B2FD1002D4B
:10D4F0005ED02B1C0E1C0FE7002C21D1002B54D02A
:10D50000C943002904D0FF2A4CD01B2958DD012330
:10D510005B19141C5DE7002B23D1002D4BD02B1C75
:10D520000E1CFF24F8E62B1C141C0E1CF4E61E1C1B
:10D530002024C640201A8340581E83413343A9E764
:10D54000FF2A2FD08024E40449422343DDE7002D45
:10D5500000D1E1E65A1B500100D41AE7EB1A0E1C69
:10D56000DAE6FF24002D00D1D6E68022DB08D203C4
:10D57000134204D0ED08154201D12B1C0E1CDB0018
:10D58000FF24C9E6002B0DD0FF24002D00D1C3E6F7
:10D590008022DB08D2031342F1D0ED081542EED110
:10D5A0002B1CECE72B1CFF24B6E62B1C141CB3E64B
:10D5B000231C0020F1E6802300209B04FF24ECE6DE
:10D5C0001F1C2024CF40611A8B40591E8B413B43C6
:10D5D0009EE72B1CA0E6C046FFFFFFFB4202510A5C
:10D5E0004200C30F120E00207E2A0DDD9D2A0CDCA6
:10D5F000802000040143952A0ADC9620821AD1403B
:10D600000A1C58424240D0187047034A9818FBE75A
:10D61000963A91400A1CF4E7FFFFFF7F70B5041EA5
:10D6200039D0C50F00D04442201C00F047FC9E2397
:10D63000261C1B1A962B07DC082801DD08388440BD
:10D640006402640AD8B21EE0992B0ADD0522211C6F
:10D65000121AD1400A1C011C1B318E40711E8E41D2
:10D660001643052801DD421F96400F4C34407207D7
:10D6700004D00F221640042E00D0043462010ED4D0
:10D68000A401640AD8B26402C005640AED07044329
:10D690002C43201C70BD002500200024F3E7024B22
:10D6A0001C409F231B1AEBE7FFFFFFFBF0B55F4613
:10D6B00056464D464446F0B40F0387B098464D0099
:10D6C0003B0BCC0F061C924681469B466D0D019488
:10D6D0006BD0664B9D4235D080275B467F031F434E
:10D6E000F3009946624BFF00400F9C46074300231E
:10D6F000BB46002665440093424617035000D20FF4
:10D7000053463F0B400D904600D172E0574A90427D
:10D7100067D080235B031F435346554A5B0FFF00CE
:10D720001F43944653460021DB006044424662405A
:10D7300092462D1A0E430F2E00D9A1E04D48B60097
:10D74000805987465B461E4300D076E000239B4607
:10D750009946023308260093CEE799464346BB46D6
:10D7600001930091009B022B6BD1019B9A460021F3
:10D7700053460122002789461A403C4B00213F03B3
:10D780000C0D24053F0B27433B4C1B0527401F4333
:10D790007F00D2077F0817434846391C07B03CBCBE
:10D7A00090469946A246AB46F0BD03433ED05B4649
:10D7B000002B00D19CE1584600F080FB2823311C4F
:10D7C0001B1A021C5F46D940083A97400B1C964032
:10D7D0003B439B46B1460023284D00262D1A00935B
:10D7E0008AE7524603213A43A0D1002700230221B1
:10D7F0009CE752463A4315D0002F00D185E1381CF2
:10D8000000F05CFB021C28215046891A131CC840FA
:10D810005146083B99409F400B1C07431748002185
:10D82000801A83E70027002301217FE700239B461E
:10D8300099460133042600935EE703230C260093E8
:10D840005AE7032B00D13CE2012B00D0BFE11A1CA8
:10D85000019B1A4000210023002789468EE7002300
:10D860008027994600223F03004B87E7FF0700000F
:10D8700001FCFFFF1C0D0200FFFF0F800DFCFFFFEE
:10D88000BB4500D951E100D14CE14A460392002248
:10D890005C469046013D180E3F0238431B0201933F
:10D8A000030C994603041B0C4946061C201C1F1C34
:10D8B0000093FEF7DFFF021C7A4302904946201CCA
:10D8C000171CFFF75DF8039B09041B0C19438F42DB
:10D8D0000CD9029B8919013B8E4200D952E18F423B
:10D8E00000D84FE1029B8919023B0293CC1B201CFC
:10D8F0004946FEF7BFFF009F834647434946201C29
:10D90000FFF73EF8039A0B041404240C23439F42B0
:10D910000DD95A469B19013A9E4200D930E19F42E7
:10D9200000D82DE10222524294469B19E344029A08
:10D93000DB1B17045A463A439346019C170C220CF2
:10D94000101C04925A4611042204120C141C090CD7
:10D950007C4305924A43414347436118100C091820
:10D960008C4203D980204002844667440C0C120488
:10D970000804120C3C198118A34200D2E5E000D142
:10D98000DFE01F1B43465C1AA04592415242BF1A7A
:10D99000B74200D10EE1381C4946FEF76BFF009BF1
:10D9A000029043434946381C9846FEF7E9FF230C92
:10D9B0000F041F43B8450CD9029BBF19013BBE425F
:10D9C00000D9FBE0B84500D8F8E0029BBF19023B44
:10D9D00002934346FF1A4946381CFEF74BFF009B53
:10D9E000039043434946381C9846FEF7C9FF240478
:10D9F0000904240C214388450CD9039B8919013B58
:10DA00008E4200D9DCE0884500D8D9E0039B891913
:10DA1000023B03934346C91A029B039A1B04059CCD
:10DA20001A43100C13049146221C049F1B0C5A43EA
:10DA300044437B437843E318170CDB199C4203D91A
:10DA400080246402A44660441C0C12041B04120CC3
:10DA500000199B18814200D296E000D1FCE04A46B2
:10DA600001231A4391469B4BEB18002B00DC99E0F5
:10DA70004A4652070AD00F2249460A40042A05D0D6
:10DA80000431494592418946524293445A46D20153
:10DA900006D55A46904B1A4080239346DB00EB187C
:10DAA0008E4A934200DD62E64A465946D20849074B
:10DAB00011435A4689465702514601225B053F0BE6
:10DAC0005B0D0A405AE680205A460003024208D005
:10DAD000074206D107433F0399463F0B4246804B1E
