:020000021000EC
:10800000004000203DFB010079FB01007BFB0100EB
:108010000000000000000000000000000000000060
:108020000000000000000000000000007DFB0100D7
:1080300000000000000000007FFB010081FB010048
:1080400083FB0100F5B00100C5FF010083FB0100C7
:1080500083FB01000000000083FB010083FB0100A3
:1080600083FB01004502020083FB010083FB01004A
:1080700083FB010083FB010083FB010083FB010004
:1080800083FB010083FB010083FB010083FB0100F4
:1080900083FB0100A9F9010085F9010083FB0100C0
:1080A00083FB010083FB01000000000000000000D2
:1080B00000000000000000000000000000000000C0
:1080C00010B5064C2378002B07D1054B002B02D0AE
:1080D000044800E000BF0123237010BD902200205F
:1080E00000000000204D020008B5084B002B03D013
:1080F0000748084900E000BF07480368002B00D18B
:1081000008BD064B002BFBD09847F9E700000000A4
:10811000204D020094220020882200200000000050
:10812000164B002B00D1144B9D46402292029A1A06
:10813000924600218B460F461348144A121A0BF040
:10814000EDFE0F4B002B00D098470E4B002B00D0BC
:1081500098470020002104000D000D48002802D09F
:108160000C4800E000BF08F07DFD200029000BF066
:10817000CEFB08F061FDC046000008000040002072
:1081800000000000000000008822002034290020A8
:108190000000000000000000024A13680133136071
:1081A0007047C046AC22002010B5041C034B0833B6
:1081B000036001F041FE201C10BDC046804102005A
:1081C000002310B5041C83808371034B08330360C4
:1081D00001F014FE201C10BD80410200014B18600C
:1081E0007047C0464C2400200022014B1A607047A3
:1081F0004C240020014B18687047C046AC22002078
:10820000014B18687047C0468823002008B5011C40
:10821000014802F045FC08BD9823002008B502483B
:1082200009F088FC08BDC046B022002008B502480D
:1082300009F080FC08BDC046D822002010B5041CFF
:10824000044B03CB01F0A8FC211C0022024802F0E1
:108250007DFB10BD8023002098230020052110B550
:108260000D4B1A781C1C0132D2B21A704A43C42139
:10827000890252181278FF2A01D100232370074B7C
:1082800003CB01F089FC217800222031C9B20448D7
:1082900002F05CFB10BDC0469A2800205824002044
:1082A0009823002008B5021C024903480BF0FBFA92
:1082B00008BDC0463E4802008024002008B5021CCC
:1082C000024903480BF0EFFA08BDC04642480200DD
:1082D0008024002008B5C2B2024903480BF0E3FA3B
:1082E00008BDC046484802008024002008B582B27C
:1082F000024903480BF0D7FA08BDC0464E480200B9
:108300008024002008B5021C024903480BF0CBFA78
:1083100008BDC046544802008024002070B5041CEB
:108320000D1C2178002928D025291FD16178661CD1
:10833000642913D006D800291FD0622911D10F4813
:108340000F4907E00D48682903D0772909D10D4965
:1083500000E00D492A1C0BF0A6FA0CE007480B4977
:10836000F8E70222054803F0F5F904E00348022289
:1083700003F0F0F9261C741CD3E770BD80240020A4
:10838000584802005D480200654C02006248020045
:1083900007B5011C01A801F05DFD01A97822034881
:1083A00002F056FB01A809F0FDF907BD9823002053
:1083B000031C13B50C1C01A8191C01F04BFD01A9ED
:1083C000221C034802F0E4FA01A809F0EBF913BDFE
:1083D0009823002008B5034809F047FD0022024B0E
:1083E0001A7008BD982300209A28002008B5031CA5
:1083F0000A1C0248191C09F00EFF08BDA028002025
:1084000008B5011C014809F0EEFE08BDA0280020B7
:1084100008B501F0DBFC014B186008BD0423002007
:1084200008B501F0D3FC024B1B68C01A08BDC0465A
:108430000423002008B5034804F07AFC024802F047
:10844000A1FE08BDE02400201824002007B56B46DB
:10845000D91D087002480122183002F0C5FF07BD7F
:108460001824002013B50A4C201C09F02CFE6B4682
:10847000201CDC1D1830211C012202F097FF054B47
:10848000984201D0207801E00120404216BDC0464C
:108490001824002017FCFFFF70B5104D041E287033
:1084A0000F4E632C0CD80F4B03CB01F075FB211C36
:1084B0002031C9B2301C002202F048FA2C700CE0C6
:1084C000094B03CB01F068FB211C4439C9B2301CB5
:1084D000002202F03BFA00232B7070BD9A28002086
:1084E00098230020582400202423002010B5154C88
:1084F0000121201C09F09BFC6421201C02F0D0FA11
:108500006520FFF7C9FF322008F0AAFF6620FFF7B9
:10851000C3FF322008F0A4FF6720FFF7BDFF322021
:1085200008F09EFF6620FFF7B7FF322008F098FFA3
:108530006520FFF7B1FF322008F092FFFFF74AFFF6
:1085400010BDC0469823002008B5144B19680029B7
:1085500005D0134B186808F017F800291AD01148F5
:1085600009F0E8FA104B1A6851424A41024202D01F
:1085700001210E4A116018600D4809F0DBFA0D4B1D
:108580001A6851424A41024202D001210A4A11604E
:10859000186008BD0122094B1A60E0E74C24002056
:1085A000AC220020B02200205024002060240020B3
:1085B000D822002054240020202300200023002063
:1085C00038B504AC2578084CE370084B2070617016
:1085D00003CBA270257101F0DFFA202100220448AC
:1085E00002F0B4F938BDC0469B28002010240020BA
:1085F00098230020F8B52B4E2B4F1F24301C01214F
:108600003D6809F05CFA2540284B6D00E8520121D5
:10861000301C3D6809F066FA2540254B6D00E85294
:108620000121301C3F6809F070FA3C40214D640084
:1086300060531E4808F02CFF041C1D4808F028FF5A
:10864000061C281C08F024FF1B494B684E60F31AD7
:10865000DD175A190B686A40E31ADD175B196B4086
:10866000D3188A680C60821AD51752196A409B1871
:10867000124A88601360322B07D9114B1A68002AFE
:108680000ED1104901320A6009E0092B08D80C4BC1
:108690001A68002A04D001210B4A116000221A60D6
:1086A000F8BDC0462C230020AC220020C8270020A3
:1086B00048280020082800208C2300208823002040
:1086C00040240020442400204824002008B502480B
:1086D00008F0DEFE08BDC046C827002008B50248E5
:1086E00008F0D6FE08BDC0464828002008B502485C
:1086F00008F0CEFE08BDC04608280020F7B5304D72
:108700000621281C2F4A01F0ADFF2F4C281C221CEB
:108710002E490BF0A0FB002501222D4F131C0095C4
:10872000381C112101F0C0FE2A4E221C311C381CBD
:108730000BF091FB284F01230095381C1A210222CF
:1087400001F0B2FE381C311C221C0BF084FB234EBE
:108750002A1C301C1E2109F08DFB214D0423311CE5
:10876000281C3A2201F092FC221C1E49281C0BF006
:1087700072FB1D4801F008FA1C4928221C4808F029
:1087800064FFC421342289021A4808F05EFF1A49A6
:1087900022221A4808F059FF194D281CFFF710FD36
:1087A000221C281C17490BF056FB174D1D21281CB5
:1087B00002F022FC281C1549221C0BF04CFBF7BDD3
:1087C00098230020CC450200002000201DA60100B7
:1087D000B022002091A40100D8220020082300200C
:1087E0002C2300206D9F01008023002034220020D4
:1087F00024230020582400209B280020102400203F
:1088000078230020A98101001824002057140200B9
:1088100008B50348012102F0FDFFC0B208BDC04603
:108820008024002008B5011C0122024802F092FFBA
:1088300008BDC0468024002008B5054B00211868FB
:1088400003F0DEFF034B9842F7D0C0B208BDC0462C
:10885000082500200CFCFFFF08B5034B011C022279
:10886000186809F00CFF08BD0825002010B5041C8D
:10887000054B03601C3008F095FF201C183008F0F1
:1088800091FF201C10BDC0466842020010B5041CB8
:10889000034B0360403008F085FF201C10BDC0462C
:1088A000A041020008B50248002102F0B3FF08BD54
:1088B00080240020962130B5214C87B0201CC901AE
:1088C00002F018FE1F4D281C00F074FF1E491F48BF
:1088D00001F082F902A81E4901F0BCFA03A81D4963
:1088E00001F0B8FA02A904A808F0A4FF03A905A89A
:1088F00008F0A0FF002304A905AA009316482B1C2A
:1089000003F098FC05A808F04DFF04A808F04AFF02
:108910001C2001F08FF92022051C131C0F4903F0C5
:108920002FFE0F4B0F49201C1D600AF0BCFF03A84F
:1089300008F038FF02A808F035FF07B030BDC04688
:10894000802400206424002000200020001C00203F
:108950006548020070480200E8240020E02400205E
:10896000082500207648020038B5044D2B6898474A
:108970002B68041C98470002001938BD0C25002004
:10898000F8B5094F3B6898473B68061C98473B6819
:10899000041C98473B68051C98472D0400064019A5
:1089A000801924020019F8BD0C25002038B5FFF706
:1089B000E7FF041CFFF7D8FF0519AC4205D0034BB5
:1089C00020781B6898470134F7E738BD1025002050
:1089D00038B5FFF7D5FF041CFFF7C6FF0519AC42F9
:1089E0000CD0074B1B689847064B20701A68064B43
:1089F0009A4201D1FFF716FF0134F0E738BDC046B7
:108A00000C250020102500202588010008B500F065
:108A100073FC024BCF201B68984708BD102500202F
:108A200037B5FFF7ADFF041CFFF7AAFF051CFFF7E2
:108A30009BFF0022291C031C00920448221C03F007
:108A4000A3F8034BBF201B68984737BDA028002020
:108A50001025002008B5FFF793FF011C034803F021
:108A60001BF8034BAF201B68984708BDA0280020C7
:108A700010250020F0B50C4C85B02368984723687A
:108A8000071C98472368061C98472368051C9847CD
:108A9000236803909847311C00902A1C381C039BC4
:108AA000FFF78EFD05B0F0BD0C25002008B5FF28AE
:108AB00003D1134BE8381B681FE0FE2802D1FFF7F3
:108AC00075FF1BE0FD2802D1FFF782FF16E0FC28AE
:108AD00002D1FFF79BFF11E0FB2802D1FFF7A0FFB7
:108AE0000CE0FA2802D1FFF7B5FF07E0F92802D120
:108AF000FFF7C0FF02E0024B1B68984708BDC04665
:108B00001025002008B5044A044B1A60044A054B9E
:108B10001A60FFF7CBFF08BD118801000C2500206B
:108B2000258801001025002008B5044A044B1A606E
:108B3000044A054B1A60FFF7B9FF08BD39880100E8
:108B40000C250020598801001025002008B5054B90
:108B50000021186803F054FEFD239B00C018431E3B
:108B6000984108BD0825002070B5FFF7A3FEFFF768
:108B7000BDFC244C25682368AB4204D0FFF7E4FC1D
:108B8000FFF738FD2568FFF78DFE1F4EB04202D07B
:108B9000C0B2FFF7B7FF1D4B0021186803F030FE8D
:108BA000B04202D0C0B2FFF7BFFF194B1A68002ACB
:108BB00003D00020186008F0A3FC164B1A68002AA6
:108BC00004D0002204201A6008F09AFC124B1A68A4
:108BD000002A04D0002208201A6008F091FC0F4BF4
:108BE0001A68002A04D000220C201A6008F088FCC1
:108BF0000B4B1A68002ABED0002210201A6008F021
:108C00007FFCB8E7AC2200200CFCFFFF0825002009
:108C10000023002060240020202300204424002082
:108C200048240020142373B5164D0093281CB43338
:108C30001821192202F068FC134C1449221C281C2C
:108C40000BF009F9124E301C09F016FB114802F026
:108C500011FF114D281C02F065F9221C281C0F4938
:108C60000BF0F9F80E4D311C281C03F091FA281C6A
:108C7000221C0C490BF0EFF800210B4804F020F8FF
:108C800073BDC04680240020002000208D88010094
:108C9000A1280020A028002064240020E5AE0100C7
:108CA000E82400206D880100E0240020054A1368B4
:108CB000191D116004490A68501C086012781A6076
:108CC0007047C046BC210020182500200D4A30B551
:108CD0001368591C1160991C1C78116059780D0299
:108CE000D91C1160997808042918181D1060DB78C8
:108CF00009191B06CB1804490A68101D0860136087
:108D000030BDC04618250020BC210020074A30B5E0
:108D10001368074C591C116020681978051D02332F
:108D2000256003605B18136030BDC0461825002025
:108D3000BC210020134AF0B51168134E4B1C136080
:108D40008C1C087814604B7837681B021B180F487E
:108D500001680C60C024A4021D190C1C08340460B6
:108D60000B4C1C1914602C788F604C600C1C09494A
:108D70000C345B180460346013606B789B00E3185C
:108D80000360F0BD1825002014250020BC21002020
:108D90000100030002000300114A08B51368591CC2
:108DA00011601B780F49DA00DB005B58043252581F
:108DB000012B0ED0002B0AD0022B10D10A480368D9
:108DC000191F083B096803601868904707E090473F
:108DD00005E005490B68043B0B601868904708BD27
:108DE0001825002004200020BC210020144A10B5C2
:108DF0001368144C591C11601B781349DA00DB000E
:108E00005B5804325258012B0DD0002B09D0022B95
:108E10000FD12368191F083B096818682360904721
:108E200008E0904706E02368043B236018689047F9
:108E300000E0002023681A1D2260186010BDC046A3
:108E400018250020BC21002004200020094A1368B6
:108E5000002B0DD0191F096811601A1C083A1268FE
:108E60000C3B9200186804499B1A044A086013607E
:108E70007047C0461425002018250020BC21002082
:108E80000B480C4A036830B5043B1C681368191F73
:108E9000096811601A1C0C3B083A11681A1C064B31
:108EA00015681D608B00D31A1A1D02601C6030BD4E
:108EB000BC21002014250020182500201048114B4B
:108EC0000168F0B51D680C1F22682560C024A4024B
:108ED00015190C1D04600C4C0C4E14191C602C78D8
:108EE00037680C600C1C4F60094908345218046044
:108EF00034601A606B789B00E3180360F0BDC046D5
:108F0000BC210020182500200100030014250020AA
:108F1000020003000649074A0B6830B51568181FA0
:108F200004680560181D086000211960146030BDD8
:108F3000BC2100201825002070B50A4C0A4922687F
:108F40000B68101F056803600848043B066816603C
:108F5000161C08362660032454601B6805600B60ED
:108F600070BDC046BC21002014250020182500201B
:108F7000054A1368191F086804490860191D116023
:108F800002221A607047C046BC210020182500202C
:108F9000094B70B51A68111C08390868141F256838
:108FA0001960002806D0054806680E601A60002384
:108FB0002360056070BDC046BC210020182500203C
:108FC0000A4A70B513681C1C1D1F0C3B1E68083C28
:108FD00029682068002E00D1081C05490E681E6013
:108FE000002315602360086070BDC046BC210020CE
:108FF00018250020054A1368191D1160044A043B16
:10900000116859601B6813607047C046BC2100207E
:1090100018250020054A1368191F083B09681360CA
:109020001B68034A9B009B1819607047BC210020F5
:1090300080300020044B05491A68043A13689B00ED
:109040005B181B6813607047BC2100208030002033
:10905000054910B50B68181F083B02681C680860BA
:10906000A2181A6010BDC046BC210020054910B5E9
:109070000B68181F083B04681A680860121B1A6006
:1090800010BDC046BC210020054910B50B68181F53
:10909000083B02681C68086062431A6010BDC04645
:1090A000BC210020054B10B51C68221F083C11682C
:1090B00020681A6007F072FA206010BDBC21002001
:1090C000F8B5074D2C68261F3768083C2068391C06
:1090D00007F04AFB002900DAC9192E602160F8BDAB
:1090E000BC210020034B1B68043B00215A5E1A6020
:1090F0007047C046BC2100200022034B1B68043B84
:109100009A561A607047C046BC210020064910B527
:109110000B68181F083B04681A680860121B51424C
:109120004A411A6010BDC046BC210020064910B556
:109130000B68181F083B04681A680860121B511E50
:109140008A411A6010BDC046BC210020064A10B5F5
:109150001368191F083B08681C68116001228442CB
:1091600000DC00221A6010BDBC210020064A10B5A8
:109170001368191F083B08681C68116001228442AB
:1091800000DB00221A6010BDBC210020054910B58B
:109190000B68181F083B04681A68086022401A60B0
:1091A00010BDC046BC210020054910B50B68181F32
:1091B000083B02681C68086022431A6010BDC04664
:1091C000BC210020054910B50B68181F083B026838
:1091D0001C68086062401A6010BDC046BC210020B7
:1091E000054A11680B1F18681360116000220028DF
:1091F00000D101221A607047BC210020084810B538
:1092000003681C1F2168083B03601A68046000297A
:1092100002DA49420A4100E08A401A6010BDC046A5
:10922000BC210020044A11680B1F186813600078E5
:10923000116018607047C046BC210020044A1368C2
:10924000191F083B096813601B6819707047C046F6
:10925000BC210020034B1B68043B1A6812881A606B
:109260007047C046BC210020044A1368191F083B00
:10927000096813601B6819807047C046BC21002034
:10928000044A1368191F083B096813601B681960BA
:109290007047C046BC210020024A1368191D1160A6
:1092A0001B607047BC210020002270B50E4D0F4C92
:1092B0000F4B2E6820601A602B68B34206D0FFF770
:1092C00045FC00280FD1FFF795F92E6823685A1C3A
:1092D00022601B785A1ED2B2FD2A04D8054A9B0090
:1092E0009B589847E8E770BDAC2200201825002065
:1092F00014250020FC20002008B50248FFF7D4FF09
:1093000008BDC046003000200020094A1368591CDF
:1093100011601856074B002804DA01301B688000E2
:10932000181A04E0800040421B6810381818704773
:109330001825002014250020044B10B51C68221DA0
:109340001A60FFF7E1FF0368236010BDBC21002015
:1093500008B5FFF7D9FF034A1368043B13601B6885
:10936000036008BDBC210020054A1368191F083B93
:109370000868136003491A68034B08601A60704755
:10938000BC21002018250020142500200C4910B510
:109390000B680C4C181C0C380268002A04D1043BE2
:1093A0001B680860236009E0013A02601A1C083A51
:1093B000126822601A1D0A6001221A6010BDC046A0
:1093C000BC210020182500200D4A08B51368191F7C
:1093D00008681160032811D807F046F802080B0E40
:1093E000083B13601A68074B1A6007E0FFF7CEFFCF
:1093F00004E0FFF7BDFD01E0FFF7B6FF08BDC04682
:10940000BC21002018250020054A08B51368191D45
:109410001160044A12681A60FFF7B8FF08BDC04621
:10942000BC21002018250020084A10B51368084800
:10943000191F0C6811600839002C02D10B680360F9
:1094400003E0083B1B681160036010BDBC210020D5
:1094500018250020BFF34F8F024A034BDA60BFF399
:109460004F8FFEE70400FA0500ED00E0F0B597B07D
:1094700018220021061C10A80AF050FD10A8132184
:109480000AF053FB10A803210AF0F0FB0122554B10
:1094900001921B68002B01D0DBB2019300240BA8C2
:1094A0000021514A012306F0F1FC221C4F4BB3422C
:1094B000624153421E4072B64D4B1022211C07A838
:1094C0001F680AF02BFD4B4B6421301C079307F0FB
:1094D00065F80A2107F048F90525694350317918E4
:1094E0000891301C0A2107F059F80A2107F03CF9CD
:1094F0006943503179180991301C0A2107F034F979
:109500004D4350357F190A978027BF01019B002BDF
:109510004BD00026384B751E1D4004D50423013D59
:109520005B421D430135B300049300230293032CD7
:1095300002D180270024BF01049A07ABD3582F4AD9
:109540009C4663000133D3180022039261461878C9
:10955000095C581E059101781020084105990842C0
:1095600004D0012090400399014303910132063356
:10957000092AEBD1039B07AAD943214B09011940C2
:10958000AB009B589C4505D1029B312B02DC0BA8FC
:10959000002101E039430BA80AF023FCFA23159AB5
:1095A0001199DB001068014201D1FFF753FF013B25
:1095B000002BF7D1029B013401330293FA23029A64
:1095C0007F00E4B25B009A42B1D10136042EA1D1F2
:1095D000044B1B68002B99D0019B013BDBB201932C
:1095E00094E7C0461C250020F0FF0000E7030000C0
:1095F000C0210020B9480200030000808348020017
:10960000F01F0000F0B585B01F1C0AAB1B88061CBC
:109610000D1C02920393002F1BD0282000F00AFBA0
:109620006B46041C1A89039BA9B200933B1C08F0EB
:1096300058F83368301C5B68211C984700280BD011
:10964000002C08D0201C08F063F8201C00F014FB4C
:1096500001E0024800E0024805B0F0BD17FCFFFF42
:1096600016FCFFFF38B50B4B1C68002C10D0656D45
:1096700000F0ACFBA36C002901D1834206D8201C6A
:1096800007F07AFF201C044907F063FF2C1CECE76D
:1096900038BDC046442500204C250020F0B5041CF0
:1096A00093B00793230C0293284B04901C68284B1B
:1096B00005911E68069285B20027002E43D0002C2B
:1096C0002DD0636D23490393A36C9AB21B0C8D427A
:1096D00011D121498A420ED1002B02D0029A934225
:1096E0001BD1002F18D1201C07F046FF201C1B495E
:1096F00007F02FFF10E0002A01D0AA420DD1002B65
:1097000002D0029A934208D1201C07F035FF201C9A
:10971000124907F01EFF00E00127039CCFE7104B22
:10972000EB18012B0FD91023291C0093029A0D4B23
:1097300008A807F0D6FF3368301C9B6808A9984733
:1097400008A807F0E5FF13B0F0BDC0464025002093
:1097500050250020FE030000FF0300004C250020E0
:1097600002FCFFFF9D96010010B572B60B4B1C6802
:10977000002C03D0201C07F0FFFE08E062B65C203E
:1097800000F058FA00215C22041C0AF0C7FB0023F9
:10979000E364034B201CE36310BDC046202500207A
:1097A00000400020024B1878012318407047C04643
:1097B000A2280020F7B5061CFFF7F4FF041E33D1E2
:1097C0001A4D2E60FFF7D0FF194B1A49186007F0A9
:1097D000C0FEFFF7C9FF184B1860184B4363184BC6
:1097E0008363286800280ED0C027164E1649221C15
:1097F000331C0097FFF706FF009728681349221CC7
:10980000331CFFF7FFFE0C2000F014FA00238380C6
:1098100083710F4B03600F4B836000F0EFFA01215F
:109820000D4A13780B431370F7BDC0465025002036
:10983000242500204C25002054250020FC3F00203A
:109840003F1602009D960100FF030000FE0300008A
:10985000B041020065960100A2280020F7B500285B
:1098600001D1002019E00029FBD00193171C0D1C29
:10987000061CFFF779FF041EF3D0084B019A4363DF
:10988000066045608760064B002A00D0054B201C0F
:10989000A363054907F05DFE201CFEBDFC3F0020D0
:1098A00009160200271602004C250020024B1868FA
:1098B000434258417047C0464C250020002310B554
:1098C00004499C006258002A01D00133F8E7605037
:1098D000101C10BD28250020002310B5044A990053
:1098E0008C58844201D00133F8E70020885010BD25
:1098F0002825002010B50024074BE058002802D08E
:1099000003685B6898470434182CF5D1034B1B6837
:10991000002B00D120BF10BD282500204C250020A1
:10992000F8B5FFF73FFF002855D02B4E3468351CA3
:10993000E36CDA0718D502252B43E3640423274F91
:109940003868C26C1343C364636BC36307F03AFEA9
:109950003B68181C596C03F080F83068C36C2B42CC
:1099600039D003F0B4F836E01D4F1E4E3A68002A95
:1099700001D1326806E0216DB94203D1616D002941
:1099800000D00A1C2A602A6831688A4208D11B0765
:1099900006D52C60FFF7AEFF3B68002BFAD02B609A
:1099A0002B68A34217D03268934204D10E4A5A63FF
:1099B0000E4A9A6305E0944203D10020191C021C50
:1099C00006E0201C07F0FEFD2B68201C191C626CB1
:1099D0005B6C03F001F8F8BD242500204825002029
:1099E0004C25002054250020FC3F00203F1602009B
:1099F00038B5114B051C1C68FFF7D4FE002803D1B5
:109A0000281C0AF02CF916E0E36CDB0706D5FFF7FB
:109A1000ABFE0A4B1860002800D0041C00F0D6F9F9
:109A20002818A064201C07F0A7FD201C044907F09B
:109A300090FDFFF775FF38BD242500204825002044
:109A400044250020F0B51E4B85B01C681D4B1A68DC
:109A50000393002A05D00F1C051CFFF7A3FE002866
:109A600001D119482AE0E36CDB070ED5FFF77CFE35
:109A7000164B061E186008D007F07EFD301C1449F6
:109A800007F067FD341CFFF74BFF3B042B43A36437
:109A9000201C07F071FD201C0E4907F05AFD0E4BEB
:109AA0000020EB18012B09D9C0230093039B291C2C
:109AB00018683A1C094BFFF7A5FD002005B0F0BD62
:109AC000242500205025002016FCFFFF48250020FB
:109AD0004C2500204025002002FCFFFF9D96010040
:109AE00010B5FFF75FFE002809D0054C206807F08D
:109AF00043FD2068034907F02CFDFFF711FF10BD5F
:109B00002425002020250020F7B500282FD00C1C8C
:109B1000051CFFF747FE00282BD00726164F386894
:109B2000C36C1E4006D0281C211C144A07F03BFDC4
:109B300000261FE002F0B3FF02213A68D36C1940FF
:109B4000019103D003218B43D36413E001263343F7
:109B5000D364201CA8473A68D36C191CB143D16464
:109B6000019E5B0706D5201C07F055FD02E0044E60
:109B700000E0044E301CFEBD242500201716020014
:109B800017FCFFFF16FCFFFF024B1B6803607E23E0
:109B900043607047C021002082B06B46034A0090AA
:109BA000019103CB03C202B07047C0465825002084
:109BB000021C10B5014B12CB12C210BD582500205B
:109BC000034A044B12681A607E225A607047C046EE
:109BD000C02100205825002070B5124D031C2A78A2
:109BE000022A1AD081421AD90A1A072A17D9081C40
:109BF000032218431040041E11D11A1C72B6287893
:109C0000094EC300F0189A51416007F021FD2B78EE
:109C100001332B7062B6201C02E0044800E00448C7
:109C200070BDC046A32800206025002013FCFFFF64
:109C300017FCFFFF38B5051C00240D4B1B789C4218
:109C400009DA0C49E300C918281C07F009FD0028AF
:109C50000AD10134F1E7281C07F02AF8041E04D1C8
:109C60001420FFF703FC00E0041C201C38BDC04694
:109C7000A32800206025002038B5002818D00D4BFF
:109C80001C780023A34211DA0B49DA005558A84288
:109C90000AD98A185268904206D280230438026892
:109CA0001B061343036003E00133EBE707F00AF8F8
:109CB00038BDC046A32800206025002070B50028CC
:109CC00016DD0C4B051C1A681C1C0B4E002A02D01A
:109CD000306809F06BFEFA21256000243068074BDC
:109CE00089008361C462694309F068FE201C00E0BA
:109CF000034870BDA025002070250020A99D01000B
:109D000017FCFFFFF8B5114F061C3D68002D0AD166
:109D10003020FFF78FFF041C05F0E2FE0C4BA5611D
:109D20002360E5623C600B4D2B68002B09D11020AD
:109D3000FFF780FF041C09F08EFE201C2C6009F048
:109D400064FE301CFFF7BAFFF8BDC0467025002046
:109D5000904502009C250020014B18687047C046C2
:109D6000A025002070B50D4C2368002B03D00C4BB0
:109D70001B68002B02D10620FFF7C4FF206809F002
:109D80005BFE021C0749C3170D684E6852197341E8
:109D900020680A604B6009F055FE70BD9C250020CC
:109DA000702500208822002010B5FFF7DBFF00247B
:109DB000054BE058002802D003681B68984704341C
:109DC000282CF5D110BDC0467425002008B5FFF73A
:109DD000C9FFFA22034B920018685968002306F065
:109DE000CFFC08BD8822002008B5FFF7BBFF024B5F
:109DF0001868596808BDC046882200200B4B10B572
:109E00001B68041C002B03D0094B1B68002B02D1DC
:109E10000620FFF777FF0023064A9900885800289C
:109E200001D00133F8E78C5010BDC0469C250020BE
:109E30007025002074250020002310B5044A9900E5
:109E40008C58844201D00133F8E70020885010BDBF
:109E50007425002010B5041C002902D00B78002BBB
:109E600002D1034B236001E007F0A3FC201C10BDCE
:109E7000E4450200F8B5051C0E1C141C00290AD08C
:109E80000B78002B07D0002A05D0081C97B20AF0E7
:109E900085F8874202D90B4B2B6010E0601DFFF75D
:109EA000C9FE286007F058FD2868221C4780311C35
:109EB00004300AF016F82B681C1900232371281CA3
:109EC000F8BDC046E4450200014B03607047C04640
:109ED000E445020010B50548054C206007F03FFD41
:109EE000201C0449044A09F0B6FF10BDE4450200F5
:109EF000A4250020A517020000200020084B73B500
:109F00001D68002D0BD0011C041C2E68083108228E
:109F1000684609F0E6FF0CCC3168281C884773BD01
:109F2000A825002010B5054C0121201C07F00BFDD1
:109F3000201C0349034A09F08EFF10BDAC25002008
:109F4000051902000020002008B5074A03880120F7
:109F5000934208D0834202D00020DB0703D41E20A6
:109F6000FFF784FA002008BDFFFF000010B5041CB5
:109F7000034B08330360FFF7AFFC201C10BDC04645
:109F8000C0410200FA2370B52A4A41899B00594317
:109F9000131C3833041C181C083A1D681E1C8D4203
:109FA0000CD2061C244B227B1D1D082A0BD8042A28
:109FB00009D89D1C022A06D81D1C04E0083B301C51
:109FC0009342EAD1EEE7FA213068890006F056FAAA
:109FD00060812B78201C23732A21002207F0E2FCE9
:109FE000002801D0154824E0201C2B21102207F066
:109FF000D9FC0028F6D1201C2D21012207F0D2FC2B
:10A000000028EFD1201C2E21012207F0CBFC0028D4
:10A01000E8D16A78201C0E2107F0C4FC0028E1D1A9
:10A0200001223379201C1A432A2107F0BBFC0028A7
:10A03000D8D170BDEC450200994A02000EFCFFFF2A
:10A040007FB5161C0F226A44041C1D1C1170002EC3
:10A0500015D0002B13DD012301890093006B00F064
:10A0600073FD002801D007480AE000902189206B89
:10A07000321C2B1C00F01EFD002801D0F3E7024823
:10A0800004B070BD0EFCFFFF17FCFFFFF7B5061C08
:10A0900000250193214B14360833041C036085808E
:10A0A0008571C581058245820F1C0092291C1822EA
:10A0B000301C09F033FF301C1C2109F036FD6B46C3
:10A0C0009B88211CA3806B461B88022223811423BA
:10A0D0006381231C3E313833A571227327631D70C1
:10A0E0005D700B7865879343F1321340221CA5877E
:10A0F0000B70231C4832157055800135221DD58701
:10A100000833A21DD587201CDD87FFF73BFF002801
:10A1100002D1A3791D43A571201CFEBDC0410200E0
:10A1200030B50425837987B0041C2B4204D1FFF796
:10A13000C5FBA3792B43A371A36AA2691B68002501
:10A140001A422AD1201C01216A460623FFF778FF14
:10A15000002801D0124D20E06B4602216846595676
:10A1600000781B79227B40B25BB251435343424398
:10A1700089B2D200E281CA00228202229BB2DB00B5
:10A180006382A379201C9343A37107F019FC012279
:10A19000A18802A8131C07F092FB281C07B030BD51
:10A1A0000EFCFFFFF8B5041CFFF7BAFF0E22A35EFA
:10A1B0007C4F5B42BB4205DA231C3E331B789B0776
:10A1C00000D5C6E0201CFFF7ABFF0E22A35EC8221D
:10A1D0005B4200255200934205DD231C3E331B7871
:10A1E0009B0700D4B5E0201CFFF79AFF1022A35E66
:10A1F0005B42BB4205DA231C3E331B785B0700D56C
:10A20000B5E0201CFFF78CFF1022A35EC8225B4242
:10A210005200934205DD231C3E331B785B0700D4BC
:10A22000A5E0261C201CFFF77BFF1222A35E483608
:10A23000BB4205DA231C3E331B781B0700D5A3E085
:10A24000201CFFF76DFF1223E25EC8235B009A42D9
:10A2500005DD231C3E331B781B0700D494E0002D42
:10A2600019D03378032B16D80133DBB23370012BAE
:10A2700004D1231C00224A331A800CE0042B0AD19B
:10A28000221C01213E3213784A340B431370002301
:10A2900023800B3384E03278002A1AD0211C271C3B
:10A2A00001254A310B883E3701339BB20B80387849
:10A2B000AC46054008D01D2B0BD9634698430023BC
:10A2C00038700B80337004E0092B02D9013A0D80FD
:10A2D0003270201C07F0DFFB334A072390425FDD1A
:10A2E000201CFFF71DFF0E23E25E304E5242032377
:10A2F000B24255DBC825201CFFF712FF0E23E25E99
:10A30000AD0052420423AA424ADC201CFFF708FF9A
:10A310001023E25E02235242B24241DB201CFFF7CF
:10A32000FFFE1023E25E01235242AA4238DC201CC9
:10A33000FFF7F6FE1223E25E0523B24230DB201C5B
:10A34000FFF7EEFE1223E25E0623AA4228DC00237A
:10A3500026E00125211C281C3E310B785A08904329
:10A36000021C0220AA40834313430B703BE70125E4
:10A37000211C281C3E310B789A089043820004204F
:10A38000834313430B704CE7211C01223E310B78B1
:10A39000D80882430820D200834313430B7060E740
:10A3A000181CF8BD70FEFFFFFF700200E0FCFFFF0D
:10A3B00070B5C369C2681B688AB0041C451D1A4287
:10A3C00050D0EB7F002B01D0013BEB77EB7F082BCC
:10A3D0000DD90123A2791A4209D11A43A271A18889
:10A3E0001A1C06A807F06BFAFFF7F0FC2062EB7F5F
:10A3F000012B26D80123A2791A4222D00025A18858
:10A40000A57102A8022207F05AFAA31DDE7F012ED1
:10A4100017D1FFF7DBFC2B1C226A801A99410090B0
:10A420000191019BA18806A8AB4203D1164B009A6B
:10A430009A4202D90422012301E00322331C07F0CF
:10A440003EFA0323A2791340012B1AD1FFF7BEFC79
:10A450000023226A801A9941994208D10B4B9842F5
:10A4600005D80EE0EB7F0B2BB0D80133ADE702220D
:10A47000A379A1881343A37106A80332012307F02F
:10A480001EFA0AB070BDC046E7030000DB050000FD
:10A4900010B5041C034B08330360FFF7CDFC201CF0
:10A4A00010BDC046D8410200F0B5071C00250E1CA7
:10A4B00085B002930AAB1B7808370393104B041C3A
:10A4C00008330360019285808571291C381C18228D
:10A4D00009F024FD381C311C039A09F02BFB6B4654
:10A4E0006A469B88127AA380A31DE671DA77631D02
:10A4F0002562201CDD77FFF781FC201C05B0F0BD34
:10A50000D8410200F0B5041C85B0637A9C46002B4C
:10A5100003D1201C07F01CFB69E0A37A0121019301
:10A520001023266F019AF3560025D3189940029103
:10A53000291CF3680393039B9D4231DAB368019AA7
:10A540006B439B1872695B00E77AD3181A785878C6
:10A55000E379012F04D15F1E3F1A101C3A1C0EE054
:10A56000022F05D15F1EBA1A277A013F381A06E07A
:10A57000032F04D1277A013FBF1A021C381C5B004D
:10A580004343606F8218D3189B79634500DD6346AF
:10A59000627B1A4202D00123AB4019430135CAE75E
:10A5A0001123C943F356606C994023691940029BFB
:10A5B000194309F016FCA37B072B18D8627B581CA3
:10A5C000520062730B499A00A073022B03D888587B
:10A5D00009F03AFB99E7084B201C236300236363CF
:10A5E000064B8958E4622364143009F0E7F905B09A
:10A5F000F0BDC0462C46020005A501003D1B02002F
:10A6000010B5041C044B036009F0D0F9201C05F0C0
:10A610007DFA201C10BDC0469045020010B5041CF8
:10A620000E4B08330360FFF707FC201C743008F062
:10A630005AF8201C603008F056F8201C583007F0FB
:10A64000B1F8201C503007F0ADF8201C044B14303A
:10A650006361FFF7D5FF201C10BDC046F04102002A
:10A66000A8450200F8B50025041C314B858008334D
:10A67000036085711430161C0F1C05F031FA201C84
:10A680002C4BE562636125645030FFF71DFC201CF4
:10A690005830FFF719FC201C603002F02FFA201C04
:10A6A00033682667590009B20423F25E743008F05B
:10A6B00030F83378226FE3717368A7802372102318
:10A6C000E572A5722561D356916859188B4204DA58
:10A6D0000120984001330543F8E71123D168D35690
:10A6E00059188B4206DA01229A402069013302434D
:10A6F0002261F6E71420FFF79DFA226900212A4320
:10A700000123061C05F0C2FBFF226272221C0023FB
:10A710000125483266646573A3732373201C13708C
:10A72000A366FFF76BFBA379201C2B43A371F8BD35
:10A73000F0410200A8450200F7B5437A041C002B43
:10A7400003D1201C07F004FA64E0837A01219C46BF
:10A750001023066F0025F356634499400091291C8D
:10A76000F3680193019B9D422CDAB36872696B43D5
:10A7700063445B00E77AD3181A785878E379012F9D
:10A7800004D15F1E3F1A101C3A1C0EE0022F05D1A7
:10A790005F1EBA1A277A013F381A06E0032F04D148
:10A7A000277A013FBF1A021C381C5B004343606FCD
:10A7B0008218D3189B79002B02D00123AB40194398
:10A7C0000135CFE71123C943F356606C99402369E3
:10A7D0001940009B194309F004FB667AB31EDBB2F3
:10A7E000FC2B14D8FFF7B8FA0B4B051C236300238E
:10A7F0000A4863630A4BFF21E4622364704305F057
:10A80000CDFE011C201C6943143009F0D7F8637A8F
:10A81000012B96D9F7BDC046511B0200B6030000BC
:10A820003D1B02001FB501228188131C684607F0FA
:10A8300046F8012268460349131C07F040F805B0AA
:10A8400000BDC046FE03000008B548300378002B69
:10A8500006D00378012B03D00248012106F0CBFE7D
:10A8600008BDC046FF03000010B50121041C0620EE
:10A8700006F0C1FE064B984209D1231C48331A78D2
:10A88000002A04D01B78012B01D020BFF5E710BDB2
:10A8900016FCFFFF70B5051C141E09DB061C4836AC
:10A8A0003378002B06D03378012B03D00B4813E00C
:10A8B0000B4811E00022281C131C743002F078F9B8
:10A8C0000020844207D02B1C4A331C8007234C35C0
:10A8D0002880337000E0201C70BDC04612FCFFFFD2
:10A8E00017FCFFFFF8B50B68051C5B88171C012BD4
:10A8F00009D1081C002106F0CAFF0022011C281CF7
:10A90000FFF7C8FF1DE0002A09DD061C4836337832
:10A91000002B06D03378012B03D00A4811E00A48F7
:10A920000FE02B1C0024281C5C331C80583006F0E0
:10A9300089FF2B1C4A331F800323201C4C352C809D
:10A940003370F8BD12FCFFFF17FCFFFFF8B5002ABB
:10A9500016DB041C151C0F1CFFF776FF231C483365
:10A960001E78F6B2002E0DD1201C391C2A1CFFF7D0
:10A9700091FF281E07D0201CFFF776FF301C02E055
:10A98000014800E00148F8BD17FCFFFF11FCFFFF84
:10A99000F7B5002A29DD051C171C0E1CFFF754FF14
:10A9A0002B1C48331C78E4B2002C20D133685B8820
:10A9B000012B09D1211C301C06F069FF221C011C4F
:10A9C000281CFFF767FF13E0311C01A806F032FFD7
:10A9D00001A93A1C281CFFF785FF01A806F0E2FE3A
:10A9E000281CFFF741FF201C02E0024800E002485B
:10A9F000FEBDC04617FCFFFF11FCFFFFF8B5041CAD
:10AA0000171E09DD061C48363378002B06D0337834
:10AA1000012B03D00C4816E00C4814E0221CE3790B
:10AA20005632013B1370231C0025201C54331D801B
:10AA3000503006F007FF231C4A331F800223281CD6
:10AA40004C3425803370F8BD12FCFFFF17FCFFFF6C
:10AA5000F7B5002A1BDD051C161C0F1CFFF7F4FEC2
:10AA60002B1C48331878C4B2002C12D1391C01A811
:10AA700006F0E0FE01A9321C281CFFF7BFFF01A869
:10AA800006F090FE281CFFF7EFFE201C02E00248B3
:10AA900000E00248FEBDC04617FCFFFF11FCFFFFAF
:10AAA000FF2902D84172002000E001487047C046EB
:10AAB00017FCFFFFF0B51F1C85B00AAB1B78041C08
:10AAC000039300933B1C0D1C161C08F0BFFE0028CE
:10AAD00032D0237D082B2DD823680022191CFC318D
:10AAE0008A62A0211648C9005A5084461A5005208F
:10AAF0000138C046C046C046C046C046C046C046F3
:10AB0000C046C046C046C046C046F1D1012062469C
:10AB10002368985005225A5005F032FB039B201CF5
:10AB20000093291C3B1C321C08F090FE237D01334E
:10AB30002375CCE7034800E0207505B0F0BDC046A2
:10AB4000FC0F00000EFCFFFFF0B51F1C85B00AAB28
:10AB50001B78041C039300933B1C0D1C161C08F06F
:10AB60005DFE002832D0237D082B2DD823680022DB
:10AB7000191CFC318A62A0211648C9005A5084462B
:10AB80001A5005200138C046C046C046C046C046DF
:10AB9000C046C046C046C046C046C046C046F1D1C9
:10ABA000012062462368985005225A5005F0E8FAC1
:10ABB000039B201C0093291C3B1C321C08F02EFE1A
:10ABC000237D01332375CCE7034800E0207505B0F1
:10ABD000F0BDC046FC0F00000EFCFFFF30B5041CAA
:10ABE00087B0057B006C04F0F5FFA02200210E4B1E
:10ABF000AD00D200285199500C4A14319950636C21
:10AC0000217B5B7C6846C91849B207F065F9039B54
:10AC1000019A03211A60207B0130C0B205F0B4FC18
:10AC2000217307B030BDC04600700040040500002D
:10AC300082B070B5041C002588B00C920D93636C33
:10AC40009A6895420ADA197C02A8691849B207F095
:10AC500043F9069B039A01351A60F0E75B7C257B7C
:10AC600002A8ED186DB2291C07F036F9039A059B6E
:10AC700001921A600021182202A809F04FF902A8D7
:10AC8000291C002208F056FF206C002801D0FEF796
:10AC9000F3FF0820FEF7CEFF291C061C04F072FF0C
:10ACA000094B201CE3620023FA212363074B26642F
:10ACB000A462E3631030090108F080FE08B070BCA4
:10ACC00008BC02B01847C046DDAB0100851E02007B
:10ACD000F0B5041C0E1C151C85B000930CAB1B8832
:10ACE0001030019306F0E0FD268065801820FEF705
:10ACF000A1FF071C02AD2B1C3E1C0AAA03CA03C3FA
:10AD0000009B002108C6301C102209F007F9291CFD
:10AD1000301C082209F0E5F8064B02227B61201C5A
:10AD200000230199A7600A43E360A2802362636263
:10AD300005B0F0BD991E020030B5134B91B01D68EF
:10AD4000041C002D17D0114B6A4604930023059371
:10AD500004AB03CB03C21023062102930222231C5F
:10AD600006A8FFF7B5FF2B68281C9B6806A9984723
:10AD700006A806F0CDFC201C054B10302361FFF720
:10AD80003FFC201C11B030BDA825002031AC0100D3
:10AD9000A845020070B5002926D00D1C0026C46805
:10ADA000002C1ED00222A988A3884B40134216D142
:10ADB000114203D1AB889B0707D510E0A068A968B2
:10ADC00007F080FC002804D1F4E7A368AA68934246
:10ADD00005D12B88002B09D022889A4206D0646ABC
:10ADE000DEE7201C002E0DDC07480BE06B88002BF3
:10ADF00002D062889A42F2D1A388044A01361343F2
:10AE0000A380ECE770BDC04617FCFFFF0080FFFF8A
:10AE1000F0B585B0002952D00D1C061CC468002C6A
:10AE200019D0AA880023920702D5A3889B07DB0FBD
:10AE3000226829688A420CD1002B06D0A068A96834
:10AE400007F040FC00283CD103E0A368AA689342C5
:10AE500037D0646AE3E7F0682A88071C031E22D013
:10AE60001988914205D2596A1F1C00290DD00B1C6C
:10AE7000F6E7191C3B1C08E00C88944207D14F8868
:10AE80006C88A74203D20B1C496A0029F4D1834283
:10AE90000BD119888A4205D3914206D15888698816
:10AEA000884202D96B62F56002E0596A69625D62AC
:10AEB00068460949012306F002FD002009E0074821
:10AEC00007E0A3881AB2002A02DA5B045B0CA380B5
:10AED000034805B0F0BDC046FD03000017FCFFFFAE
:10AEE00016FCFFFF064B10B51A1C041C08322C334D
:10AEF000026043600430FEF7EFFC201C10BDC0462A
:10AF00000842020008B4024B9C46043808BC604763
:10AF1000E5AE010008B4024B9C46043808BC60470B
:10AF2000051F02000C4A0023111C2C32083110B5F9
:10AF3000038183724260C3600361436143830160A4
:10AF4000041C0430FEF7BAFC044B1A68002A00D136
:10AF50001C60201C10BDC04608420200A82500202D
:10AF6000F7B50E1C0125C4680192002C37D0238848
:10AF700032889A4201D0002B26D1638872889A4287
:10AF800001D0002B20D1FEF70DFC0123002806D0B4
:10AF9000A288BF331340C03B5A425341DBB2019AEF
:10AFA000934210D1A7883BB2002B0CDB201C311C34
:10AFB0001030102208F095FF7B0607D4FEF7F2FB55
:10AFC000002803D006E00025646ACEE7201C06F0C6
:10AFD000A2FFF9E7211C0348FEF796FDF4E7281CC1
:10AFE000FEBDC046171F020008B4024B9C46043841
:10AFF00008BC60479B20020070B5041C00250D4B67
:10B000000E1C0833858085710360211C183007F001
:10B0100081F8201C211C203007F09FF8064BA680E9
:10B02000A571E5712572E56025616561201C1C60D4
:10B0300070BDC04648420200B025002010B50C1C6F
:10B0400006F06EFA002806D1642C06D8A123044A23
:10B05000DB00D45002E0034800E0034810BDC046C6
:10B060000010004016FCFFFF17FCFFFF8379DB0791
:10B0700002D5C160002000E00048704716FCFFFFC9
:10B080008379DB0701D5C06800E001487047C046FE
:10B0900016FCFFFF38B54569002D22D0037A032B3B
:10B0A00021D8041CFFF7ECFFA8622C20FEF7C2FD9C
:10B0B0002C220021051C08F031FF00236269536235
:10B0C0002369002B01D1226105E0596A002901D0D2
:10B0D0000B1CFAE75A62237A656101332372002060
:10B0E00002E0024800E0024838BDC04617FCFFFFFE
:10B0F00013FCFFFF154B70B55A68154D002A03D09D
:10B1000000225A600132AA601B69114E002B1CD02C
:10B1100000210E4B0F4C19618023DB00F358012BEB
:10B120000ED1A923DB00F15820684942FFF79EFFAA
:10B130002068FFF7AFFF23685A69074BF25002E01F
:10B140002068FFF793FF0123AB6070BDFC10004047
:10B1500000100040B02500200405000038B5051C93
:10B160000C1C06F0DDF9002804D1034B034AEC71F6
:10B17000D45000E0024838BD240500000010004013
:10B1800016FCFFFFF8B582790023D20772D4051CA4
:10B1900006F0C6F900286AD16E69002E08D12C305D
:10B1A000FEF748FD041C311C2C2208F0B7FE6C6130
:10B1B0006B69002B5DD000222F4B01215A60802249
:10B1C000D20511605A68002AFCD006222B4B2C4C69
:10B1D0009A562C4B0721E250281CFFF72FFFA22381
:10B1E0000026DB00E650284A284B281CE250E9796B
:10B1F000FFF7B4FF01220821254B2648E65004330F
:10B20000E250254B254FE1500433E05002232448FF
:10B21000235024482750244F043827501827234808
:10B2200027506F6922482750C120800021502149B2
:10B230008538FF380B500B608021890063587138C6
:10B24000FF38034363501C4B5E6062605A68002AFB
:10B25000FCD000240126184B281C1C61084B9E6062
:10B26000FEF72CFBAB793343AB71231C02E0134B8D
:10B2700000E0134B181CF8BDFC000040AA4B020074
:10B28000001000400C050000746962751C05000088
:10B290002C0500002000040214050000FFFF000040
:10B2A000340500003C050000211001005405000099
:10B2B0000405000000E100E0FC10004016FCFFFF68
:10B2C00013FCFFFF031C0069002809D00221054A76
:10B2D000D167426A1A611A7A013A1A72024B1960EE
:10B2E0007047C04604E100E000E100E038B5041C0E
:10B2F0000D1C06F015F9002845D1002D45D02B78FE
:10B30000232B42D802220121214BDA67214B224A0A
:10B31000586111615A692049002AFBD01F4A1D4813
:10B320008D500025456001200860111C5A68002AD4
:10B33000FCD00120184A90600020164A106118695C
:10B34000154A0028FBD0606950500020114948611F
:10B35000012111615A69002AFCD000210D4A516077
:10B360000D4A013151605A68002AFCD000200122A8
:10B37000C021084B49001861074B9A60084B92188E
:10B380005A501A6002E0074800E0074838BDC0463E
:10B3900004E100E0FC100040001000400405000043
:10B3A00000E100E016FCFFFF17FCFFFF38B50029A5
:10B3B00014D04568002D11D0002A0FDB6B6A436062
:10B3C0002C78033C944200DD141C081C221C291D0F
:10B3D00008F087FD281CFEF74FFC00E0014C201C04
:10B3E00038BDC04617FCFFFF30B58DB0002912D024
:10B3F000232A10D801ACD31C051C00202370012384
:10B40000A07002A86370E37008F06BFD2868211C2F
:10B41000FFF76CFF00E001480DB030BD17FCFFFFE7
:10B42000F0B5234B85B01B785B073FD5041C08F0B3
:10B4300025FA0025236CC6B20227DF5FBD420EDA73
:10B44000201C29B2403006F022FAB04205D1012278
:10B4500068462021131C06F032FA0135EEE7251C60
:10B46000231C4E3528884C331978013005F07CF9BF
:10B47000231C50331B8889B28B4211D02B88A26CBD
:10B48000D654636C2980002B10DB2A889A420DD198
:10B49000012302225B426364684620219B1803E07B
:10B4A000684620210322012306F009FA05B0F0BD09
:10B4B000A42800200121024A13780B43137070471F
:10B4C000A42800200221024A13780B43137070470E
:10B4D000A42800200121024A13788B43137070477F
:10B4E000A42800200221024A13788B43137070476E
:10B4F000A428002008B5002903DB024B196008F0DE
:10B500002BFA08BDB425002070B5041C1E1C04AB2A
:10B510001D7804F09BFA201C0E4B40302360FEF790
:10B52000D3FC231C01364C330135221C1E701D73C5
:10B530000023E1214E32A36463651380538093811D
:10B54000D381013B201C63644902FFF7D3FF201C19
:10B5500070BDC046A041020038B5012A13D0031CBB
:10B56000051C4E331B88141CC8182B1C4C3319782F
:10B5700005F0FAF869640025022C05D1211C202071
:10B5800006F039F800E0014D281C38BD17FCFFFF1C
:10B5900070B5051C041C0A1C5035002907D1031C7A
:10B5A0004E331B882A889A4212D111481FE0012984
:10B5B00006D12A88231C4E331B889A42FAD007E012
:10B5C000022905D1031C4E331B88298899420AD0D1
:10B5D000A36C28884C341E5C2178013005F0C4F837
:10B5E000301C298003E00121FFF7B6FFF0E770BDB2
:10B5F0000CFCFFFFF0B5061C071C5C365A3733887D
:10B600003A8885B09A421FD0104B1B781B071BD578
:10B61000041C3388426DD15C08F034F9231C308857
:10B6200058331978013005F09FF83B888DB2AB4252
:10B6300009D1074968460222012306F040F9201C7F
:10B64000012106F0CAFD358005B0F0BDA428002018
:10B65000FF03000070B5114D041C2B781B0705D5A6
:10B66000012106F0BAFD606DFEF706FB08262B7877
:10B67000B3432B70231C58331878FEF7DBFA606550
:10B68000002809D0231C00205A3318802B785C3402
:10B690001E4320802E7000E0014870BDA4280020C9
:10B6A00013FCFFFFF7B50F1C08A9051C097804302F
:10B6B000002A01D1DC070FD5002F0DD01826182441
:10B6C0004E43AE1973614B1C5C43054B2C19326120
:10B6D000F7600122A36000E0002204F0A5FCF7BDA2
:10B6E00085210200F0B5041C002589B00391049265
:10B6F0000593049B9D420EDA261C231C5A3637887C
:10B7000058331978781C05F02FF8231C5C331B88FC
:10B7100089B2994207D1059B012B0BD002210B481E
:10B72000FEF790F906E0039B626D5B5D0135D35532
:10B730003180DEE70123201C0093211C044A0023F2
:10B74000FFF7B0FF281C09B0F0BDC046FF030000A2
:10B75000F5B50100F7B5134F051C3B780C1C161C02
:10B760009B071DD4FFF7AEFE3B781B0712D50023C5
:10B7700001A90B800122331C281C0C70FFF7B2FFBB
:10B78000041C311C281C06F018FD281CFFF7AAFE1B
:10B79000201C06E0281CFFF75DFF0028E7D000E032
:10B7A0000148FEBDA42800200DFCFFFFF0B5164E99
:10B7B00085B03378051C5B0705D5002106F00DFD2B
:10B7C000A86CFEF759FA04273378BB4333702B1C5F
:10B7D0004C331878FEF72EFAA864002810D02B1CE2
:10B7E00000244E331C805C803378281C3B4333702C
:10B7F000291C0094054A231CFFF754FF201C00E07D
:10B80000034805B0F0BDC046A428002021B40100C3
:10B8100013FCFFFF70B50E4E3378DB0716D40C1CFB
:10B82000051CFFF747FE33785B0709D5211C281C50
:10B83000FFF7AEFE041C281CFFF74CFE201C06E0A0
:10B84000281CFFF7B3FF0028F0D000E0014870BDCE
:10B85000A42800200DFCFFFFF7B580277F053D6978
:10B860007C690822113C6C43061C211C684608F0C8
:10B8700038FB104B009A9A4219D000930023019391
:10B880007969301C1339694306F0ADFC019A301C0C
:10B89000009906F0C9FC301C211C06F0A4FC796953
:10B8A000AB0813396943301C221C06F0A6FC019832
:10B8B000FEBDC046FECA0000F0B50D1CABB00D9237
:10B8C00000213022061C12A80B9308F027FB281C2D
:10B8D00008F064FB431C0C93102B00DDB6E00B9BBF
:10B8E000202B00D9B2E0301C291C06F0CBFC071E2F
:10B8F00029D1291C0C9A12A808F0F3FA0D990B9A79
:10B9000016A808F0EEFA80235B051F695A69301CFF
:10B91000113A7A435D690D92FFF79EFF0D9B00215E
:10B9200008333022041C1EA80F9308F0F7FA291CD4
:10B9300013397943301C06F056FC0F9B0B93002300
:10B940000C930E9335E010300D990B9A08F0BAFA6B
:10B95000041C381CFEF790F9002C7AD0C9E70B992B
:10B960001EA8302208F0BDFA1EA812A908F00CFB90
:10B97000002822D13849301C221C1091119406F065
:10B9800053FC6A460B9B099315AB23CB23C223CBF5
:10B9900023C223CB23C2301C149B1299139A06F0A6
:10B9A00051FC01230E930B9B30330B930C9B013303
:10B9B0000C930C9BA342D2DB10E06A460B9B0993CD
:10B9C00021AB23CB23C223CB23C223CB23C2301CE6
:10B9D0001E991F9A209B06F035FCE4E7E5433021D1
:10B9E000ED1725404D430F9B5D190E9B002B1BD17E
:10B9F000B81E04F043FD84422AD017490134301C9C
:10BA0000221C1091119406F00FFC6A46099515ABA3
:10BA100023CB23C223CB23C223CB23C2301C1299B6
:10BA2000139A149B06F00EFC301C0D9906F0DBFBFC
:10BA300080235B0559690C2363431339794302332F
:10BA4000301C0D9A06F0D9FB002402E0034C00E004
:10BA5000034C201C2BB0F0BDFECA000017FCFFFFFA
:10BA600013FCFFFF022802D10122014B1A7070471C
:10BA7000A528002038B5064C051C2378002B04D1DE
:10BA8000044801F07FFA01232370281C38BDC0460A
:10BA9000A628002065BA010038B50C1C05F040FD51
:10BAA000002811D0154B00221D1C1A70A40A201C5E
:10BAB00006F025FC002803D00A2008F0D0F8F6E7AD
:10BAC0002B78002BFCD018E002210D4A0D4B995029
:10BAD000111C8022D20098580028FAD0A120094DCC
:10BAE000C0002C5098580028FCD00020054A505027
:10BAF0008022D2009A58002AFAD038BDA52800200A
:10BB00000405000000E00140F8B50D1C161C1C1CCB
:10BB100005F006FD002812D0184B00221F1C1A70D9
:10BB2000281C311C221C06F0E8FB002803D00A2048
:10BB300008F095F8F4E73B78002BFCD01CE0104AA5
:10BB4000012194460F4B99508022D2009A58002A26
:10BB5000FAD000228027FF00A24207DA9100705835
:10BB60006850D9590029FCD00132F3E70022614620
:10BB70005A50DA59002AFCD0F8BDC046A52800204A
:10BB80000405000000E00140F0B587B00C9CA4055E
:10BB9000A40D5FD10F1C03928A05920D0092D2185A
:10BBA0008D0A029203993A1C061CAD0206F0A9FB0D
:10BBB00000280AD1FF240322391C029BA40004336D
:10BBC0009343214001930C9511E00C9B002B41D035
:10BBD000191C8023301C5B002A1CFFF795FF291CD1
:10BBE000301CFFF759FF8023211CDB000193002349
:10BBF0000593019B99422BDA184B0B4004D5042284
:10BC0000013B524213430133009ADB00914206DBB1
:10BC1000029A914203DA039A0098121A00E00C9AF1
:10BC2000525C03279A40131C059A4C1C134305933E
:10BC300027400BD1CB179B0F591889108900691821
:10BC4000301C05AA0123FFF75FFF0597211CD0E7F1
:10BC5000002000E0024807B0F0BDC04603000080AD
:10BC600017FCFFFFFF23F0B52B4C8DB02370002392
:10BC7000051C69460088009303F0C4FD002802D12A
:10BC80006B469B782370254E3368DB68002B06D10A
:10BC9000002128880A1C0B1C06F043FB3AE023789D
:10BCA000032BF5D81E4901A8FEF7D4F8336801A983
:10BCB000DE6804A805F0BEFD301C04A906F011FBE7
:10BCC000061C04A805F06EFD371E1ED0311C202274
:10BCD000103104A808F005F9301CFDF7CDFF2178DC
:10BCE00004ABC9005918082202A808F0FAF82888FD
:10BCF00002A90822012306F014FB0127002804D121
:10BD000028880C21074A06F00AFB01A805F04AFD25
:10BD1000002FBDD00DB0F0BD61220020B82500205D
:10BD20009F4A0200FFFF0000F0B5837991B0041C28
:10BD30005B071BD5FEF74AF800232269801A994158
:10BD4000994203D1F423FF3398420FD9A068002809
:10BD500008D0364B1D8801F00BF80368291C1B6ABC
:10BD6000152298470422A3799343A371A3799B07D3
:10BD700059D52E4B2E4D1F882B68DB68002B4ED0DB
:10BD80002C4B1A780193032A49D82B4904A8FEF7B3
:10BD900061F82B6804A9DE6808A805F04BFD08A926
:10BDA000301C06F09EFA061C08A805F0FBFC02AB4E
:10BDB0009A1D0823381C138006A9073B06F0B3FA26
:10BDC000002E08D0311C08A81031202208F089F874
:10BDD000301CFDF751FF019B06A91E7808ABF60049
:10BDE0009E1902ABDA88301C08F06CF8002813D0DA
:10BDF000082206A9301C08F074F82B6804A9DD6835
:10BE000005A805F017FD281C05A908AA202306F09F
:10BE10006EFA05A805F0C6FC04A805F0C3FC0222D2
:10BE2000A3799343A37111B0F0BDC04688280020C8
:10BE3000B8250020612200209F4A0200F8B58C1E20
:10BE4000E4B2051C069E132C22D80120071CA74033
:10BE50003C1C244F3C421BD0E97F5C1869181F2C06
:10BE60003EDC701C814203D90878C8540139F8E7D8
:10BE70000021C8B2984204D2545C70188470013119
:10BE8000F7E732789A183270EA7F9B18EB770DE06B
:10BE90003478013CE4B2A3420AD10021C8B29842EE
:10BEA00004D2545C701884700131F7E7002017E069
:10BEB000EF7F0120DF193F1B1F2F11DCA01C36185C
:10BEC000EF7FE819864205D23778301B02380770B9
:10BED0000136F5E73C1B023C281CEC7706F05BFAC8
:10BEE000F8BDC0463F000800F0B585B001930AAB2D
:10BEF0001E880BAB1B78451C02930EAB1B78041CF1
:10BF000003930B78171C03704B8A10224382013174
:10BF1000281C07F0E6FF6B469B88268363836B46ED
:10BF20001B7B002623776B4601221B7A6761E68321
:10BF3000EB77A31CDA770C9B0C256362231C201C77
:10BF40000D9A28331A705E709E70311C2A1C2C309A
:10BF500007F0E4FF201C074BE663A363311C2A1C97
:10BF6000403007F0DBFF201C034B2665E36405B07F
:10BF7000F0BDC0463D2302002F23020038B50D1C42
:10BF800000F0F6FE041C0368002D02D15B6998479F
:10BF900008E09B689847854204D22368201C9B6870
:10BFA0009847051CFA2080006843024904F066FAAD
:10BFB000E08038BD71020000F0B5071C161CA1B06E
:10BFC00002C7041C6A4918A81D1C06F02AFA331E71
:10BFD00003D0301C07F0E2FF83B20222019200225C
:10BFE0000292039201320093049218A9321C381C69
:10BFF000FFF77AFF231C18A858335E49069306F012
:10C0000010FA2B1E03D0281C07F0C8FF83B20222AF
:10C01000019200220292039201320093049218A925
:10C020002A1C0698FFF760FF231C18A8AC3352495E
:10C03000079306F0F6F9269B002B03D0181C07F097
:10C04000ADFF83B2022201920022029203920132DA
:10C050000093049218A9269A0798FFF745FF631CDE
:10C06000FF3318A84549089306F0DBF9279B002BFE
:10C0700003D0181C07F092FF83B202220192002223
:10C080000292039201320093049218A9279A089809
:10C09000FFF72AFF231C5533FF3318A838490993AB
:10C0A00006F0BFF9289B002B03D0181C07F076FF81
:10C0B00083B2022201920022029203920132009383
:10C0C000049218A9289A0998FFF70EFF231CA93398
:10C0D000FF3318A82B490A9306F0A3F9299B002BDC
:10C0E00003D0181C07F05AFF83B2022201920022EB
:10C0F00018AD029203920132009304920A98291C0F
:10C10000299AFFF7F1FE204B1B780B93002B2CD1C3
:10C11000069B12971393079B0DAF1493089B1B4923
:10C120001593099B381C16930A9B12AE179306F0C1
:10C1300078F949201D213B7810222B707B8A6B8275
:10C1400006ABC918C01807F0CCFE06232B756B464A
:10C150009B8D2068AB83AE6100F01AFE0368291C3A
:10C160001B6898470122084B1A70201C21B0F0BDB3
:10C17000292A0000242A0000252A0000272A00007E
:10C18000262A0000282A0000A72800200A180000FC
:10C1900038B50025041C0A4B85800833857103607F
:10C1A000C1601830FDF790FE201C1C30FDF78CFE9E
:10C1B000044BA5601C6001236561201CA37138BD80
:10C1C00060420200B8250020FA2130B585B0051C78
:10C1D000890068460222012305F071FB074C2068A4
:10C1E000002809D006F057F92988054B22681980E4
:10C1F000022193790B43937105B030BDB82500201F
:10C200008828002010B507290CD880680C1C00F085
:10C21000AFFD054A036811575B6C9847002802D0B0
:10C22000024800E0024810BDAA4B020016FCFFFFC6
:10C2300017FCFFFFF0B5051C954CA54496AB1B7889
:10C240000C1C08A8934907930692FDF703FE281CCF
:10C25000211C1C3005F0F6FA8F4909A8FDF7FAFDFC
:10C260008E490AA8FDF7F6FD0CAE0BA808A909AA8D
:10C2700005F0F7FA221C301C11AC0BA905F0F1FAFD
:10C280000AAA311C201C05F0ECFA211C08A805F0B4
:10C29000D9FA201C05F086FA301C05F083FA0BA8A9
:10C2A00005F080FAC020800000F062FE0820FDF753
:10C2B000C1FC071C002100F003FD0C22AF6000212F
:10C2C000301C07F02BFE231C07CE07C3744B381C11
:10C2D000E3600023211C236106F0B5FAA86800F092
:10C2E00047FD00210C220590201C07F017FE1420AA
:10C2F000FDF7A0FC6B4B221C1193031CC2CAC2C3E6
:10C30000694B059FC3600023A43703613B68002B82
:10C3100000D003613860A86800F03AFD00210C22CB
:10C320000590201C07F0FAFD1420FDF783FC5F4BFD
:10C33000221C1193031CC2CAC2C35D4BC3600023FD
:10C340000361059B1B6B002B00D00361059B11AEA5
:10C350001863A86800F00CFD00210C220590301C29
:10C3600007F0DCFD1420FDF765FC524B1193031C14
:10C3700086CE86C3504B059FC36000239837036168
:10C380003B68002B00D003613860012004AB1B7FA9
:10C3900004AA03430BA9137705F0C7FFA86800F0B0
:10C3A00007FD036845495B6A9847A86800F000FDEF
:10C3B000036843499B699847A86800F0F9FC00238B
:10C3C000026800931668191C1A1CB047079B002BC3
:10C3D0000AD0281C06F068F8032805DDA86800F0DC
:10C3E000E7FC0368DB689847281C0621FFF70AFF73
:10C3F000069BA9681B68201C04330093314B0CACCE
:10C400001B6800260193304B1B6802932F4B1B685F
:10C4100003932F4B1A682F4B1B68FFF7CDFDA868BD
:10C4200000F0A6FC0368211C9B6A98470823A868B3
:10C430002380DB186380A68000F09AFC0368211C2F
:10C44000DB6A9847A868062105F0F8FF089B0921D8
:10C450001A1DA8689B7806F004F8A86800F088FC0C
:10C46000C8210671A868FFF789FDA86800F080FC64
:10C4700005F0CDFF0AA805F095F909A805F092F995
:10C4800008A805F08FF991239B009D44F0BDC0469C
:10C49000BCFDFFFFAB4A0200C84A0200B94A0200D5
:10C4A0004B230200C9C101005923020065BC0100F1
:10C4B000672302008323020075230200D9C4010010
:10C4C0000DC50100C4250020C4210020C025002086
:10C4D000BC250020C821002013B506226846FDF7C0
:10C4E000C9FC094B1C68002C0AD0694601A805F05C
:10C4F000A1F9201C01A905F0F8FF01A805F052F9E7
:10C50000684605F04FF913BDB8250020002373B528
:10C5100001AE0C1C311C051C019303F073F90028BB
:10C5200002D1B278064B1A70064B1868002806D064
:10C5300061426141044BC9B21D8005F0DEFF73BD4D
:10C5400061220020B8250020882800201FB5084B54
:10C550001B68DB8B834209D1064B68461A78064B71
:10C5600006491A700322012305F0A9F905B000BDA0
:10C57000C8250020A9280020A8280020FF030000CB
:10C58000F0B5071C1C1CABB0396101341430151C0C
:10C590000091FDF799FCE3B2181C0193FDF74AFBEB
:10C5A00000240135EDB27860281CFDF743FB7B4B7E
:10C5B00038601C707A4BBD721C706B461B797949D0
:10C5C000FB72221C3C727C720DA806F01AF8242221
:10C5D0003B6815AE029304AB9B181B7804AA33701A
:10C5E00004ABDB8E738245239B18181C25239B18F4
:10C5F000191C102207F075FC029B64227361012351
:10C6000073830123337704AB9B18583A1A7046237F
:10C6100004AA9B180122DA771FAB1C706D2304AAB1
:10C620009B181C706E2335839B18F483211C0C22ED
:10C6300020A874621C7007F071FC5B4BF463B36359
:10C64000211C0C2225A807F069FC584B5849F364BB
:10C65000221C34650DA805F0D4FF5420FDF7EAFA3A
:10C6600024227B68051C039304AB9B181B7804AA47
:10C67000037004ABDB8E4382431C0293181C2523FA
:10C680009B18191C102207F02CFC039B029A6B616B
:10C690006B469B88EC832B8301236B8301232B77D1
:10C6A0002023D3770122281CAB1CDA7726336C6257
:10C6B000211C1C705C709C700C222C3007F02EFC2E
:10C6C000281C394BEC63AB63211C0C22403007F073
:10C6D00025FC364B2C65EB64364B3749221C08A8E9
:10C6E0001D600495059605F08CFF242104AB1B7C8E
:10C6F00004AA5218137004AB5B8C04AAD3862523BA
:10C7000013399B188918181C102207F0EAFB3821EE
:10C71000022304AA52181370402204AB139300980A
:10C720009B181C8000F034FB03680DA91B68984718
:10C73000F38B0098FB6000F02BFB051C1420FDF729
:10C7400079FA061C211C0C2207F0E8FB301C1B4B5D
:10C75000346106A980C008220693079407F0C1FB44
:10C76000174BF360AB69A34200D03361AE61009810
:10C7700000F00EFB041C002108A80C2207F0CEFBE1
:10C78000104B08AA0893231C6C3323CA23C30E4BF7
:10C79000381CA3670023E3672BB0F0BDA928002055
:10C7A000A8280020F54B02003D2302002F230200A1
:10C7B000E54B0200C8250020D54B02005925020098
:10C7C0002F2502004DC501002125020038B5012AA0
:10C7D00010D0051C037A141CC818A97A03F0C4FFF2
:10C7E000A9610025022C06D19620211CC00004F06E
:10C7F00002FF00E0014D281C38BDC04617FCFFFFBA
:10C8000038B5012918D00A1C041C437A002904D128
:10C81000027A934206D10C4814E0022902D1017A2F
:10C820008B420BD0607A2368A17A1D5C013003F043
:10C830009BFF281C617205E0044803E00121FFF71B
:10C84000C5FFEFE738BDC0460CFCFFFF17FCFFFF3C
:10C85000054B1A78054B19788B1A8A4202D9C37A8C
:10C86000CB189B1A181C7047A8280020A928002064
:10C87000F0B58DB002AF002A00DC9BE0012B00D1A7
:10C8800098E0BB6027230025FB18041C0069FA60B0
:10C8900079601D7000F07CFA494A0368116827220C
:10C8A0009B69BA189847206905F0D0FE022318400A
:10C8B000A84206D12533FB181B78AB4203D141486F
:10C8C0007BE0FD6100E0F861206905F0BFFE8307B1
:10C8D00072D52723FB181B78002B6DD06B463B616C
:10C8E000394B1E78394B1D78FB69BB61FB69FA68CF
:10C8F000934212DA681CE17A03F036FFB14208D0A5
:10C90000FA697B689B5C62685355BB69CDB20133A1
:10C91000BB61FB690133FB61E8E7BB692B4E201C5F
:10C92000FB613570FFF794FF6A46C31DDB08DB002F
:10C93000D31A9D46051C02AB181C00212A1C7B61E2
:10C9400007F0ECFA204BE27A1B78201C0093337836
:10C9500001937B69616805F07EFEBB68022B03D101
:10C960001B480321FDF76EF8206900F011FA144E00
:10C9700002683368D98BABB200250095D5687A6917
:10C98000A847BB68022B11D1FCF7CAFF206900F051
:10C99000FFF927220368BA189B69316898473B69F9
:10C9A000FA689D46BB6993428EDB05E03B69B86936
:10C9B0009D4602E0074800E0F869BD460BB0F0BDB7
:10C9C000C825002016FCFFFFA8280020A928002069
:10C9D000FF03000017FCFFFF002815D00060416036
:10C9E0008260C360046145618661C7614446046238
:10C9F0004C464462544684625C46C46264460463A6
:10CA00006E46466374468463002A06D0C46B043CB9
:10CA1000043A25681560B442F9D18C6BA6464E6B7A
:10CA2000B546002B06D0CC6B043C043B1D6825604A
:10CA3000B442F9D10C6BA446CC6AA3468C6AA246D8
:10CA40004C6AA1460C6AA046CF698E694D690C6993
:10CA5000CB688A68086849687047006041608260F6
:10CA6000C360046145618661C761444604624C4607
:10CA70004462544684625C46C462644604636E4603
:10CA8000466374468463C46B043C043925680D60B6
:10CA9000B442F9D1C7698669456904697047006085
:10CAA00041608260C360046145618661C76144463C
:10CAB00004624C464462544684625C46C4626446E6
:10CAC00004636C4644637446846304697047846BF2
:10CAD000A646446BA546046BA446C46AA346846A72
:10CAE000A246446AA146046AA046C76986694569A8
:10CAF0000469C3688268006841687047014B03603D
:10CB00007047C0464C460200F0B5071C85B00D1CAE
:10CB10001E1C002921DD002B1FD0046863880391AF
:10CB2000994200DD0393A38802929A4200DD0293AA
:10CB3000002306340193019B029A93420BDA201CD6
:10CB4000311C039A07F0CDF93B6876195B88E4182D
:10CB5000019B0133EEE7002000E0014805B0F0BD85
:10CB600017FCFFFFF8B5041C0E1C151C1F1C002928
:10CB700001DB002A02DA0D4B236015E0101C48434C
:10CB80000630FDF757F8206004F0E6FE2368201C0D
:10CB90005E809D80002F05D0311C2A1C3B1CFFF7B6
:10CBA000B3FF01E005F0ACFDF8BDC0464C46020005
:10CBB000F0B5041C87B004A8151C1E1C0F1CFCF744
:10CBC000F7FF23685A88954208DA9B889E4205DA67
:10CBD0001F2F03D9059B00939F4201DD18482DE0CC
:10CBE000052300217B430193049B0293019B029A3E
:10CBF000CB18A03BD35C002203938B199C4653199E
:10CC0000276800937888834202DABB889C4507DB5B
:10CC10000132052AF3D101310529E7D100200DE0C9
:10CC200063465843009BFB18102717411818039BB5
:10CC30001F407B1E9F417F428771E9E707B0F0BD2F
:10CC400017FCFFFFF7B503689E1D5B885A1A019217
:10CC500000291CDD0C1C051C0027994202DB05F095
:10CC60004FFD12E02B689B889F420EDA3119301C71
:10CC7000019A07F036F9019B211CF01805F03AFDE6
:10CC80002B6801375B88F618ECE7002000E00148CC
:10CC9000FEBDC04617FCFFFF10B50548054C2060DF
:10CCA00004F05DFE201C0449044A07F0D4F810BDCE
:10CCB0004C460200CC250020E72602000020002080
:10CCC00038B50023041C0160436099420AD1064D27
:10CCD0002B68002B02D106F092FB286023689B0092
:10CCE000EB586360201C38BDDC25002070B500289F
:10CCF0000DD10C4C2668002E07D1083007F0BAF889
:10CD0000051C311CFFF7DCFF2560206808E00122CC
:10CD1000054906480B68134002D1026043600A606F
:10CD200070BDC046D0250020E0250020D42500207D
:10CD3000436810B5041C002B02D1044806F0DFFE46
:10CD4000606803689B68984710BDC046B24B0200FC
:10CD5000436810B5041C002B02D1044806F0CFFE36
:10CD6000606803681B69984710BDC046B24B02005B
:10CD7000436810B5041C002B02D1044806F0BFFE26
:10CD8000606803681B69984710BDC046B24B02003B
:10CD9000436810B5041C002B02D1044806F0AFFE16
:10CDA000606803689B69984710BDC046B24B02009B
:10CDB000436810B5041C002B02D1044806F09FFE06
:10CDC000606803685B6A984710BDC046B24B0200BA
:10CDD00010B5041C01F09EFD034B1B68002B01D015
:10CDE000201C984710BDC046E4250020F0B58DB04A
:10CDF000051C02F03DFB002000F06CFF0368071CDF
:10CE00001B6998473B68041C9B69381C98473B6822
:10CE1000061C5B6A381C9847031C288810380B28AE
:10CE200000D99BE003F020FB063D9A9A9A5A9A9A01
:10CE30009A619A76AF88201C391C05F0BBFE221C33
:10CE40006B7B583201931378A879191C022319437C
:10CE500006AB11701F80012306AA9370D070131CBB
:10CE60006A461279E91D9A722B1C0622163307A80E
:10CE70000B9307F036F80B20291C06ABC0180E31B7
:10CE8000062207F02EF894346368A360A068002897
:10CE900064D0C36806A99847A368002BF4D01B6927
:10CEA000F3E7201C3049AF8805F084FE221C0220E5
:10CEB00058321378A9798343137006AB1F80997099
:10CEC000A0346368A360A068002847D0C36806A99F
:10CED0009847A368002BF4D01B69F3E75B69A88827
:10CEE000A91D002B3AD0984738E0636EAF79002B2C
:10CEF00034D01E4A002A31D0A366A06E00282DD05F
:10CF0000C368391C9847A36E002B01D1636EF3E709
:10CF10001B69F1E70122AB7BE91D1A4001925A0718
:10CF2000920FDB08029206A806226F7B049306F09C
:10CF3000D8FF6A46127906ABDA716A46127A9F7197
:10CF40001A726A46127C201C5A722B1C0F330993EA
:10CF5000231C8C3380301B6806A99847301C291C81
:10CF600005F017FF0DB0F0BDFFFF000081280200A3
:10CF70000723D72802D9024B18600023181C7047DA
:10CF8000E8250020014B18607047C046E4250020CA
:10CF90001FB5A3238022DB00D205D3580820DB076E
:10CFA00000D405301C4948221C4B02F0A7FC002885
:10CFB0000AD080B2002807D1BFF34F8F184A194B0F
:10CFC000DA60BFF34F8FFEE7002302A8029301331C
:10CFD0000370154B1B68436005F050FC002801D01E
:10CFE000072017E0684605F047FC0028F8D169469D
:10CFF00005F040FC0028F3D10C4802F0AFFC80B2F1
:10D00000002807D10A4802F0B3FC80B2002801D101
:10D0100001F01CF805B000BDEC25002083280200BB
:10D020000400FA0500ED00E0E8250020EDCD010048
:10D03000D1CD010080B2002807D1BFF34F8F034A42
:10D04000034BDA60BFF34F8FFEE770470400FA0529
:10D0500000ED00E0024B0B60092313607047C046EF
:10D06000054C020010B5041C002000F033FE0368DC
:10D070001B699847031CF3331C7086235B00C05068
:10D08000031C0021044AFC335A61044A99615A6224
:10D09000F43006F093FC10BD7B2A02008D2A0200BA
:10D0A000012008B5011C044A02F08EFC031E00D0CA
:10D0B0000B23181C08BDC04665D00100F0B5051C47
:10D0C000041C87B0AC356B68AB60A868002807D03B
:10D0D000C368211C9847AB68002BF4D01B69F3E7A9
:10D0E000261CB0363568002D05D02F69281C06F0A7
:10D0F000B9FE3D1CF7E7221CFC235832117835603D
:10D100000B401370261C231C0A365C331D70301C28
:10D11000291C1F2206F002FFF5772A36301C291C35
:10D120001F2206F0FBFEF577606E002804D005692B
:10D1300006F098FE281CF8E7251C606698352868DC
:10D14000002804D0066906F08DFE301CF8E7286040
:10D15000251CA4352E68002E05D03769301C06F03A
:10D1600081FE3E1CF7E72E6001AD311C281C0C220D
:10D1700006F0D4FE231C2A1C6C3383CA83C3094BDC
:10D18000E667A367311C0C22281C06F0C7FE231C8F
:10D19000803307CD07C3301C034A90341A602660E1
:10D1A00007B0F0BD6D2A02005F2A0200F0B593B00F
:10D1B000019000200C1C00F08DFD03685B6A98470D
:10D1C00000F060FE06AB00280DD000221A7105AAFF
:10D1D00006920822181C1A730AAA9A6000F01EFF11
:10D1E000002802D052E01871187300231F1C23730B
:10D1F0002371019BBA331B78BB4246D907237B437B
:10D20000019AD218B832D278022A31D1002506AE5E
:10D21000337BAB4236D907207843AB000293019BA6
:10D22000029A1818B368BB30995806F011F9002813
:10D230001BD0B368029AA1689A58237B9B005A506E
:10D24000237B01332373337B5A1E954208D0104948
:10D25000B2685B189B009B5803930399029BD150C3
:10D2600006AA137B013B13730CE00135EDB2CEE748
:10D2700001992279CB182168BB339200535023794E
:10D28000013323717B1CDFB2B3E7002013B0F0BD84
:10D29000FFFFFF3FF0B50C789BB00222012C43D07A
:10D2A0004B88032C04D1A03B221C9BB2204C03E0F2
:10D2B0000322203B1F4C9BB2A34235D88C881E4BC7
:10D2C00003229C4230D80AAB009312AB02936A4609
:10D2D0000023061C13711373B83633780D1C041C1D
:10D2E000002B05D0201C6946FFF760FF021E1BD1F2
:10D2F00004AF18220021381C06F010FE2B78381CD1
:10D300003B7033783B726B46FB606B883B82AB882B
:10D310007B8205F0C6FA0322002805D15834237811
:10D32000023A1343021C2370101C1BB0F0BDC04610
:10D33000603F0000E03F0000FF3F0000F0B59DB0FF
:10D340001F1C6B46051C1A70581C0622229E02AC3C
:10D3500006F0C7FD002F07D03B8823807B886380C1
:10D36000BB88A380FB8806E032232380DB18638020
:10D37000F533A780FF33E3800CAB04A9049314AB0F
:10D380008B602F1C0023B9370B710B733B78002B7C
:10D3900017D101203B78022708A903405A000B78D7
:10D3A000BB4304AF4F601343002E10D0B2798343C8
:10D3B000024013430B7033880B8173884B81B38811
:10D3C00011E0281CFFF7F2FE0028E2D029E02A1C19
:10D3D000323212788343024013430B70AB8D0B81C2
:10D3E000EB8D4B812B8E6846221C8B8105F06FFAEA
:10D3F000031C0020834214D00630082B11D005D81E
:10D400000130042B0DD0834208D109E00520112BF7
:10D4100007D0054A934203D0102B01D00B2000E027
:10D4200004201DB0F0BDC0460232000073B50E1CD2
:10D43000151C0268009394682B1C321C0149A047FC
:10D4400076BDC046FFFF000073B50E1C151C06AA72
:10D45000117802680093019114692B1C321C014958
:10D46000A04776BDFFFF0000F0B50C1C002187B07F
:10D470006E460091151C0CA90DAA098812783180FE
:10D480000193002A03D1011C4679F8310EE0201CDB
:10D49000291C6A4605F096FB031E3CD14FE008317B
:10D4A0000F1C083F3F88AF4203D00132B242F6D38F
:10D4B0003DE030212032920012580132D27F0A42E0
:10D4C00035D00221002002AED206F3600CABD20FA1
:10D4D000B3601C4B8A1A3580B270B0809C4207D171
:10D4E00000F0F8FB03681B69984705F066FB041C15
:10D4F000201C311C05F06AFB80B200281FD01128C7
:10D5000013D00ADC08280ED0201C291C6A4605F01E
:10D5100059FB002809D0032011E00B4B984204D09E
:10D520000A4B9842F0D1062009E0052007E0201CB4
:10D53000291C6A4605F046FB0028ECD1063007B0EE
:10D54000F0BDC046FFFF00000330000001340000C2
:10D55000F0B5051C97B0081C2E240B9100F0A0FD1F
:10D5600004ABE418109010A90120221C05F028FB40
:10D57000002801D00320CEE023880B9A0A909383E1
:10D580000B9B0A9A1B7D934250D96B791D2B01D9B5
:10D590000720C0E00B9B9B690C930A9B0C9A9B0095
:10D5A0009C586369002B46D1638B002B43D1631CCD
:10D5B000DB7F022B3FD134E06169631CDA7FA31C5F
:10D5C000DB7F0091618B00200191218B0291217FF3
:10D5D00003910C9904910D990591211C2931097829
:10D5E0000691211C2A310978079169791F31C900F8
:10D5F0006918089110A905F063FF0028BAD16B796A
:10D60000071C1A1C203292001F335451DB005B5B55
:10D61000E3836B7901336B71231C28331B78BB4286
:10D6200030D80A980130C3B20A93A9E72B790020B9
:10D6300001332B716FE0201C00F032FD00261090AA
:10D640000D960C96231C28331B78B342B4D9626A1A
:10D65000B3009F58002311AA1370002011A9CA1803
:10D6600001335070102BF8D12C4B381C4B8205F035
:10D670002CFB002803D07B690C937B8B0D93013628
:10D68000F6B2DFE78E239B00EB5C132B00D97FE71C
:10D69000626ABB009E58002311AA1370002011A9D2
:10D6A000CA1801335070102BF8D11C4B301C4B8220
:10D6B00005F00BFB0C9000282AD1301C00F0F0FC88
:10D6C000328B738B0092327F109001928E229200E7
:10D6D000AA5C0C981D32FF325200AA180232029244
:10D6E00010A9726905F0C2FF002800D042E78E231E
:10D6F0008E219B00EA5C8900531CDBB26B541D3306
:10D700007A32FF3392005B005651EB185B88F3834B
:10D71000781CC7B280E717B0F0BDC04601290000F1
:10D72000F0B5041C87B0E36B2364206C002807D09D
:10D73000C368211C9847236C002BF4D01B69F3E7C6
:10D74000E06B002804D0056906F08CFB281CF8E784
:10D75000E06320716071E068002804D0056906F07C
:10D7600081FB281CF8E7E060A069002804D0056967
:10D7700006F078FB281CF8E7A061606A002804D056
:10D78000056906F06FFB281CF8E7266B6062002E27
:10D7900005D03569301C06F065FB2E1CF7E701AD9E
:10D7A000311C2663281C0C2206F0B8FB231C2A1C03
:10D7B000443383CA83C30F4B311C23656665281C21
:10D7C0000C2206F0ABFB231C2A1C583383CA83C3EC
:10D7D000084B311C63660C22A666281C06F09EFBD3
:10D7E000231C6C3307CD07C3301C024BE667A367CD
:10D7F00007B0F0BD2125020038B5051CFFF790FFEA
:10D80000041E1CD1281C211C7822803006F086FBC7
:10D81000281CE930211C5022FF3006F07FFB281C19
:10D82000211C0822F83006F079FB064B211CE81871
:10D83000282206F073FB8E239B00EC5400E00624A4
:10D84000201C38BD3A0200000B68002B01D1036098
:10D8500002E0024B0360002343607047812802000E
:10D8600000487047FFFF00007FB503791648002B82
:10D8700028D0164D164C2B78201C002B22D102AE3E
:10D88000301C05F004FC002816D17388592B13D1E5
:10D890003378B288D91F012904D80092201C202196
:10D8A0000C4A03E0201C202100920B4A03F0E0FA0E
:10D8B00001232B70201C05E0201C0849202206F0C3
:10D8C00074FBF7E704B070BD0E4C0200AA280020DC
:10D8D000AB280020284C0200454C02006A4C020094
:10D8E00010B5041C024B08C005F09AFC201C10BDAA
:10D8F0003044020010B5041C024B08C005F0A5FC22
:10D90000201C10BD40440200F0B597B00593036899
:10D9100007AD1B6804910393111C2B1C061C91C9B5
:10D9200091C30024D3680CA8211C0C22EB602C614D
:10D9300006F0F4FA0B4B10940F9311AB1C700022FD
:10D9400011AB191901344A70102CF8D15A82059A7A
:10D9500001930092301C04992A1C0CAB039CA04735
:10D9600017B0F0BDAB30020038B5064B041C0360A5
:10D970004068002804D0056906F074FA281CF8E70E
:10D98000201C38BD4043020038B5064B041C036020
:10D990004068002804D0056906F064FA281CF8E7FE
:10D9A000201C38BD1044020038B5064B041C03602F
:10D9B0004068002804D0056906F054FA281CF8E7EE
:10D9C000201C38BD2044020038B5064B041C0360FF
:10D9D0004068002804D0056906F044FA281CF8E7DE
:10D9E000201C38BD5044020038B5064B041C0360AF
:10D9F0004068002804D0056906F034FA281CF8E7CE
:10DA0000201C38BD6044020038B5064B041C03607E
:10DA10004068002804D0056906F024FA281CF8E7BD
:10DA2000201C38BD6043020038B5064B041C03605F
:10DA30004068002804D0056906F014FA281CF8E7AD
:10DA4000201C38BD7043020038B5064B041C03602F
:10DA50004068002804D0056906F004FA281CF8E79D
:10DA6000201C38BD5043020038B5064B041C03602F
:10DA70004068002804D0056906F0F4F9281CF8E78E
:10DA8000201C38BDA044020038B5064B041C0360BE
:10DA90004068002804D0056906F0E4F9281CF8E77E
:10DAA000201C38BDB0440200FC3070B5C56B061CAC
:10DAB000002D16D1342006F0DDF9041C291C342277
:10DAC00006F02CFA084BA5606360084B6561236182
:10DAD000074B2562E361074BE562A362064B2360B7
